{
  "_format": "hh-sol-artifact-1",
  "contractName": "AlphaVaultSwap",
  "sourceName": "contracts/AlphaVault.sol",
  "abi": [
    {
      "inputs": [],
      "stateMutability": "nonpayable",
      "type": "constructor"
    },
    {
      "inputs": [
        {
          "internalType": "contract IERC20",
          "name": "buyToken",
          "type": "address"
        },
        {
          "internalType": "contract IERC20",
          "name": "sellToken",
          "type": "address"
        }
      ],
      "name": "FillQuote_Swap_Failed",
      "type": "error"
    },
    {
      "inputs": [],
      "name": "InvalidAddress",
      "type": "error"
    },
    {
      "inputs": [],
      "name": "Invalid_Multiswap_Data",
      "type": "error"
    },
    {
      "anonymous": false,
      "inputs": [
        {
          "indexed": false,
          "internalType": "uint256",
          "name": "wethBal_",
          "type": "uint256"
        },
        {
          "indexed": false,
          "internalType": "uint256",
          "name": "reqAmount_",
          "type": "uint256"
        }
      ],
      "name": "BadRequest",
      "type": "event"
    },
    {
      "anonymous": false,
      "inputs": [
        {
          "indexed": false,
          "internalType": "uint256",
          "name": "wethBal_",
          "type": "uint256"
        }
      ],
      "name": "EtherBalanceChange",
      "type": "event"
    },
    {
      "anonymous": false,
      "inputs": [
        {
          "indexed": true,
          "internalType": "address",
          "name": "previousOwner",
          "type": "address"
        },
        {
          "indexed": true,
          "internalType": "address",
          "name": "newOwner",
          "type": "address"
        }
      ],
      "name": "OwnershipTransferred",
      "type": "event"
    },
    {
      "anonymous": false,
      "inputs": [
        {
          "indexed": true,
          "internalType": "address",
          "name": "from_",
          "type": "address"
        },
        {
          "indexed": true,
          "internalType": "address",
          "name": "to_",
          "type": "address"
        },
        {
          "indexed": false,
          "internalType": "uint256",
          "name": "amount_",
          "type": "uint256"
        }
      ],
      "name": "TransferSuccessful",
      "type": "event"
    },
    {
      "anonymous": false,
      "inputs": [
        {
          "indexed": false,
          "internalType": "contract IERC20",
          "name": "buyToken",
          "type": "address"
        },
        {
          "indexed": false,
          "internalType": "uint256",
          "name": "boughtAmount_",
          "type": "uint256"
        }
      ],
      "name": "WithdrawTokens",
      "type": "event"
    },
    {
      "anonymous": false,
      "inputs": [
        {
          "indexed": false,
          "internalType": "bool",
          "name": "status",
          "type": "bool"
        },
        {
          "indexed": false,
          "internalType": "uint256",
          "name": "initialBuyTokenBalance",
          "type": "uint256"
        }
      ],
      "name": "ZeroXCallSuccess",
      "type": "event"
    },
    {
      "anonymous": false,
      "inputs": [
        {
          "indexed": false,
          "internalType": "uint256",
          "name": "buTokenAmount",
          "type": "uint256"
        }
      ],
      "name": "buyTokenBought",
      "type": "event"
    },
    {
      "anonymous": false,
      "inputs": [
        {
          "indexed": false,
          "internalType": "uint256",
          "name": "maxTransactions",
          "type": "uint256"
        }
      ],
      "name": "maxTransactionsChange",
      "type": "event"
    },
    {
      "stateMutability": "payable",
      "type": "fallback"
    },
    {
      "inputs": [],
      "name": "WETH",
      "outputs": [
        {
          "internalType": "contract IWETH",
          "name": "",
          "type": "address"
        }
      ],
      "stateMutability": "view",
      "type": "function"
    },
    {
      "inputs": [],
      "name": "fee",
      "outputs": [
        {
          "internalType": "uint256",
          "name": "",
          "type": "uint256"
        }
      ],
      "stateMutability": "view",
      "type": "function"
    },
    {
      "inputs": [],
      "name": "maxTransactions",
      "outputs": [
        {
          "internalType": "uint256",
          "name": "",
          "type": "uint256"
        }
      ],
      "stateMutability": "view",
      "type": "function"
    },
    {
      "inputs": [
        {
          "internalType": "contract IERC20[]",
          "name": "sellToken",
          "type": "address[]"
        },
        {
          "internalType": "contract IERC20[]",
          "name": "buyToken",
          "type": "address[]"
        },
        {
          "internalType": "address[]",
          "name": "spender",
          "type": "address[]"
        },
        {
          "internalType": "address payable[]",
          "name": "swapTarget",
          "type": "address[]"
        },
        {
          "internalType": "bytes[]",
          "name": "swapCallData",
          "type": "bytes[]"
        },
        {
          "internalType": "uint256[]",
          "name": "amount",
          "type": "uint256[]"
        }
      ],
      "name": "multiSwap",
      "outputs": [],
      "stateMutability": "payable",
      "type": "function"
    },
    {
      "inputs": [],
      "name": "owner",
      "outputs": [
        {
          "internalType": "address",
          "name": "",
          "type": "address"
        }
      ],
      "stateMutability": "view",
      "type": "function"
    },
    {
      "inputs": [],
      "name": "renounceOwnership",
      "outputs": [],
      "stateMutability": "nonpayable",
      "type": "function"
    },
    {
      "inputs": [
        {
          "internalType": "uint256",
          "name": "num",
          "type": "uint256"
        }
      ],
      "name": "setMaxTransactionLimit",
      "outputs": [],
      "stateMutability": "nonpayable",
      "type": "function"
    },
    {
      "inputs": [
        {
          "internalType": "uint256",
          "name": "num",
          "type": "uint256"
        }
      ],
      "name": "setfee",
      "outputs": [],
      "stateMutability": "nonpayable",
      "type": "function"
    },
    {
      "inputs": [
        {
          "internalType": "address",
          "name": "newOwner",
          "type": "address"
        }
      ],
      "name": "transferOwnership",
      "outputs": [],
      "stateMutability": "nonpayable",
      "type": "function"
    },
    {
      "inputs": [
        {
          "internalType": "uint256",
          "name": "amount",
          "type": "uint256"
        }
      ],
      "name": "withdrawETH",
      "outputs": [],
      "stateMutability": "nonpayable",
      "type": "function"
    },
    {
      "stateMutability": "payable",
      "type": "receive"
    }
  ],
  "bytecode": "0x60a060405234801561001057600080fd5b5061002d61002261008d60201b60201c565b61009560201b60201c565b73c02aaa39b223fe8d0a0e5c4f27ead9083c756cc273ffffffffffffffffffffffffffffffffffffffff1660808173ffffffffffffffffffffffffffffffffffffffff1660601b8152505060196001819055506005600281905550610159565b600033905090565b60008060009054906101000a900473ffffffffffffffffffffffffffffffffffffffff169050816000806101000a81548173ffffffffffffffffffffffffffffffffffffffff021916908373ffffffffffffffffffffffffffffffffffffffff1602179055508173ffffffffffffffffffffffffffffffffffffffff168173ffffffffffffffffffffffffffffffffffffffff167f8be0079c531659141344cd1fd0a4f28419497f9722a3daafe3b4186f6b6457e060405160405180910390a35050565b60805160601c61241562000186600039600081816102af01528181610a280152610c7401526124156000f3fe6080604052600436106100955760003560e01c80638da5cb5b116100595780638da5cb5b1461014e578063ad5c464814610179578063ddca3f43146101a4578063f14210a6146101cf578063f2fde38b146101f85761009c565b806324e1c18d1461009e5780636ca591a7146100c9578063715018a6146100e557806373fee090146100fc5780637a9d7c14146101255761009c565b3661009c57005b005b3480156100aa57600080fd5b506100b3610221565b6040516100c0919061163d565b60405180910390f35b6100e360048036038101906100de919061194e565b610227565b005b3480156100f157600080fd5b506100fa610bd8565b005b34801561010857600080fd5b50610123600480360381019061011e9190611a9b565b610bec565b005b34801561013157600080fd5b5061014c60048036038101906101479190611a9b565b610bfe565b005b34801561015a57600080fd5b50610163610c49565b6040516101709190611b09565b60405180910390f35b34801561018557600080fd5b5061018e610c72565b60405161019b9190611b83565b60405180910390f35b3480156101b057600080fd5b506101b9610c96565b6040516101c6919061163d565b60405180910390f35b3480156101db57600080fd5b506101f660048036038101906101f19190611a9b565b610c9c565b005b34801561020457600080fd5b5061021f600480360381019061021a9190611bca565b610cee565b005b60015481565b6001548b8b9050111580156102415750888890508b8b9050145b801561025257508888905087879050145b801561026357508686905085859050145b610299576040517f90b42d6500000000000000000000000000000000000000000000000000000000815260040160405180910390fd5b60006040518060400160405280600081526020017f000000000000000000000000000000000000000000000000000000000000000073ffffffffffffffffffffffffffffffffffffffff168152509050600034111561039d57806020015173ffffffffffffffffffffffffffffffffffffffff1663d0e30db0346040518263ffffffff1660e01b81526004016000604051808303818588803b15801561033e57600080fd5b505af1158015610352573d6000803e3d6000fd5b5050505050348160000181815250507f59e3c56b3739d587caa0270fae7c28e1b6a1af555395ad122400ff97d48fed168160000151604051610394919061163d565b60405180910390a15b60005b88889050811015610b7157600073ffffffffffffffffffffffffffffffffffffffff168989838181106103d6576103d5611bf7565b5b90506020020160208101906103eb9190611bca565b73ffffffffffffffffffffffffffffffffffffffff1614156105d45782818151811061041a57610419611bf7565b5b602002602001015182600001511015610489577f0b74b0798ec89f7cf91b1446e01c1bb75b7d55c45b104edfb364a46a074e2f56826000015184838151811061046657610465611bf7565b5b602002602001015160405161047c929190611c26565b60405180910390a1610b71565b600083828151811061049e5761049d611bf7565b5b602002602001015111156105cf578281815181106104bf576104be611bf7565b5b6020026020010151826000018181516104d89190611c7e565b91508181525050816020015173ffffffffffffffffffffffffffffffffffffffff16632e1a7d4d84838151811061051257610511611bf7565b5b60200260200101516040518263ffffffff1660e01b8152600401610536919061163d565b600060405180830381600087803b15801561055057600080fd5b505af1158015610564573d6000803e3d6000fd5b5050505061059383828151811061057e5761057d611bf7565b5b602002602001015161058e610d72565b610d7a565b7f59e3c56b3739d587caa0270fae7c28e1b6a1af555395ad122400ff97d48fed1682600001516040516105c6919061163d565b60405180910390a15b610b5e565b816020015173ffffffffffffffffffffffffffffffffffffffff168d8d8381811061060257610601611bf7565b5b90506020020160208101906106179190611cf0565b73ffffffffffffffffffffffffffffffffffffffff1614156107e6578a8a8281811061064657610645611bf7565b5b905060200201602081019061065b9190611cf0565b73ffffffffffffffffffffffffffffffffffffffff168d8d8381811061068457610683611bf7565b5b90506020020160208101906106999190611cf0565b73ffffffffffffffffffffffffffffffffffffffff161415610773576107008d8d838181106106cb576106ca611bf7565b5b90506020020160208101906106e09190611cf0565b8483815181106106f3576106f2611bf7565b5b6020026020010151610dc5565b82818151811061071357610712611bf7565b5b60200260200101518260000181815161072c9190611d1d565b915081815250507f59e3c56b3739d587caa0270fae7c28e1b6a1af555395ad122400ff97d48fed168260000151604051610766919061163d565b60405180910390a1610b5e565b82818151811061078657610785611bf7565b5b60200260200101518260000181815161079f9190611c7e565b915081815250507f59e3c56b3739d587caa0270fae7c28e1b6a1af555395ad122400ff97d48fed1682600001516040516107d9919061163d565b60405180910390a1610832565b6108318d8d838181106107fc576107fb611bf7565b5b90506020020160208101906108119190611cf0565b84838151811061082457610823611bf7565b5b6020026020010151610dc5565b5b60006109018c8c8481811061084a57610849611bf7565b5b905060200201602081019061085f9190611cf0565b8f8f8581811061087257610871611bf7565b5b90506020020160208101906108879190611cf0565b8c8c8681811061089a57610899611bf7565b5b90506020020160208101906108af9190611bca565b8b8b878181106108c2576108c1611bf7565b5b90506020020160208101906108d79190611db1565b8a8a888181106108ea576108e9611bf7565b5b90506020028101906108fc9190611ded565b610ebe565b90506109426040518060400160405280600781526020017f626f756768743a000000000000000000000000000000000000000000000000008152508261121b565b60006103e8826002546109559190611e50565b61095f9190611ed9565b90506109a06040518060400160405280600481526020017f6665653a000000000000000000000000000000000000000000000000000000008152508261121b565b836020015173ffffffffffffffffffffffffffffffffffffffff168d8d858181106109ce576109cd611bf7565b5b90506020020160208101906109e39190611cf0565b73ffffffffffffffffffffffffffffffffffffffff161415610a8d5780828560000151610a109190611d1d565b610a1a9190611c7e565b846000018181525050610a4d7f0000000000000000000000000000000000000000000000000000000000000000826112b7565b7f59e3c56b3739d587caa0270fae7c28e1b6a1af555395ad122400ff97d48fed168460000151604051610a80919061163d565b60405180910390a1610b5b565b610ac98d8d85818110610aa357610aa2611bf7565b5b9050602002016020810190610ab89190611cf0565b8284610ac49190611c7e565b611350565b610afa8d8d85818110610adf57610ade611bf7565b5b9050602002016020810190610af49190611cf0565b826112b7565b7f680f2e4f4032ebf1774e8cdbaddcb1b617a5a606411c8ca96257ada338d3833c8d8d85818110610b2e57610b2d611bf7565b5b9050602002016020810190610b439190611cf0565b83604051610b52929190611f2b565b60405180910390a15b50505b8080610b6990611f54565b9150506103a0565b50600081600001511115610bca57610b9181602001518260000151611350565b7f59e3c56b3739d587caa0270fae7c28e1b6a1af555395ad122400ff97d48fed166000604051610bc19190611fd8565b60405180910390a15b505050505050505050505050565b610be06114b1565b610bea600061152f565b565b610bf46114b1565b8060028190555050565b610c066114b1565b806001819055507f5091ccfe22ca8f99d8f1f07c6ae3a61daf990d74ef229d46898624ff3977238c600154604051610c3e919061163d565b60405180910390a150565b60008060009054906101000a900473ffffffffffffffffffffffffffffffffffffffff16905090565b7f000000000000000000000000000000000000000000000000000000000000000081565b60025481565b610ca46114b1565b3373ffffffffffffffffffffffffffffffffffffffff166108fc829081150290604051600060405180830381858888f19350505050158015610cea573d6000803e3d6000fd5b5050565b610cf66114b1565b600073ffffffffffffffffffffffffffffffffffffffff168173ffffffffffffffffffffffffffffffffffffffff161415610d66576040517f08c379a0000000000000000000000000000000000000000000000000000000008152600401610d5d90612076565b60405180910390fd5b610d6f8161152f565b50565b600033905090565b8073ffffffffffffffffffffffffffffffffffffffff166108fc839081150290604051600060405180830381858888f19350505050158015610dc0573d6000803e3d6000fd5b505050565b8173ffffffffffffffffffffffffffffffffffffffff166323b872dd3330846040518463ffffffff1660e01b8152600401610e0293929190612096565b602060405180830381600087803b158015610e1c57600080fd5b505af1158015610e30573d6000803e3d6000fd5b505050506040513d601f19601f82011682018060405250810190610e549190612105565b503073ffffffffffffffffffffffffffffffffffffffff163373ffffffffffffffffffffffffffffffffffffffff167fd6d3eb25a413c05d8107fc49deb2789bef7f612582b2482804c0b0423b6638ee83604051610eb2919061163d565b60405180910390a35050565b60008073ffffffffffffffffffffffffffffffffffffffff168573ffffffffffffffffffffffffffffffffffffffff161415610f26576040517fe6c4247b00000000000000000000000000000000000000000000000000000000815260040160405180910390fd5b60008773ffffffffffffffffffffffffffffffffffffffff166370a08231306040518263ffffffff1660e01b8152600401610f619190611b09565b60206040518083038186803b158015610f7957600080fd5b505afa158015610f8d573d6000803e3d6000fd5b505050506040513d601f19601f82011682018060405250810190610fb19190612147565b90508673ffffffffffffffffffffffffffffffffffffffff1663095ea7b3876fffffffffffffffffffffffffffffffff6040518363ffffffff1660e01b8152600401610ffe9291906121c1565b602060405180830381600087803b15801561101857600080fd5b505af115801561102c573d6000803e3d6000fd5b505050506040513d601f19601f820116820180604052508101906110509190612105565b5060008573ffffffffffffffffffffffffffffffffffffffff166000868660405161107c929190612229565b60006040518083038185875af1925050503d80600081146110b9576040519150601f19603f3d011682016040523d82523d6000602084013e6110be565b606091505b505090507fb1bbdf0cbdd013d8d322184c42c16dafe4b2b3b66c3d60f46874b6c78b9a87f681836040516110f3929190612251565b60405180910390a18061113f5788886040517f7155081c00000000000000000000000000000000000000000000000000000000815260040161113692919061227a565b60405180910390fd5b818973ffffffffffffffffffffffffffffffffffffffff166370a08231306040518263ffffffff1660e01b81526004016111799190611b09565b60206040518083038186803b15801561119157600080fd5b505afa1580156111a5573d6000803e3d6000fd5b505050506040513d601f19601f820116820180604052508101906111c99190612147565b6111d39190611c7e565b91507f74496fce2cdc392d99808924e4161c005195a64fee4c166b02c2b716db28abb082604051611204919061163d565b60405180910390a181925050509695505050505050565b6112b3828260405160240161123192919061231a565b6040516020818303038152906040527fb60e72cc000000000000000000000000000000000000000000000000000000007bffffffffffffffffffffffffffffffffffffffffffffffffffffffff19166020820180517bffffffffffffffffffffffffffffffffffffffffffffffffffffffff83818316178352505050506115f3565b5050565b8173ffffffffffffffffffffffffffffffffffffffff1663a9059cbb6112db610c49565b836040518363ffffffff1660e01b81526004016112f992919061234a565b602060405180830381600087803b15801561131357600080fd5b505af1158015611327573d6000803e3d6000fd5b505050506040513d601f19601f8201168201806040525081019061134b9190612105565b505050565b73dac17f958d2ee523a2206206994597c13d831ec773ffffffffffffffffffffffffffffffffffffffff168273ffffffffffffffffffffffffffffffffffffffff16141561141e5773dac17f958d2ee523a2206206994597c13d831ec773ffffffffffffffffffffffffffffffffffffffff1663a9059cbb33836040518363ffffffff1660e01b81526004016113e792919061234a565b600060405180830381600087803b15801561140157600080fd5b505af1158015611415573d6000803e3d6000fd5b505050506114ad565b8173ffffffffffffffffffffffffffffffffffffffff1663a9059cbb33836040518363ffffffff1660e01b815260040161145992919061234a565b602060405180830381600087803b15801561147357600080fd5b505af1158015611487573d6000803e3d6000fd5b505050506040513d601f19601f820116820180604052508101906114ab9190612105565b505b5050565b6114b961161c565b73ffffffffffffffffffffffffffffffffffffffff166114d7610c49565b73ffffffffffffffffffffffffffffffffffffffff161461152d576040517f08c379a0000000000000000000000000000000000000000000000000000000008152600401611524906123bf565b60405180910390fd5b565b60008060009054906101000a900473ffffffffffffffffffffffffffffffffffffffff169050816000806101000a81548173ffffffffffffffffffffffffffffffffffffffff021916908373ffffffffffffffffffffffffffffffffffffffff1602179055508173ffffffffffffffffffffffffffffffffffffffff168173ffffffffffffffffffffffffffffffffffffffff167f8be0079c531659141344cd1fd0a4f28419497f9722a3daafe3b4186f6b6457e060405160405180910390a35050565b60008151905060006a636f6e736f6c652e6c6f679050602083016000808483855afa5050505050565b600033905090565b6000819050919050565b61163781611624565b82525050565b6000602082019050611652600083018461162e565b92915050565b6000604051905090565b600080fd5b600080fd5b600080fd5b600080fd5b600080fd5b60008083601f8401126116915761169061166c565b5b8235905067ffffffffffffffff8111156116ae576116ad611671565b5b6020830191508360208202830111156116ca576116c9611676565b5b9250929050565b60008083601f8401126116e7576116e661166c565b5b8235905067ffffffffffffffff81111561170457611703611671565b5b6020830191508360208202830111156117205761171f611676565b5b9250929050565b60008083601f84011261173d5761173c61166c565b5b8235905067ffffffffffffffff81111561175a57611759611671565b5b60208301915083602082028301111561177657611775611676565b5b9250929050565b60008083601f8401126117935761179261166c565b5b8235905067ffffffffffffffff8111156117b0576117af611671565b5b6020830191508360208202830111156117cc576117cb611676565b5b9250929050565b6000601f19601f8301169050919050565b7f4e487b7100000000000000000000000000000000000000000000000000000000600052604160045260246000fd5b61181c826117d3565b810181811067ffffffffffffffff8211171561183b5761183a6117e4565b5b80604052505050565b600061184e611658565b905061185a8282611813565b919050565b600067ffffffffffffffff82111561187a576118796117e4565b5b602082029050602081019050919050565b61189481611624565b811461189f57600080fd5b50565b6000813590506118b18161188b565b92915050565b60006118ca6118c58461185f565b611844565b905080838252602082019050602084028301858111156118ed576118ec611676565b5b835b81811015611916578061190288826118a2565b8452602084019350506020810190506118ef565b5050509392505050565b600082601f8301126119355761193461166c565b5b81356119458482602086016118b7565b91505092915050565b600080600080600080600080600080600060c08c8e03121561197357611972611662565b5b60008c013567ffffffffffffffff81111561199157611990611667565b5b61199d8e828f0161167b565b9b509b505060208c013567ffffffffffffffff8111156119c0576119bf611667565b5b6119cc8e828f0161167b565b995099505060408c013567ffffffffffffffff8111156119ef576119ee611667565b5b6119fb8e828f016116d1565b975097505060608c013567ffffffffffffffff811115611a1e57611a1d611667565b5b611a2a8e828f01611727565b955095505060808c013567ffffffffffffffff811115611a4d57611a4c611667565b5b611a598e828f0161177d565b935093505060a08c013567ffffffffffffffff811115611a7c57611a7b611667565b5b611a888e828f01611920565b9150509295989b509295989b9093969950565b600060208284031215611ab157611ab0611662565b5b6000611abf848285016118a2565b91505092915050565b600073ffffffffffffffffffffffffffffffffffffffff82169050919050565b6000611af382611ac8565b9050919050565b611b0381611ae8565b82525050565b6000602082019050611b1e6000830184611afa565b92915050565b6000819050919050565b6000611b49611b44611b3f84611ac8565b611b24565b611ac8565b9050919050565b6000611b5b82611b2e565b9050919050565b6000611b6d82611b50565b9050919050565b611b7d81611b62565b82525050565b6000602082019050611b986000830184611b74565b92915050565b611ba781611ae8565b8114611bb257600080fd5b50565b600081359050611bc481611b9e565b92915050565b600060208284031215611be057611bdf611662565b5b6000611bee84828501611bb5565b91505092915050565b7f4e487b7100000000000000000000000000000000000000000000000000000000600052603260045260246000fd5b6000604082019050611c3b600083018561162e565b611c48602083018461162e565b9392505050565b7f4e487b7100000000000000000000000000000000000000000000000000000000600052601160045260246000fd5b6000611c8982611624565b9150611c9483611624565b925082821015611ca757611ca6611c4f565b5b828203905092915050565b6000611cbd82611ae8565b9050919050565b611ccd81611cb2565b8114611cd857600080fd5b50565b600081359050611cea81611cc4565b92915050565b600060208284031215611d0657611d05611662565b5b6000611d1484828501611cdb565b91505092915050565b6000611d2882611624565b9150611d3383611624565b9250827fffffffffffffffffffffffffffffffffffffffffffffffffffffffffffffffff03821115611d6857611d67611c4f565b5b828201905092915050565b6000611d7e82611ac8565b9050919050565b611d8e81611d73565b8114611d9957600080fd5b50565b600081359050611dab81611d85565b92915050565b600060208284031215611dc757611dc6611662565b5b6000611dd584828501611d9c565b91505092915050565b600080fd5b600080fd5b600080fd5b60008083356001602003843603038112611e0a57611e09611dde565b5b80840192508235915067ffffffffffffffff821115611e2c57611e2b611de3565b5b602083019250600182023603831315611e4857611e47611de8565b5b509250929050565b6000611e5b82611624565b9150611e6683611624565b9250817fffffffffffffffffffffffffffffffffffffffffffffffffffffffffffffffff0483118215151615611e9f57611e9e611c4f565b5b828202905092915050565b7f4e487b7100000000000000000000000000000000000000000000000000000000600052601260045260246000fd5b6000611ee482611624565b9150611eef83611624565b925082611eff57611efe611eaa565b5b828204905092915050565b6000611f1582611b50565b9050919050565b611f2581611f0a565b82525050565b6000604082019050611f406000830185611f1c565b611f4d602083018461162e565b9392505050565b6000611f5f82611624565b91507fffffffffffffffffffffffffffffffffffffffffffffffffffffffffffffffff821415611f9257611f91611c4f565b5b600182019050919050565b6000819050919050565b6000611fc2611fbd611fb884611f9d565b611b24565b611624565b9050919050565b611fd281611fa7565b82525050565b6000602082019050611fed6000830184611fc9565b92915050565b600082825260208201905092915050565b7f4f776e61626c653a206e6577206f776e657220697320746865207a65726f206160008201527f6464726573730000000000000000000000000000000000000000000000000000602082015250565b6000612060602683611ff3565b915061206b82612004565b604082019050919050565b6000602082019050818103600083015261208f81612053565b9050919050565b60006060820190506120ab6000830186611afa565b6120b86020830185611afa565b6120c5604083018461162e565b949350505050565b60008115159050919050565b6120e2816120cd565b81146120ed57600080fd5b50565b6000815190506120ff816120d9565b92915050565b60006020828403121561211b5761211a611662565b5b6000612129848285016120f0565b91505092915050565b6000815190506121418161188b565b92915050565b60006020828403121561215d5761215c611662565b5b600061216b84828501612132565b91505092915050565b60006fffffffffffffffffffffffffffffffff82169050919050565b60006121ab6121a66121a184612174565b611b24565b611624565b9050919050565b6121bb81612190565b82525050565b60006040820190506121d66000830185611afa565b6121e360208301846121b2565b9392505050565b600081905092915050565b82818337600083830152505050565b600061221083856121ea565b935061221d8385846121f5565b82840190509392505050565b6000612236828486612204565b91508190509392505050565b61224b816120cd565b82525050565b60006040820190506122666000830185612242565b612273602083018461162e565b9392505050565b600060408201905061228f6000830185611f1c565b61229c6020830184611f1c565b9392505050565b600081519050919050565b60005b838110156122cc5780820151818401526020810190506122b1565b838111156122db576000848401525b50505050565b60006122ec826122a3565b6122f68185611ff3565b93506123068185602086016122ae565b61230f816117d3565b840191505092915050565b6000604082019050818103600083015261233481856122e1565b9050612343602083018461162e565b9392505050565b600060408201905061235f6000830185611afa565b61236c602083018461162e565b9392505050565b7f4f776e61626c653a2063616c6c6572206973206e6f7420746865206f776e6572600082015250565b60006123a9602083611ff3565b91506123b482612373565b602082019050919050565b600060208201905081810360008301526123d88161239c565b905091905056fea26469706673582212201c1b4f1c601481af15380982a76b7fe0a8de4d2646449c585623f3e11a87984764736f6c63430008080033",
  "linkReferences": {},
  "deployedLinkReferences": {}
}