{
  "_format": "hh-sol-artifact-1",
  "contractName": "AlphaVaultSwap",
  "sourceName": "contracts/AlphaVault.sol",
  "abi": [
    {
      "inputs": [],
      "stateMutability": "nonpayable",
      "type": "constructor"
    },
    {
      "inputs": [
        {
          "internalType": "contract IERC20",
          "name": "buyToken",
          "type": "address"
        },
        {
          "internalType": "contract IERC20",
          "name": "sellToken",
          "type": "address"
        }
      ],
      "name": "FillQuote_Swap_Failed",
      "type": "error"
    },
    {
      "inputs": [],
      "name": "InvalidAddress",
      "type": "error"
    },
    {
      "inputs": [],
      "name": "Invalid_Multiswap_Data",
      "type": "error"
    },
    {
      "anonymous": false,
      "inputs": [
        {
          "indexed": false,
          "internalType": "uint256",
          "name": "wethBal_",
          "type": "uint256"
        },
        {
          "indexed": false,
          "internalType": "uint256",
          "name": "reqAmount_",
          "type": "uint256"
        }
      ],
      "name": "BadRequest",
      "type": "event"
    },
    {
      "anonymous": false,
      "inputs": [
        {
          "indexed": false,
          "internalType": "uint256",
          "name": "wethBal_",
          "type": "uint256"
        }
      ],
      "name": "EtherBalanceChange",
      "type": "event"
    },
    {
      "anonymous": false,
      "inputs": [
        {
          "indexed": true,
          "internalType": "address",
          "name": "previousOwner",
          "type": "address"
        },
        {
          "indexed": true,
          "internalType": "address",
          "name": "newOwner",
          "type": "address"
        }
      ],
      "name": "OwnershipTransferred",
      "type": "event"
    },
    {
      "anonymous": false,
      "inputs": [
        {
          "indexed": true,
          "internalType": "address",
          "name": "from_",
          "type": "address"
        },
        {
          "indexed": true,
          "internalType": "address",
          "name": "to_",
          "type": "address"
        },
        {
          "indexed": false,
          "internalType": "uint256",
          "name": "amount_",
          "type": "uint256"
        }
      ],
      "name": "TransferSuccessful",
      "type": "event"
    },
    {
      "anonymous": false,
      "inputs": [
        {
          "indexed": false,
          "internalType": "contract IERC20",
          "name": "buyToken",
          "type": "address"
        },
        {
          "indexed": false,
          "internalType": "uint256",
          "name": "boughtAmount_",
          "type": "uint256"
        }
      ],
      "name": "WithdrawTokens",
      "type": "event"
    },
    {
      "anonymous": false,
      "inputs": [
        {
          "indexed": false,
          "internalType": "bool",
          "name": "status",
          "type": "bool"
        },
        {
          "indexed": false,
          "internalType": "uint256",
          "name": "initialBuyTokenBalance",
          "type": "uint256"
        }
      ],
      "name": "ZeroXCallSuccess",
      "type": "event"
    },
    {
      "anonymous": false,
      "inputs": [
        {
          "indexed": false,
          "internalType": "uint256",
          "name": "buTokenAmount",
          "type": "uint256"
        }
      ],
      "name": "buyTokenBought",
      "type": "event"
    },
    {
      "anonymous": false,
      "inputs": [
        {
          "indexed": false,
          "internalType": "uint256",
          "name": "maxTransactions",
          "type": "uint256"
        }
      ],
      "name": "maxTransactionsChange",
      "type": "event"
    },
    {
      "stateMutability": "payable",
      "type": "fallback"
    },
    {
      "inputs": [],
      "name": "WETH",
      "outputs": [
        {
          "internalType": "contract IWETH",
          "name": "",
          "type": "address"
        }
      ],
      "stateMutability": "view",
      "type": "function"
    },
    {
      "inputs": [],
      "name": "fee",
      "outputs": [
        {
          "internalType": "uint256",
          "name": "",
          "type": "uint256"
        }
      ],
      "stateMutability": "view",
      "type": "function"
    },
    {
      "inputs": [],
      "name": "maxTransactions",
      "outputs": [
        {
          "internalType": "uint256",
          "name": "",
          "type": "uint256"
        }
      ],
      "stateMutability": "view",
      "type": "function"
    },
    {
      "inputs": [
        {
          "internalType": "contract IERC20[]",
          "name": "sellToken",
          "type": "address[]"
        },
        {
          "internalType": "contract IERC20[]",
          "name": "buyToken",
          "type": "address[]"
        },
        {
          "internalType": "address[]",
          "name": "spender",
          "type": "address[]"
        },
        {
          "internalType": "address payable[]",
          "name": "swapTarget",
          "type": "address[]"
        },
        {
          "internalType": "bytes[]",
          "name": "swapCallData",
          "type": "bytes[]"
        },
        {
          "internalType": "uint256[]",
          "name": "amount",
          "type": "uint256[]"
        }
      ],
      "name": "multiSwap",
      "outputs": [],
      "stateMutability": "payable",
      "type": "function"
    },
    {
      "inputs": [],
      "name": "owner",
      "outputs": [
        {
          "internalType": "address",
          "name": "",
          "type": "address"
        }
      ],
      "stateMutability": "view",
      "type": "function"
    },
    {
      "inputs": [],
      "name": "renounceOwnership",
      "outputs": [],
      "stateMutability": "nonpayable",
      "type": "function"
    },
    {
      "inputs": [
        {
          "internalType": "uint256",
          "name": "num",
          "type": "uint256"
        }
      ],
      "name": "setMaxTransactionLimit",
      "outputs": [],
      "stateMutability": "nonpayable",
      "type": "function"
    },
    {
      "inputs": [
        {
          "internalType": "uint256",
          "name": "num",
          "type": "uint256"
        }
      ],
      "name": "setfee",
      "outputs": [],
      "stateMutability": "nonpayable",
      "type": "function"
    },
    {
      "inputs": [
        {
          "internalType": "address",
          "name": "newOwner",
          "type": "address"
        }
      ],
      "name": "transferOwnership",
      "outputs": [],
      "stateMutability": "nonpayable",
      "type": "function"
    },
    {
      "inputs": [
        {
          "internalType": "uint256",
          "name": "amount",
          "type": "uint256"
        }
      ],
      "name": "withdrawETH",
      "outputs": [],
      "stateMutability": "nonpayable",
      "type": "function"
    },
    {
      "stateMutability": "payable",
      "type": "receive"
    }
  ],
  "bytecode": "0x60a06040523480156200001157600080fd5b506200003262000026620001ff60201b60201c565b6200020760201b60201c565b620000667f461bd52d8dfe22366849cf75d4761c9d9ca34bb46fa1dc59f5fca493ed4d695960001b620002cb60201b60201c565b6200009a7ffceb24e493fc2655df4a6e2ed3a542c2e6f9daebca342fcfcf005ddb1df7cebe60001b620002cb60201b60201c565b620000ce7fa44c66195be40e58927d0999bbe2f8a9306484ea0f1433a56b6afa005d35417e60001b620002cb60201b60201c565b73c02aaa39b223fe8d0a0e5c4f27ead9083c756cc273ffffffffffffffffffffffffffffffffffffffff1660808173ffffffffffffffffffffffffffffffffffffffff1660601b815250506200014d7fa7d56fb996951bf95d2f65680494415ec409b8a65ec2db250f279f519a71c10760001b620002cb60201b60201c565b620001817fc6264689e1f2d03acab449f7f059ac5b55f2cb559d9731bcc55784999f102bb360001b620002cb60201b60201c565b6019600181905550620001bd7f098c39ebe57e316ba73f962592d31ab30dbf9af7748162ca795e426c72d3b70a60001b620002cb60201b60201c565b620001f17fe28ccdef5c9f558ad1eb5224199dc59a93c2f68fe6203124a690964e991eae8160001b620002cb60201b60201c565b6000600281905550620002ce565b600033905090565b60008060009054906101000a900473ffffffffffffffffffffffffffffffffffffffff169050816000806101000a81548173ffffffffffffffffffffffffffffffffffffffff021916908373ffffffffffffffffffffffffffffffffffffffff1602179055508173ffffffffffffffffffffffffffffffffffffffff168173ffffffffffffffffffffffffffffffffffffffff167f8be0079c531659141344cd1fd0a4f28419497f9722a3daafe3b4186f6b6457e060405160405180910390a35050565b50565b60805160601c6139ee620002f4600039600081816104120152611d6201526139ee6000f3fe6080604052600436106100955760003560e01c80638da5cb5b116100595780638da5cb5b1461017a578063ad5c4648146101a5578063ddca3f43146101d0578063f14210a6146101fb578063f2fde38b146102245761009c565b806324e1c18d146100ca5780636ca591a7146100f5578063715018a61461011157806373fee090146101285780637a9d7c14146101515761009c565b3661009c57005b6100c87f27304d59da931b70da888f1bc30b83a033e98bf5ec809d0396b423ac79d700b860001b61024d565b005b3480156100d657600080fd5b506100df610250565b6040516100ec9190612cd0565b60405180910390f35b61010f600480360381019061010a9190612fe1565b610256565b005b34801561011d57600080fd5b50610126611b66565b005b34801561013457600080fd5b5061014f600480360381019061014a919061312e565b611b7a565b005b34801561015d57600080fd5b506101786004803603810190610173919061312e565b611c10565b005b34801561018657600080fd5b5061018f611d37565b60405161019c919061319c565b60405180910390f35b3480156101b157600080fd5b506101ba611d60565b6040516101c79190613216565b60405180910390f35b3480156101dc57600080fd5b506101e5611d84565b6040516101f29190612cd0565b60405180910390f35b34801561020757600080fd5b50610222600480360381019061021d919061312e565b611d8a565b005b34801561023057600080fd5b5061024b6004803603810190610246919061325d565b611e60565b005b50565b60015481565b6102827f256d67c1e04f794e5c91510aa5637b9b4889cf11bd70269036ecb140b52349f260001b61024d565b6102ae7f9fa21adbeb559e2ff4ef16292538e7835f40d90e5b2899ceb25057d8b304fb0960001b61024d565b6102da7f011259d923d44dc43c2872715f54f34da31f0d355a01f39d4d59576df8f3b3f060001b61024d565b6001548b8b9050111580156102f45750888890508b8b9050145b801561030557508888905087879050145b801561031657508686905085859050145b610378576103467f105b20d1af8ceb092b9ccd7b33d508c5e56b525440661117e12da3102b8dd7fe60001b61024d565b6040517f90b42d6500000000000000000000000000000000000000000000000000000000815260040160405180910390fd5b6103a47f28006f10868d29c4602b65897174e1c2a4364efc23da6a478103203932a3296560001b61024d565b6103d07fb2ef2af098d60e594fd7a34c102c6ab30575dfd28cb47158ff4f2e4eb4fdbca460001b61024d565b6103fc7f0b2c23c3053d53efeb77b34e4db4794cadcb01acbb59df8d4b9c737d6d5f766260001b61024d565b60006040518060400160405280600081526020017f000000000000000000000000000000000000000000000000000000000000000073ffffffffffffffffffffffffffffffffffffffff1681525090506104787f4f53927b0ad74a411f7d151a29c3d65ba8fe2821963ace2bc1e727b65e9a159760001b61024d565b6104a47fe317fff3c935fb213d6e7bbba5337637d51b5306da19d935eb4a05df3bdae18560001b61024d565b6000341115610790576104d97f7d84b1790a8cccd2c314c07b9bb2f98b4e5cdf226ef107355576950fd455e7f460001b61024d565b6105057f63c7ff994c371b9b60c5f4464d93a7d14e16f5583b0d65938644c21e0f2834ad60001b61024d565b6105317f9a54c4f3cddc00a6645b8dc8cf5666e19c8ecefa5056e4e6d696687c058791e060001b61024d565b806020015173ffffffffffffffffffffffffffffffffffffffff1663d0e30db0346040518263ffffffff1660e01b81526004016000604051808303818588803b15801561057d57600080fd5b505af1158015610591573d6000803e3d6000fd5b50505050506105c27fc11f62a0fa9fee5beac3d430922081eec427b90ee509f4b32a71da5d79a5ca6d60001b61024d565b6105ee7f5d97274f5ca26864608c84a0bc01ba69900439fabab2579bdfbf9f9e77ab5e4160001b61024d565b600254346105fc91906132b9565b8160000181815250506106317fb20700a7ef85d40ca356ac03301d11f3aedb5c37b384e18d3c6f84fde8f1a35a60001b61024d565b61065d7fe1f900d070c5dfdf36d0e556ad89f4c98d2e67d8fa2058e477584dc1e9485b0e60001b61024d565b806020015173ffffffffffffffffffffffffffffffffffffffff1663a9059cbb610685611d37565b6002546040518363ffffffff1660e01b81526004016106a59291906132ed565b602060405180830381600087803b1580156106bf57600080fd5b505af11580156106d3573d6000803e3d6000fd5b505050506040513d601f19601f820116820180604052508101906106f7919061334e565b506107247fbf2fb352a068571437269dff61153159afb6ce08ffc07c8c255865c5353e45ea60001b61024d565b6107507f6ae2d4562e800da9be1b1368a0b50937f2aca9c1e9f5c3d7a90b08af8f639eaa60001b61024d565b7f59e3c56b3739d587caa0270fae7c28e1b6a1af555395ad122400ff97d48fed1681600001516040516107839190612cd0565b60405180910390a16107bd565b6107bc7f843e7202c72e56a730535ed1124cc87a7f633a7de15168942c2f678df643913060001b61024d565b5b6107e97fa30af0837cb82a49f1821dc90e6b7071fdb7e495673d30254f1d2d02855fd25160001b61024d565b6108157fd6d6cc4c2585c4b35eed175498aacbc18b95e7b43255c8270ae9f915e857abc360001b61024d565b60005b8888905081101561199a5761084f7f32d5d45b69d6b1e77efa470801a2bc9888ba239ce00c292c9482f8bb7df4b25e60001b61024d565b61087b7f65e60288bbd26b85be78e63161deedaf3ed6b936dbe1f67ed1f582a3a78f44a760001b61024d565b600073ffffffffffffffffffffffffffffffffffffffff168989838181106108a6576108a561337b565b5b90506020020160208101906108bb919061325d565b73ffffffffffffffffffffffffffffffffffffffff161415610e45576109037f28348881d79e2918958605f25a2207816e2c3016eee53a3375f3e146a31e6cf460001b61024d565b61092f7f3113e41f53164436762fe56dbf4820968282588cfb1937346c2267baa162200f60001b61024d565b61095b7ffc266f230323d38c23519325fc00878cab9f6c547543827701d366c900843fb560001b61024d565b82818151811061096e5761096d61337b565b5b602002602001015182600001511015610a8d576109ad7f0c79926b17a2c413326d21d8e2184493da1a1fe6f12d0d165b23186e217d093560001b61024d565b6109d97f8d5195b735b18dd0eda6e3d3f0e0b01052f0a484d047decf0f90878117992a4460001b61024d565b610a057fb54448a579bbaa63b976f298a6cb09aadfab155a383f175fbdb98db71875bfc360001b61024d565b7f0b74b0798ec89f7cf91b1446e01c1bb75b7d55c45b104edfb364a46a074e2f568260000151848381518110610a3e57610a3d61337b565b5b6020026020010151604051610a549291906133aa565b60405180910390a1610a887fec56c2f1bcc8fafe03b0fe959deed8bc0a775ce5ec421f43209975c0d559d08960001b61024d565b61199a565b610ab97f1d98be19ea4d31dcf5d86416b0c2b2f5846cae89f5411d8426beaa8d3afdcae660001b61024d565b610ae57f9964d0cd5f5c6f759c1182feffe504f7177db1a1e9ee1e6ddc088ebecf8d430a60001b61024d565b610b117ff675dcd2f7d6a3daa3e1c1c457baae2d871d89d4534e4d304e3b7fc3e232202d60001b61024d565b6000838281518110610b2657610b2561337b565b5b60200260200101511115610de757610b607f2e181906c602b0312ba05b78bd984b144670215a8622d32bfcb549d4f591cf7260001b61024d565b610b8c7f1bf929e4de2dc38395f285124eead60d381791bef79434f87672aaeed81a8c1260001b61024d565b610bb87fd123b6997ff9af9cb9c74f2db958775983160c8a02594ae88fb3b2ed60437db360001b61024d565b828181518110610bcb57610bca61337b565b5b602002602001015182600001818151610be491906132b9565b91508181525050610c177f3fd8fcb71fca512f2350a8a832de3a18769dfcb3a47b7026698f8bafa5edc04160001b61024d565b610c437fe0a43af5873cb29196beb449197924bd38561756570a95a292a0fb997b893b0a60001b61024d565b816020015173ffffffffffffffffffffffffffffffffffffffff16632e1a7d4d848381518110610c7657610c7561337b565b5b60200260200101516040518263ffffffff1660e01b8152600401610c9a9190612cd0565b600060405180830381600087803b158015610cb457600080fd5b505af1158015610cc8573d6000803e3d6000fd5b50505050610cf87f8edb99067745679c0fa73c4f36d762a101300d87544434bb419557378bf436dc60001b61024d565b610d247f93308ffb377321bf65dfd5c83e40909a29be9aceb99f1c986ba8e1a011b3873960001b61024d565b610d4f838281518110610d3a57610d3961337b565b5b6020026020010151610d4a611ee4565b611f70565b610d7b7f992dd56b08916b2af60ce0e86a5299cce8d27faca28512d02b1a8b975710305960001b61024d565b610da77f769f4664417ccc236a3a8f7245bc3f1ae85e8046a4174d675cab06a32e37ddf160001b61024d565b7f59e3c56b3739d587caa0270fae7c28e1b6a1af555395ad122400ff97d48fed168260000151604051610dda9190612cd0565b60405180910390a1610e14565b610e137f0ac9efbdd51a3f04c8fa16fca61a0a8d79d8692f3300241b47a667f0a1fe6d8760001b61024d565b5b610e407f847faaac9624143b90ee579226380b7585a121d50d308b5a2106684705a1cd0e60001b61024d565b611987565b610e717f6445c3e4841e2186bb72a931f2b30513f2d044a9c647164062e65f20a5f9350560001b61024d565b610e9d7f748b4172c0290d15e12896d5e7ca986df036cf6ac3f179442ea81465df658f8860001b61024d565b610ec97fbaeb40501afd0e3f12b4ef4716b53ee1801ebed465bb5401f0253c7edec83c1060001b61024d565b816020015173ffffffffffffffffffffffffffffffffffffffff168d8d83818110610ef757610ef661337b565b5b9050602002016020810190610f0c9190613411565b73ffffffffffffffffffffffffffffffffffffffff16141561139b57610f547fbb2c289e04921a4b8ef8f35584967134e71770032e794d593ad64f08ed8bf29160001b61024d565b610f807fd213b6120494e8503fdbff8cc3ce72644b0abf652bedce1d1409a8aeae29655c60001b61024d565b610fac7f204f9c5bf15ab2cd2d8d49cfe13b800f2043793940a29a1a4ccfc3025b8a6d5560001b61024d565b8a8a82818110610fbf57610fbe61337b565b5b9050602002016020810190610fd49190613411565b73ffffffffffffffffffffffffffffffffffffffff168d8d83818110610ffd57610ffc61337b565b5b90506020020160208101906110129190613411565b73ffffffffffffffffffffffffffffffffffffffff16141561124c5761105a7f86f9a8d7b4fab3680966549d8491032e9ddac806abfdd3c8372d8699e088cee960001b61024d565b6110867fedf026ae777c07a8d3ec9b03b3ce7189cac5549fd788a32bf50975ee30f0e88960001b61024d565b6110b27f9c768d475107b651826e82d0fa264f37759baaf8efe310a84e95f55a2e9e9ed260001b61024d565b6110fd8d8d838181106110c8576110c761337b565b5b90506020020160208101906110dd9190613411565b8483815181106110f0576110ef61337b565b5b602002602001015161203f565b6111297fb5c14277db863466b967bc98cf554ba590346232641f1dc1e8a14917b65fe02d60001b61024d565b6111557fa4d32e169665aae911eb4319d075c91804e97e55acade1e4b4d759c444b43f0060001b61024d565b8281815181106111685761116761337b565b5b602002602001015182600001818151611181919061343e565b915081815250506111b47fb1bd353699461fb066aaeb40245ffc08fcc60c42a8ed2de61d645063b251fb1b60001b61024d565b6111e07f154c14f2c2a613fadd4b62cd235f307974b0602cbf0cb8edcd02e1ff08ec492660001b61024d565b7f59e3c56b3739d587caa0270fae7c28e1b6a1af555395ad122400ff97d48fed1682600001516040516112139190612cd0565b60405180910390a16112477f189c76c6f2b6a88ca8b17cb92880835f45041ee5add02ddb66eedd2f7222e9ab60001b61024d565b611987565b6112787f2c8652285341c0f6b1273b11db6c4e4ecf154c90c32aa353398efd8e6f4fd4e660001b61024d565b6112a47fe8e5badaca62d92df0578d3454c8ff1d14575103a0d21cd37e2171be236a89f560001b61024d565b6112d07fd920e58da9a89fb1fee5641e59cc616e9bbf61c4cddc6fac39ece6cba1acf78360001b61024d565b8281815181106112e3576112e261337b565b5b6020026020010151826000018181516112fc91906132b9565b9150818152505061132f7f4fc5d9f04106f9f61750202722adeaadd7538b814c54f113be8873144851c40c60001b61024d565b61135b7ff9cacbb3559ee8cb50352b1c92e8ba945e72a01aed35afdbab00c43ab6db1b4360001b61024d565b7f59e3c56b3739d587caa0270fae7c28e1b6a1af555395ad122400ff97d48fed16826000015160405161138e9190612cd0565b60405180910390a161146b565b6113c77fa1389a5210dcdf4b99266e435bbdb683af9f8928e946f38fa80e77a16df04a7960001b61024d565b6113f37f24b0aecb99691152bdbd03a5c420bcef5a0b4ecbf0c9ee4e2be676924c4810d060001b61024d565b61141f7f99c4210a0a523053002e3aa015b921a713ce8b360ae070f219736a381f0ab50e60001b61024d565b61146a8d8d838181106114355761143461337b565b5b905060200201602081019061144a9190613411565b84838151811061145d5761145c61337b565b5b602002602001015161203f565b5b6114977f6af84410d4876c052060e437f52b9f799e3d6125a163b6a334347f30318fd7e560001b61024d565b6114c37f8567b2b5dc0657d251dd70cda47df9d77c64195d0611c96efeeeac21304856b560001b61024d565b60006115928c8c848181106114db576114da61337b565b5b90506020020160208101906114f09190613411565b8f8f858181106115035761150261337b565b5b90506020020160208101906115189190613411565b8c8c8681811061152b5761152a61337b565b5b9050602002016020810190611540919061325d565b8b8b878181106115535761155261337b565b5b905060200201602081019061156891906134d2565b8a8a8881811061157b5761157a61337b565b5b905060200281019061158d919061350e565b612214565b90506115c07f8b1c2487aa594d9955d5ca833773ab53104ed6bd648ebbf01d15f42e5e4f85e260001b61024d565b6115ec7f24c17f99db693c27234bf4a623053c882096e0449453bb25388b58ba60a0757f60001b61024d565b61162b6040518060400160405280600781526020017f626f756768743a0000000000000000000000000000000000000000000000000081525082612992565b6116577fac2cc21bce7e2d4d7ddc7cff55c650917d9605d981c59878a64093af63bd90ae60001b61024d565b6116837fc826d871059308ec25efd04f4f5b607ea9ad5b4ddee7fbd811397dc9b880e5c560001b61024d565b826020015173ffffffffffffffffffffffffffffffffffffffff168c8c848181106116b1576116b061337b565b5b90506020020160208101906116c69190613411565b73ffffffffffffffffffffffffffffffffffffffff1614156118175761170e7f4210c2a50306293255ba0143289e87f7e4c5f56006d41e85f61013317eb6249260001b61024d565b61173a7f0a6378663dfca255721540fbab0f535d6981af9cf9957549720aabdad6decf7360001b61024d565b6117667fd0cb6d7007ddf5ab2054db31c199f0ef2264b9c1fea739351d3edffbe369a0a560001b61024d565b8083600001818151611778919061343e565b915081815250506117ab7fa7b7ee5fcc896e3ffdc34260a6ade779926aa01b4bb14298e24f9a9f3feb823d60001b61024d565b6117d77fe06f16b1c16f8fec856136ad9c4259b1a8176135e5de23fff8a835643b4d6caf60001b61024d565b7f59e3c56b3739d587caa0270fae7c28e1b6a1af555395ad122400ff97d48fed16836000015160405161180a9190612cd0565b60405180910390a1611985565b6118437f28ed5c5fec4a5b7cfd3f2a15b3ebb02b3cc97eb0afd24f21d15414d6d225905060001b61024d565b61186f7ff0fcfc43b628b35688dde18355e13faa7c944f02a74e032394863cef13c5958f60001b61024d565b61189b7ffd52f680388284ec0fcd76643766abff61ad822114bea5ba05edfeaa351a2f4560001b61024d565b6118cc8c8c848181106118b1576118b061337b565b5b90506020020160208101906118c69190613411565b82612a2e565b6118f87fb081a597bf63222c6b8f3ae39807b976157a1ab2a103dd1a1257f718fe76ae4360001b61024d565b6119247f07526c4c4b48c714f54ae7bc4b5530dc73c9a5afffc2d8d11e3f2c299078887760001b61024d565b7f680f2e4f4032ebf1774e8cdbaddcb1b617a5a606411c8ca96257ada338d3833c8c8c848181106119585761195761337b565b5b905060200201602081019061196d9190613411565b8260405161197c929190613592565b60405180910390a15b505b8080611992906135bb565b915050610818565b506119c77f7c7bb2908d0c2ae90fd1ba47fcab08a1b2ac5c62c12d6f9e6a0972801311c00960001b61024d565b6119f37f1fe7e6314e171769d48024c746efb4467a83919386dc6e8439733a8ca219cbb360001b61024d565b600081600001511115611b2b57611a2c7f197cfac5666147e5f408ec9d583dd6f597148abf46f2a416df87c4f5d027382860001b61024d565b611a587ff6a692b307d260861c72676b6cfc5a0dd020a5121dd79888f967d0fb448a2a8960001b61024d565b611a847f89126af6f889369c9af8d57556656dff885ad301fb72536520351415a3dac85c60001b61024d565b611a9681602001518260000151612a2e565b611ac27f138d975591404a43f842b1ef2feafd9a29b1873b5538bb7fc0a3dc8f6641329960001b61024d565b611aee7fbe94cb38ac6df61652e2bdfe0a2ab76d69b4dabb0d50ff84bb55fdc971502e9e60001b61024d565b7f59e3c56b3739d587caa0270fae7c28e1b6a1af555395ad122400ff97d48fed166000604051611b1e919061363f565b60405180910390a1611b58565b611b577fe7ed49a625cb66c9e79d1f66eb414b23f7cdb8b3f2acdfad715bbb690dabbb7860001b61024d565b5b505050505050505050505050565b611b6e612b44565b611b786000612bc2565b565b611b82612b44565b611bae7f0f5af66e7891b23a84d9997428ba23b59d3672710dec0432a4a9b2d7fbe5d96260001b61024d565b611bda7fce30b822e7a70b8559245fefa77d9565a61a5a0a1d872dcf684943e12d6fcc5360001b61024d565b611c067f54f41311aac005ecf27d5f089d6215ee498bde76e1e3a37d62ff30b8fda6a70360001b61024d565b8060028190555050565b611c18612b44565b611c447f33d5b8fe400bf26e2ce900b122ba72e458170640b791172e71455aae50c8167860001b61024d565b611c707f37eff5790bd10336e9515c5caf90f4c338112322171e16ce80352b2d8a7ac47060001b61024d565b611c9c7f11aee58821991ab58d2a5d7c59f69ca8f57470a9a601dd548304ba5b7499bd0660001b61024d565b80600181905550611ccf7f7bc31e45356e288e8737f63dafcc84f6d09d5a98316247198912a8a44804c95960001b61024d565b611cfb7fe4bb4678271e7a0b8975b9d004372bc78732d3178d59c394605c7c2088d01d7260001b61024d565b7f5091ccfe22ca8f99d8f1f07c6ae3a61daf990d74ef229d46898624ff3977238c600154604051611d2c9190612cd0565b60405180910390a150565b60008060009054906101000a900473ffffffffffffffffffffffffffffffffffffffff16905090565b7f000000000000000000000000000000000000000000000000000000000000000081565b60025481565b611d92612b44565b611dbe7fedc88d0883e8c4ffc9052b48b09bf57ba26d9092a59cf3ea63d02a471dec93a760001b61024d565b611dea7f597315f11df8207b8bb57826cbb8da4db6a0b32fa4c9065f11440bbe6b90285860001b61024d565b611e167f425caf66506d9ecabc20de312d6f084511f78bd58bca607664355e8baedf998960001b61024d565b3373ffffffffffffffffffffffffffffffffffffffff166108fc829081150290604051600060405180830381858888f19350505050158015611e5c573d6000803e3d6000fd5b5050565b611e68612b44565b600073ffffffffffffffffffffffffffffffffffffffff168173ffffffffffffffffffffffffffffffffffffffff161415611ed8576040517f08c379a0000000000000000000000000000000000000000000000000000000008152600401611ecf906136dd565b60405180910390fd5b611ee181612bc2565b50565b6000611f127fa7f926855fbb32fad0b3d348874802dbecb5c110ab673544cf65fb3755a57e4d60001b61024d565b611f3e7fe49b58cd604a3d61573e0208646f9c7c199922ac2ea15d37749cd328c522bb5760001b61024d565b611f6a7fcd9fc666b010c869ec9e45525d4eeed5649211c35a4bb20100e13a42882c014d60001b61024d565b33905090565b611f9c7f3915e846c8965c3fe4cd99ed46174a115532869c8bff29758955cee939caa00b60001b61024d565b611fc87f5ee561c2d2cb7700ac636b2b47ff1005612c0284a93799d9bbf0158e32614fb560001b61024d565b611ff47f0cbc6f962a57a077afc7b1fbbacb3b64d29780f6eda48073d6e9bd30b9b0adf760001b61024d565b8073ffffffffffffffffffffffffffffffffffffffff166108fc839081150290604051600060405180830381858888f1935050505015801561203a573d6000803e3d6000fd5b505050565b61206b7f29fd4f2e7bd5e559154664b7fb3eb3e7ba941cdcbaf30be069407a7b8a1f411c60001b61024d565b6120977f3de2dd5249c2f46ae521014726e50e6b3ac20e69aa3b61819f78059aba4e6fb060001b61024d565b6120c37fdf1ffd5d41685cbee0e8e7c8fe0b89cefc417841c8edb29750940b3d23f244d460001b61024d565b8173ffffffffffffffffffffffffffffffffffffffff166323b872dd3330846040518463ffffffff1660e01b8152600401612100939291906136fd565b602060405180830381600087803b15801561211a57600080fd5b505af115801561212e573d6000803e3d6000fd5b505050506040513d601f19601f82011682018060405250810190612152919061334e565b5061217f7f172eb234ef4cb019f05da10a650a273fc7aacad91636c95d967478688a8d62e260001b61024d565b6121ab7fd4a0a4e9114aa2b9f967bdcdb73f0bb279b7ac98e346bef1e3906209b7dfccc860001b61024d565b3073ffffffffffffffffffffffffffffffffffffffff163373ffffffffffffffffffffffffffffffffffffffff167fd6d3eb25a413c05d8107fc49deb2789bef7f612582b2482804c0b0423b6638ee836040516122089190612cd0565b60405180910390a35050565b60006122427f853704107423c20e0182fb16e8204408beef0edb621ff3bc18a7a223df5c5a8c60001b61024d565b61226e7f2a9bcba3d01cbf988f64cb203597c515399794070c2cd450524146409ce2079560001b61024d565b61229a7f542eca0d508c156b0d2b7b8a1a3f3cf0805b8622be4d05bcde9bd293aa89372d60001b61024d565b600073ffffffffffffffffffffffffffffffffffffffff168573ffffffffffffffffffffffffffffffffffffffff16141561232d576122fb7fe33f0420b715d080d82eadebef3c3e6d499643456dce36f42fb8a3db2624387160001b61024d565b6040517fe6c4247b00000000000000000000000000000000000000000000000000000000815260040160405180910390fd5b6123597fd8c7b7513434779fcee437b46cf4a9c0ef4e7f0df53be7c3c327e6733d75cdd360001b61024d565b6123857f4ecbd55f2bd4d1d4fcf439a511ec833efb97bc58254a34728990e2e4b8b0400b60001b61024d565b6123b17fc6eb316f4d9d4385627023f3dff7fe232adea277fc87b4d9ee534aadae5febd360001b61024d565b60008773ffffffffffffffffffffffffffffffffffffffff166370a08231306040518263ffffffff1660e01b81526004016123ec919061319c565b60206040518083038186803b15801561240457600080fd5b505afa158015612418573d6000803e3d6000fd5b505050506040513d601f19601f8201168201806040525081019061243c9190613749565b905061246a7f03519a186aac1a2dcf8b614e82f7895809da9eb4d8c4f7d9044ea52b6fcf103a60001b61024d565b6124967fa02914e0bd140fa09483fb2d9282730f30df06eea977208304c4386b24b3678d60001b61024d565b8673ffffffffffffffffffffffffffffffffffffffff1663095ea7b3876fffffffffffffffffffffffffffffffff6040518363ffffffff1660e01b81526004016124e19291906137c3565b602060405180830381600087803b1580156124fb57600080fd5b505af115801561250f573d6000803e3d6000fd5b505050506040513d601f19601f82011682018060405250810190612533919061334e565b506125607fcea867d1fde18e8916fffdad666c90d0d87a00306f0e8e8bf9c5f110cae2dd2960001b61024d565b61258c7fe3409dc5e87735cb1fc685a2f4c8e0e5c104aaeab034b05299c35ac1305d4bdb60001b61024d565b60008573ffffffffffffffffffffffffffffffffffffffff16600086866040516125b792919061382b565b60006040518083038185875af1925050503d80600081146125f4576040519150601f19603f3d011682016040523d82523d6000602084013e6125f9565b606091505b505090506126297f20717d35f6355012ec1ffb07d4f1b40deb23e24b8a904e38910c0ce35548d3d960001b61024d565b6126557f4fdee5b6be08946f643cc97fa8b54eab1c7dd049921092914cca67d51b90eaff60001b61024d565b7fb1bbdf0cbdd013d8d322184c42c16dafe4b2b3b66c3d60f46874b6c78b9a87f68183604051612686929190613853565b60405180910390a16126ba7fc130fb537dd6c7b1c55a2d6b40180b9acf7bbf3b76dea4076c210ec030c6c36160001b61024d565b6126e67f1bc52e34277241df7a523c214c05d3ecf2f93c10949682320b5d04f0b52821a660001b61024d565b80612782576127177fd7a3e894382ccf127ac962ce3ff57072fc8494118ae4ea7aef47c3e6cb7f4d4160001b61024d565b6127437f3f993677e74e02cb9765d7bbf72b7e7bfb5efe22cfd598566a8204bd2c23244060001b61024d565b88886040517f7155081c00000000000000000000000000000000000000000000000000000000815260040161277992919061387c565b60405180910390fd5b6127ae7fe0e3cbd07d50b7ff59029fe9ca921b632b128d85dee3c6880ba57b3eb966564c60001b61024d565b6127da7f9dd72a7f8ed681a73f30aa3c9e826557eb0cb3e51300f3087bc1a5cb9d5e4e6660001b61024d565b6128067f5509eec2cc011935841d5c6d46aab37ded5027c03ece76688bc254c88ea6cb9560001b61024d565b818973ffffffffffffffffffffffffffffffffffffffff166370a08231306040518263ffffffff1660e01b8152600401612840919061319c565b60206040518083038186803b15801561285857600080fd5b505afa15801561286c573d6000803e3d6000fd5b505050506040513d601f19601f820116820180604052508101906128909190613749565b61289a91906132b9565b91506128c87f8f7e5ef7563352c7bf1748d2bfcb6f5abae37b5490b18c78b5ebfba40c12a0b460001b61024d565b6128f47f977efe70b68f3ec6b4b0132203a5081f109b8c6e7fba721a5b8f90c12cb964fc60001b61024d565b7f74496fce2cdc392d99808924e4161c005195a64fee4c166b02c2b716db28abb0826040516129239190612cd0565b60405180910390a16129577ff3bf4d698daebc6ff0124c2b1609c367c356f959c31430a465f84ca648723d7260001b61024d565b6129837ff4427595ac1ebf68b4e25191ad6225976fb135f81b37b5e9826fd03b5228eb7260001b61024d565b81925050509695505050505050565b612a2a82826040516024016129a892919061391c565b6040516020818303038152906040527fb60e72cc000000000000000000000000000000000000000000000000000000007bffffffffffffffffffffffffffffffffffffffffffffffffffffffff19166020820180517bffffffffffffffffffffffffffffffffffffffffffffffffffffffff8381831617835250505050612c86565b5050565b612a5a7f0cadbaa93ca1d95ca3c04fb81ac34636cb6e756dc0a58ff40ea869d1b52ba24860001b61024d565b612a867f7655d6ebd749af1158d15b5c2ecaa13a418147856b18ea770d2dd9391ec125fd60001b61024d565b612ab27f772116ba44623063846a07f563f2535f218c12ffac169080b36e33f90821e72860001b61024d565b8173ffffffffffffffffffffffffffffffffffffffff1663a9059cbb33836040518363ffffffff1660e01b8152600401612aed9291906132ed565b602060405180830381600087803b158015612b0757600080fd5b505af1158015612b1b573d6000803e3d6000fd5b505050506040513d601f19601f82011682018060405250810190612b3f919061334e565b505050565b612b4c612caf565b73ffffffffffffffffffffffffffffffffffffffff16612b6a611d37565b73ffffffffffffffffffffffffffffffffffffffff1614612bc0576040517f08c379a0000000000000000000000000000000000000000000000000000000008152600401612bb790613998565b60405180910390fd5b565b60008060009054906101000a900473ffffffffffffffffffffffffffffffffffffffff169050816000806101000a81548173ffffffffffffffffffffffffffffffffffffffff021916908373ffffffffffffffffffffffffffffffffffffffff1602179055508173ffffffffffffffffffffffffffffffffffffffff168173ffffffffffffffffffffffffffffffffffffffff167f8be0079c531659141344cd1fd0a4f28419497f9722a3daafe3b4186f6b6457e060405160405180910390a35050565b60008151905060006a636f6e736f6c652e6c6f679050602083016000808483855afa5050505050565b600033905090565b6000819050919050565b612cca81612cb7565b82525050565b6000602082019050612ce56000830184612cc1565b92915050565b6000604051905090565b600080fd5b600080fd5b600080fd5b600080fd5b600080fd5b60008083601f840112612d2457612d23612cff565b5b8235905067ffffffffffffffff811115612d4157612d40612d04565b5b602083019150836020820283011115612d5d57612d5c612d09565b5b9250929050565b60008083601f840112612d7a57612d79612cff565b5b8235905067ffffffffffffffff811115612d9757612d96612d04565b5b602083019150836020820283011115612db357612db2612d09565b5b9250929050565b60008083601f840112612dd057612dcf612cff565b5b8235905067ffffffffffffffff811115612ded57612dec612d04565b5b602083019150836020820283011115612e0957612e08612d09565b5b9250929050565b60008083601f840112612e2657612e25612cff565b5b8235905067ffffffffffffffff811115612e4357612e42612d04565b5b602083019150836020820283011115612e5f57612e5e612d09565b5b9250929050565b6000601f19601f8301169050919050565b7f4e487b7100000000000000000000000000000000000000000000000000000000600052604160045260246000fd5b612eaf82612e66565b810181811067ffffffffffffffff82111715612ece57612ecd612e77565b5b80604052505050565b6000612ee1612ceb565b9050612eed8282612ea6565b919050565b600067ffffffffffffffff821115612f0d57612f0c612e77565b5b602082029050602081019050919050565b612f2781612cb7565b8114612f3257600080fd5b50565b600081359050612f4481612f1e565b92915050565b6000612f5d612f5884612ef2565b612ed7565b90508083825260208201905060208402830185811115612f8057612f7f612d09565b5b835b81811015612fa95780612f958882612f35565b845260208401935050602081019050612f82565b5050509392505050565b600082601f830112612fc857612fc7612cff565b5b8135612fd8848260208601612f4a565b91505092915050565b600080600080600080600080600080600060c08c8e03121561300657613005612cf5565b5b60008c013567ffffffffffffffff81111561302457613023612cfa565b5b6130308e828f01612d0e565b9b509b505060208c013567ffffffffffffffff81111561305357613052612cfa565b5b61305f8e828f01612d0e565b995099505060408c013567ffffffffffffffff81111561308257613081612cfa565b5b61308e8e828f01612d64565b975097505060608c013567ffffffffffffffff8111156130b1576130b0612cfa565b5b6130bd8e828f01612dba565b955095505060808c013567ffffffffffffffff8111156130e0576130df612cfa565b5b6130ec8e828f01612e10565b935093505060a08c013567ffffffffffffffff81111561310f5761310e612cfa565b5b61311b8e828f01612fb3565b9150509295989b509295989b9093969950565b60006020828403121561314457613143612cf5565b5b600061315284828501612f35565b91505092915050565b600073ffffffffffffffffffffffffffffffffffffffff82169050919050565b60006131868261315b565b9050919050565b6131968161317b565b82525050565b60006020820190506131b1600083018461318d565b92915050565b6000819050919050565b60006131dc6131d76131d28461315b565b6131b7565b61315b565b9050919050565b60006131ee826131c1565b9050919050565b6000613200826131e3565b9050919050565b613210816131f5565b82525050565b600060208201905061322b6000830184613207565b92915050565b61323a8161317b565b811461324557600080fd5b50565b60008135905061325781613231565b92915050565b60006020828403121561327357613272612cf5565b5b600061328184828501613248565b91505092915050565b7f4e487b7100000000000000000000000000000000000000000000000000000000600052601160045260246000fd5b60006132c482612cb7565b91506132cf83612cb7565b9250828210156132e2576132e161328a565b5b828203905092915050565b6000604082019050613302600083018561318d565b61330f6020830184612cc1565b9392505050565b60008115159050919050565b61332b81613316565b811461333657600080fd5b50565b60008151905061334881613322565b92915050565b60006020828403121561336457613363612cf5565b5b600061337284828501613339565b91505092915050565b7f4e487b7100000000000000000000000000000000000000000000000000000000600052603260045260246000fd5b60006040820190506133bf6000830185612cc1565b6133cc6020830184612cc1565b9392505050565b60006133de8261317b565b9050919050565b6133ee816133d3565b81146133f957600080fd5b50565b60008135905061340b816133e5565b92915050565b60006020828403121561342757613426612cf5565b5b6000613435848285016133fc565b91505092915050565b600061344982612cb7565b915061345483612cb7565b9250827fffffffffffffffffffffffffffffffffffffffffffffffffffffffffffffffff038211156134895761348861328a565b5b828201905092915050565b600061349f8261315b565b9050919050565b6134af81613494565b81146134ba57600080fd5b50565b6000813590506134cc816134a6565b92915050565b6000602082840312156134e8576134e7612cf5565b5b60006134f6848285016134bd565b91505092915050565b600080fd5b600080fd5b600080fd5b6000808335600160200384360303811261352b5761352a6134ff565b5b80840192508235915067ffffffffffffffff82111561354d5761354c613504565b5b60208301925060018202360383131561356957613568613509565b5b509250929050565b600061357c826131e3565b9050919050565b61358c81613571565b82525050565b60006040820190506135a76000830185613583565b6135b46020830184612cc1565b9392505050565b60006135c682612cb7565b91507fffffffffffffffffffffffffffffffffffffffffffffffffffffffffffffffff8214156135f9576135f861328a565b5b600182019050919050565b6000819050919050565b600061362961362461361f84613604565b6131b7565b612cb7565b9050919050565b6136398161360e565b82525050565b60006020820190506136546000830184613630565b92915050565b600082825260208201905092915050565b7f4f776e61626c653a206e6577206f776e657220697320746865207a65726f206160008201527f6464726573730000000000000000000000000000000000000000000000000000602082015250565b60006136c760268361365a565b91506136d28261366b565b604082019050919050565b600060208201905081810360008301526136f6816136ba565b9050919050565b6000606082019050613712600083018661318d565b61371f602083018561318d565b61372c6040830184612cc1565b949350505050565b60008151905061374381612f1e565b92915050565b60006020828403121561375f5761375e612cf5565b5b600061376d84828501613734565b91505092915050565b60006fffffffffffffffffffffffffffffffff82169050919050565b60006137ad6137a86137a384613776565b6131b7565b612cb7565b9050919050565b6137bd81613792565b82525050565b60006040820190506137d8600083018561318d565b6137e560208301846137b4565b9392505050565b600081905092915050565b82818337600083830152505050565b600061381283856137ec565b935061381f8385846137f7565b82840190509392505050565b6000613838828486613806565b91508190509392505050565b61384d81613316565b82525050565b60006040820190506138686000830185613844565b6138756020830184612cc1565b9392505050565b60006040820190506138916000830185613583565b61389e6020830184613583565b9392505050565b600081519050919050565b60005b838110156138ce5780820151818401526020810190506138b3565b838111156138dd576000848401525b50505050565b60006138ee826138a5565b6138f8818561365a565b93506139088185602086016138b0565b61391181612e66565b840191505092915050565b6000604082019050818103600083015261393681856138e3565b90506139456020830184612cc1565b9392505050565b7f4f776e61626c653a2063616c6c6572206973206e6f7420746865206f776e6572600082015250565b600061398260208361365a565b915061398d8261394c565b602082019050919050565b600060208201905081810360008301526139b181613975565b905091905056fea26469706673582212207b5b833699bd1e41509274c2334cc9043ed9802de1b0a2647880d602a90936fb64736f6c63430008080033",
  "linkReferences": {},
  "deployedLinkReferences": {}
}