{"contracts/AlphaVaultSwap.sol":{"AlphaVaultSwap":{"abi":[{"inputs":[{"internalType":"address","name":"_WETH","type":"address"}],"stateMutability":"nonpayable","type":"constructor"},{"inputs":[{"internalType":"contract IERC20","name":"buyToken","type":"address"},{"internalType":"contract IERC20","name":"sellToken","type":"address"}],"name":"FillQuote_Swap_Failed","type":"error"},{"inputs":[],"name":"InvalidAddress","type":"error"},{"inputs":[],"name":"Invalid_Multiswap_Data","type":"error"},{"anonymous":false,"inputs":[{"indexed":false,"internalType":"uint256","name":"wethBal_","type":"uint256"},{"indexed":false,"internalType":"uint256","name":"reqAmount_","type":"uint256"}],"name":"BadRequest","type":"event"},{"anonymous":false,"inputs":[{"indexed":false,"internalType":"uint256","name":"wethBal_","type":"uint256"}],"name":"EtherBalanceChange","type":"event"},{"anonymous":false,"inputs":[{"indexed":true,"internalType":"address","name":"previousOwner","type":"address"},{"indexed":true,"internalType":"address","name":"newOwner","type":"address"}],"name":"OwnershipTransferred","type":"event"},{"anonymous":false,"inputs":[{"indexed":true,"internalType":"address","name":"from_","type":"address"},{"indexed":true,"internalType":"address","name":"to_","type":"address"},{"indexed":false,"internalType":"uint256","name":"amount_","type":"uint256"}],"name":"TransferSuccessful","type":"event"},{"anonymous":false,"inputs":[{"indexed":false,"internalType":"contract IERC20","name":"buyToken","type":"address"},{"indexed":false,"internalType":"uint256","name":"boughtAmount_","type":"uint256"}],"name":"WithdrawTokens","type":"event"},{"anonymous":false,"inputs":[{"indexed":false,"internalType":"bool","name":"status","type":"bool"},{"indexed":false,"internalType":"uint256","name":"initialBuyTokenBalance","type":"uint256"}],"name":"ZeroXCallSuccess","type":"event"},{"anonymous":false,"inputs":[{"indexed":false,"internalType":"uint256","name":"buTokenAmount","type":"uint256"}],"name":"buyTokenBought","type":"event"},{"anonymous":false,"inputs":[{"indexed":false,"internalType":"uint256","name":"maxTransactions","type":"uint256"}],"name":"maxTransactionsChange","type":"event"},{"stateMutability":"payable","type":"fallback"},{"inputs":[],"name":"WETH","outputs":[{"internalType":"contract IWETH","name":"","type":"address"}],"stateMutability":"view","type":"function"},{"inputs":[],"name":"fee","outputs":[{"internalType":"uint256","name":"","type":"uint256"}],"stateMutability":"view","type":"function"},{"inputs":[],"name":"maxTransactions","outputs":[{"internalType":"uint256","name":"","type":"uint256"}],"stateMutability":"view","type":"function"},{"inputs":[{"internalType":"contract IERC20[]","name":"sellToken","type":"address[]"},{"internalType":"contract IERC20[]","name":"buyToken","type":"address[]"},{"internalType":"address[]","name":"spender","type":"address[]"},{"internalType":"address payable[]","name":"swapTarget","type":"address[]"},{"internalType":"bytes[]","name":"swapCallData","type":"bytes[]"},{"internalType":"uint256[]","name":"amount","type":"uint256[]"}],"name":"multiSwap","outputs":[],"stateMutability":"payable","type":"function"},{"inputs":[],"name":"owner","outputs":[{"internalType":"address","name":"","type":"address"}],"stateMutability":"view","type":"function"},{"inputs":[],"name":"renounceOwnership","outputs":[],"stateMutability":"nonpayable","type":"function"},{"inputs":[{"internalType":"uint256","name":"num","type":"uint256"}],"name":"setMaxTransactionLimit","outputs":[],"stateMutability":"nonpayable","type":"function"},{"inputs":[{"internalType":"uint256","name":"num","type":"uint256"}],"name":"setfee","outputs":[],"stateMutability":"nonpayable","type":"function"},{"inputs":[{"internalType":"address","name":"newOwner","type":"address"}],"name":"transferOwnership","outputs":[],"stateMutability":"nonpayable","type":"function"},{"stateMutability":"payable","type":"receive"}],"devdoc":{"author":"Chitranshu Varshney","details":"A contract for swapping ERC20 tokens using 0x-API quotes.","events":{"TransferSuccessful(address,address,uint256)":{"details":"Event to notify if transfer successful or failed after account approval verified"}},"kind":"dev","methods":{"multiSwap(address[],address[],address[],address[],bytes[],uint256[])":{"details":"Swaps multiple ERC20-> multiple ERC20 tokens held by this contract using a 0x-API quote.","params":{"amount":"amount of sell token to swap.","buyToken":"addresses of sell tokens","sellToken":"addresses of sell tokens","spender":"The address approved for spending the sellToken.","swapCallData":"The data to call the swap function on the swapTarget.","swapTarget":"The target contract to execute the swap."}},"owner()":{"details":"Returns the address of the current owner."},"renounceOwnership()":{"details":"Leaves the contract without owner. It will not be possible to call `onlyOwner` functions anymore. Can only be called by the current owner. NOTE: Renouncing ownership will leave the contract without an owner, thereby removing any functionality that is only available to the owner."},"setMaxTransactionLimit(uint256)":{"details":"Sets the maximum transaction limit.","params":{"num":"The new maximum transaction limit."}},"setfee(uint256)":{"details":"Sets the fee for the transactions.","params":{"num":"The new fee value."}},"transferOwnership(address)":{"details":"Transfers ownership of the contract to a new account (`newOwner`). Can only be called by the current owner."}},"title":"AlphaVaultSwap","version":1},"evm":{"bytecode":{"linkReferences":{},"object":"60a06040523480156200001157600080fd5b5060405162002310380380620023108339818101604052810190620000379190620001db565b620000576200004b620000a560201b60201c565b620000ad60201b60201c565b8073ffffffffffffffffffffffffffffffffffffffff1660808173ffffffffffffffffffffffffffffffffffffffff1660601b8152505060196001819055506000600281905550506200020d565b600033905090565b60008060009054906101000a900473ffffffffffffffffffffffffffffffffffffffff169050816000806101000a81548173ffffffffffffffffffffffffffffffffffffffff021916908373ffffffffffffffffffffffffffffffffffffffff1602179055508173ffffffffffffffffffffffffffffffffffffffff168173ffffffffffffffffffffffffffffffffffffffff167f8be0079c531659141344cd1fd0a4f28419497f9722a3daafe3b4186f6b6457e060405160405180910390a35050565b600080fd5b600073ffffffffffffffffffffffffffffffffffffffff82169050919050565b6000620001a38262000176565b9050919050565b620001b58162000196565b8114620001c157600080fd5b50565b600081519050620001d581620001aa565b92915050565b600060208284031215620001f457620001f362000171565b5b60006200020484828501620001c4565b91505092915050565b60805160601c6120d66200023a6000396000818161027b015281816109760152610bc201526120d66000f3fe60806040526004361061008a5760003560e01c80637a9d7c14116100595780637a9d7c141461011a5780638da5cb5b14610143578063ad5c46481461016e578063ddca3f4314610199578063f2fde38b146101c457610091565b806324e1c18d146100935780636ca591a7146100be578063715018a6146100da57806373fee090146100f157610091565b3661009157005b005b34801561009f57600080fd5b506100a86101ed565b6040516100b591906113a5565b60405180910390f35b6100d860048036038101906100d391906116b6565b6101f3565b005b3480156100e657600080fd5b506100ef610b26565b005b3480156100fd57600080fd5b5061011860048036038101906101139190611803565b610b3a565b005b34801561012657600080fd5b50610141600480360381019061013c9190611803565b610b4c565b005b34801561014f57600080fd5b50610158610b97565b6040516101659190611871565b60405180910390f35b34801561017a57600080fd5b50610183610bc0565b60405161019091906118eb565b60405180910390f35b3480156101a557600080fd5b506101ae610be4565b6040516101bb91906113a5565b60405180910390f35b3480156101d057600080fd5b506101eb60048036038101906101e69190611932565b610bea565b005b60015481565b6001548b8b90501115801561020d5750888890508b8b9050145b801561021e57508888905087879050145b801561022f57508686905085859050145b610265576040517f90b42d6500000000000000000000000000000000000000000000000000000000815260040160405180910390fd5b60006040518060400160405280600081526020017f000000000000000000000000000000000000000000000000000000000000000073ffffffffffffffffffffffffffffffffffffffff168152509050600034111561036957806020015173ffffffffffffffffffffffffffffffffffffffff1663d0e30db0346040518263ffffffff1660e01b81526004016000604051808303818588803b15801561030a57600080fd5b505af115801561031e573d6000803e3d6000fd5b5050505050348160000181815250507f59e3c56b3739d587caa0270fae7c28e1b6a1af555395ad122400ff97d48fed16816000015160405161036091906113a5565b60405180910390a15b60005b88889050811015610abf57600073ffffffffffffffffffffffffffffffffffffffff168989838181106103a2576103a161195f565b5b90506020020160208101906103b79190611932565b73ffffffffffffffffffffffffffffffffffffffff1614156105a0578281815181106103e6576103e561195f565b5b602002602001015182600001511015610455577f0b74b0798ec89f7cf91b1446e01c1bb75b7d55c45b104edfb364a46a074e2f5682600001518483815181106104325761043161195f565b5b602002602001015160405161044892919061198e565b60405180910390a1610abf565b600083828151811061046a5761046961195f565b5b6020026020010151111561059b5782818151811061048b5761048a61195f565b5b6020026020010151826000018181516104a491906119e6565b91508181525050816020015173ffffffffffffffffffffffffffffffffffffffff16632e1a7d4d8483815181106104de576104dd61195f565b5b60200260200101516040518263ffffffff1660e01b815260040161050291906113a5565b600060405180830381600087803b15801561051c57600080fd5b505af1158015610530573d6000803e3d6000fd5b5050505061055f83828151811061054a5761054961195f565b5b602002602001015161055a610c6e565b610c76565b7f59e3c56b3739d587caa0270fae7c28e1b6a1af555395ad122400ff97d48fed16826000015160405161059291906113a5565b60405180910390a15b610aac565b816020015173ffffffffffffffffffffffffffffffffffffffff168d8d838181106105ce576105cd61195f565b5b90506020020160208101906105e39190611a58565b73ffffffffffffffffffffffffffffffffffffffff1614156107b2578a8a828181106106125761061161195f565b5b90506020020160208101906106279190611a58565b73ffffffffffffffffffffffffffffffffffffffff168d8d838181106106505761064f61195f565b5b90506020020160208101906106659190611a58565b73ffffffffffffffffffffffffffffffffffffffff16141561073f576106cc8d8d838181106106975761069661195f565b5b90506020020160208101906106ac9190611a58565b8483815181106106bf576106be61195f565b5b6020026020010151610cc1565b8281815181106106df576106de61195f565b5b6020026020010151826000018181516106f89190611a85565b915081815250507f59e3c56b3739d587caa0270fae7c28e1b6a1af555395ad122400ff97d48fed16826000015160405161073291906113a5565b60405180910390a1610aac565b8281815181106107525761075161195f565b5b60200260200101518260000181815161076b91906119e6565b915081815250507f59e3c56b3739d587caa0270fae7c28e1b6a1af555395ad122400ff97d48fed1682600001516040516107a591906113a5565b60405180910390a16107fe565b6107fd8d8d838181106107c8576107c761195f565b5b90506020020160208101906107dd9190611a58565b8483815181106107f0576107ef61195f565b5b6020026020010151610cc1565b5b60006108cd8c8c848181106108165761081561195f565b5b905060200201602081019061082b9190611a58565b8f8f8581811061083e5761083d61195f565b5b90506020020160208101906108539190611a58565b8c8c868181106108665761086561195f565b5b905060200201602081019061087b9190611932565b8b8b8781811061088e5761088d61195f565b5b90506020020160208101906108a39190611b19565b8a8a888181106108b6576108b561195f565b5b90506020028101906108c89190611b55565b610dba565b90506000612710826002546108e29190611bb8565b6108ec9190611c41565b9050836020015173ffffffffffffffffffffffffffffffffffffffff168d8d8581811061091c5761091b61195f565b5b90506020020160208101906109319190611a58565b73ffffffffffffffffffffffffffffffffffffffff1614156109db578082856000015161095e9190611a85565b61096891906119e6565b84600001818152505061099b7f000000000000000000000000000000000000000000000000000000000000000082611117565b7f59e3c56b3739d587caa0270fae7c28e1b6a1af555395ad122400ff97d48fed1684600001516040516109ce91906113a5565b60405180910390a1610aa9565b610a178d8d858181106109f1576109f061195f565b5b9050602002016020810190610a069190611a58565b8284610a1291906119e6565b6111b0565b610a488d8d85818110610a2d57610a2c61195f565b5b9050602002016020810190610a429190611a58565b82611117565b7f680f2e4f4032ebf1774e8cdbaddcb1b617a5a606411c8ca96257ada338d3833c8d8d85818110610a7c57610a7b61195f565b5b9050602002016020810190610a919190611a58565b83604051610aa0929190611c93565b60405180910390a15b50505b8080610ab790611cbc565b91505061036c565b50600081600001511115610b1857610adf816020015182600001516111b0565b7f59e3c56b3739d587caa0270fae7c28e1b6a1af555395ad122400ff97d48fed166000604051610b0f9190611d40565b60405180910390a15b505050505050505050505050565b610b2e611242565b610b3860006112c0565b565b610b42611242565b8060028190555050565b610b54611242565b806001819055507f5091ccfe22ca8f99d8f1f07c6ae3a61daf990d74ef229d46898624ff3977238c600154604051610b8c91906113a5565b60405180910390a150565b60008060009054906101000a900473ffffffffffffffffffffffffffffffffffffffff16905090565b7f000000000000000000000000000000000000000000000000000000000000000081565b60025481565b610bf2611242565b600073ffffffffffffffffffffffffffffffffffffffff168173ffffffffffffffffffffffffffffffffffffffff161415610c62576040517f08c379a0000000000000000000000000000000000000000000000000000000008152600401610c5990611dde565b60405180910390fd5b610c6b816112c0565b50565b600033905090565b8073ffffffffffffffffffffffffffffffffffffffff166108fc839081150290604051600060405180830381858888f19350505050158015610cbc573d6000803e3d6000fd5b505050565b8173ffffffffffffffffffffffffffffffffffffffff166323b872dd3330846040518463ffffffff1660e01b8152600401610cfe93929190611dfe565b602060405180830381600087803b158015610d1857600080fd5b505af1158015610d2c573d6000803e3d6000fd5b505050506040513d601f19601f82011682018060405250810190610d509190611e6d565b503073ffffffffffffffffffffffffffffffffffffffff163373ffffffffffffffffffffffffffffffffffffffff167fd6d3eb25a413c05d8107fc49deb2789bef7f612582b2482804c0b0423b6638ee83604051610dae91906113a5565b60405180910390a35050565b60008073ffffffffffffffffffffffffffffffffffffffff168573ffffffffffffffffffffffffffffffffffffffff161415610e22576040517fe6c4247b00000000000000000000000000000000000000000000000000000000815260040160405180910390fd5b60008773ffffffffffffffffffffffffffffffffffffffff166370a08231306040518263ffffffff1660e01b8152600401610e5d9190611871565b60206040518083038186803b158015610e7557600080fd5b505afa158015610e89573d6000803e3d6000fd5b505050506040513d601f19601f82011682018060405250810190610ead9190611eaf565b90508673ffffffffffffffffffffffffffffffffffffffff1663095ea7b3876fffffffffffffffffffffffffffffffff6040518363ffffffff1660e01b8152600401610efa929190611f29565b602060405180830381600087803b158015610f1457600080fd5b505af1158015610f28573d6000803e3d6000fd5b505050506040513d601f19601f82011682018060405250810190610f4c9190611e6d565b5060008573ffffffffffffffffffffffffffffffffffffffff1660008686604051610f78929190611f91565b60006040518083038185875af1925050503d8060008114610fb5576040519150601f19603f3d011682016040523d82523d6000602084013e610fba565b606091505b505090507fb1bbdf0cbdd013d8d322184c42c16dafe4b2b3b66c3d60f46874b6c78b9a87f68183604051610fef929190611fb9565b60405180910390a18061103b5788886040517f7155081c000000000000000000000000000000000000000000000000000000008152600401611032929190611fe2565b60405180910390fd5b818973ffffffffffffffffffffffffffffffffffffffff166370a08231306040518263ffffffff1660e01b81526004016110759190611871565b60206040518083038186803b15801561108d57600080fd5b505afa1580156110a1573d6000803e3d6000fd5b505050506040513d601f19601f820116820180604052508101906110c59190611eaf565b6110cf91906119e6565b91507f74496fce2cdc392d99808924e4161c005195a64fee4c166b02c2b716db28abb08260405161110091906113a5565b60405180910390a181925050509695505050505050565b8173ffffffffffffffffffffffffffffffffffffffff1663a9059cbb61113b610b97565b836040518363ffffffff1660e01b815260040161115992919061200b565b602060405180830381600087803b15801561117357600080fd5b505af1158015611187573d6000803e3d6000fd5b505050506040513d601f19601f820116820180604052508101906111ab9190611e6d565b505050565b8173ffffffffffffffffffffffffffffffffffffffff1663a9059cbb33836040518363ffffffff1660e01b81526004016111eb92919061200b565b602060405180830381600087803b15801561120557600080fd5b505af1158015611219573d6000803e3d6000fd5b505050506040513d601f19601f8201168201806040525081019061123d9190611e6d565b505050565b61124a611384565b73ffffffffffffffffffffffffffffffffffffffff16611268610b97565b73ffffffffffffffffffffffffffffffffffffffff16146112be576040517f08c379a00000000000000000000000000000000000000000000000000000000081526004016112b590612080565b60405180910390fd5b565b60008060009054906101000a900473ffffffffffffffffffffffffffffffffffffffff169050816000806101000a81548173ffffffffffffffffffffffffffffffffffffffff021916908373ffffffffffffffffffffffffffffffffffffffff1602179055508173ffffffffffffffffffffffffffffffffffffffff168173ffffffffffffffffffffffffffffffffffffffff167f8be0079c531659141344cd1fd0a4f28419497f9722a3daafe3b4186f6b6457e060405160405180910390a35050565b600033905090565b6000819050919050565b61139f8161138c565b82525050565b60006020820190506113ba6000830184611396565b92915050565b6000604051905090565b600080fd5b600080fd5b600080fd5b600080fd5b600080fd5b60008083601f8401126113f9576113f86113d4565b5b8235905067ffffffffffffffff811115611416576114156113d9565b5b602083019150836020820283011115611432576114316113de565b5b9250929050565b60008083601f84011261144f5761144e6113d4565b5b8235905067ffffffffffffffff81111561146c5761146b6113d9565b5b602083019150836020820283011115611488576114876113de565b5b9250929050565b60008083601f8401126114a5576114a46113d4565b5b8235905067ffffffffffffffff8111156114c2576114c16113d9565b5b6020830191508360208202830111156114de576114dd6113de565b5b9250929050565b60008083601f8401126114fb576114fa6113d4565b5b8235905067ffffffffffffffff811115611518576115176113d9565b5b602083019150836020820283011115611534576115336113de565b5b9250929050565b6000601f19601f8301169050919050565b7f4e487b7100000000000000000000000000000000000000000000000000000000600052604160045260246000fd5b6115848261153b565b810181811067ffffffffffffffff821117156115a3576115a261154c565b5b80604052505050565b60006115b66113c0565b90506115c2828261157b565b919050565b600067ffffffffffffffff8211156115e2576115e161154c565b5b602082029050602081019050919050565b6115fc8161138c565b811461160757600080fd5b50565b600081359050611619816115f3565b92915050565b600061163261162d846115c7565b6115ac565b90508083825260208201905060208402830185811115611655576116546113de565b5b835b8181101561167e578061166a888261160a565b845260208401935050602081019050611657565b5050509392505050565b600082601f83011261169d5761169c6113d4565b5b81356116ad84826020860161161f565b91505092915050565b600080600080600080600080600080600060c08c8e0312156116db576116da6113ca565b5b60008c013567ffffffffffffffff8111156116f9576116f86113cf565b5b6117058e828f016113e3565b9b509b505060208c013567ffffffffffffffff811115611728576117276113cf565b5b6117348e828f016113e3565b995099505060408c013567ffffffffffffffff811115611757576117566113cf565b5b6117638e828f01611439565b975097505060608c013567ffffffffffffffff811115611786576117856113cf565b5b6117928e828f0161148f565b955095505060808c013567ffffffffffffffff8111156117b5576117b46113cf565b5b6117c18e828f016114e5565b935093505060a08c013567ffffffffffffffff8111156117e4576117e36113cf565b5b6117f08e828f01611688565b9150509295989b509295989b9093969950565b600060208284031215611819576118186113ca565b5b60006118278482850161160a565b91505092915050565b600073ffffffffffffffffffffffffffffffffffffffff82169050919050565b600061185b82611830565b9050919050565b61186b81611850565b82525050565b60006020820190506118866000830184611862565b92915050565b6000819050919050565b60006118b16118ac6118a784611830565b61188c565b611830565b9050919050565b60006118c382611896565b9050919050565b60006118d5826118b8565b9050919050565b6118e5816118ca565b82525050565b600060208201905061190060008301846118dc565b92915050565b61190f81611850565b811461191a57600080fd5b50565b60008135905061192c81611906565b92915050565b600060208284031215611948576119476113ca565b5b60006119568482850161191d565b91505092915050565b7f4e487b7100000000000000000000000000000000000000000000000000000000600052603260045260246000fd5b60006040820190506119a36000830185611396565b6119b06020830184611396565b9392505050565b7f4e487b7100000000000000000000000000000000000000000000000000000000600052601160045260246000fd5b60006119f18261138c565b91506119fc8361138c565b925082821015611a0f57611a0e6119b7565b5b828203905092915050565b6000611a2582611850565b9050919050565b611a3581611a1a565b8114611a4057600080fd5b50565b600081359050611a5281611a2c565b92915050565b600060208284031215611a6e57611a6d6113ca565b5b6000611a7c84828501611a43565b91505092915050565b6000611a908261138c565b9150611a9b8361138c565b9250827fffffffffffffffffffffffffffffffffffffffffffffffffffffffffffffffff03821115611ad057611acf6119b7565b5b828201905092915050565b6000611ae682611830565b9050919050565b611af681611adb565b8114611b0157600080fd5b50565b600081359050611b1381611aed565b92915050565b600060208284031215611b2f57611b2e6113ca565b5b6000611b3d84828501611b04565b91505092915050565b600080fd5b600080fd5b600080fd5b60008083356001602003843603038112611b7257611b71611b46565b5b80840192508235915067ffffffffffffffff821115611b9457611b93611b4b565b5b602083019250600182023603831315611bb057611baf611b50565b5b509250929050565b6000611bc38261138c565b9150611bce8361138c565b9250817fffffffffffffffffffffffffffffffffffffffffffffffffffffffffffffffff0483118215151615611c0757611c066119b7565b5b828202905092915050565b7f4e487b7100000000000000000000000000000000000000000000000000000000600052601260045260246000fd5b6000611c4c8261138c565b9150611c578361138c565b925082611c6757611c66611c12565b5b828204905092915050565b6000611c7d826118b8565b9050919050565b611c8d81611c72565b82525050565b6000604082019050611ca86000830185611c84565b611cb56020830184611396565b9392505050565b6000611cc78261138c565b91507fffffffffffffffffffffffffffffffffffffffffffffffffffffffffffffffff821415611cfa57611cf96119b7565b5b600182019050919050565b6000819050919050565b6000611d2a611d25611d2084611d05565b61188c565b61138c565b9050919050565b611d3a81611d0f565b82525050565b6000602082019050611d556000830184611d31565b92915050565b600082825260208201905092915050565b7f4f776e61626c653a206e6577206f776e657220697320746865207a65726f206160008201527f6464726573730000000000000000000000000000000000000000000000000000602082015250565b6000611dc8602683611d5b565b9150611dd382611d6c565b604082019050919050565b60006020820190508181036000830152611df781611dbb565b9050919050565b6000606082019050611e136000830186611862565b611e206020830185611862565b611e2d6040830184611396565b949350505050565b60008115159050919050565b611e4a81611e35565b8114611e5557600080fd5b50565b600081519050611e6781611e41565b92915050565b600060208284031215611e8357611e826113ca565b5b6000611e9184828501611e58565b91505092915050565b600081519050611ea9816115f3565b92915050565b600060208284031215611ec557611ec46113ca565b5b6000611ed384828501611e9a565b91505092915050565b60006fffffffffffffffffffffffffffffffff82169050919050565b6000611f13611f0e611f0984611edc565b61188c565b61138c565b9050919050565b611f2381611ef8565b82525050565b6000604082019050611f3e6000830185611862565b611f4b6020830184611f1a565b9392505050565b600081905092915050565b82818337600083830152505050565b6000611f788385611f52565b9350611f85838584611f5d565b82840190509392505050565b6000611f9e828486611f6c565b91508190509392505050565b611fb381611e35565b82525050565b6000604082019050611fce6000830185611faa565b611fdb6020830184611396565b9392505050565b6000604082019050611ff76000830185611c84565b6120046020830184611c84565b9392505050565b60006040820190506120206000830185611862565b61202d6020830184611396565b9392505050565b7f4f776e61626c653a2063616c6c6572206973206e6f7420746865206f776e6572600082015250565b600061206a602083611d5b565b915061207582612034565b602082019050919050565b600060208201905081810360008301526120998161205d565b905091905056fea264697066735822122063d0dbee4619c9f11ba3f772102320ea2fbee16b97858046fa3e99ca34e3741164736f6c63430008080033","opcodes":"PUSH1 0xA0 PUSH1 0x40 MSTORE CALLVALUE DUP1 ISZERO PUSH3 0x11 JUMPI PUSH1 0x0 DUP1 REVERT JUMPDEST POP PUSH1 0x40 MLOAD PUSH3 0x2310 CODESIZE SUB DUP1 PUSH3 0x2310 DUP4 CODECOPY DUP2 DUP2 ADD PUSH1 0x40 MSTORE DUP2 ADD SWAP1 PUSH3 0x37 SWAP2 SWAP1 PUSH3 0x1DB JUMP JUMPDEST PUSH3 0x57 PUSH3 0x4B PUSH3 0xA5 PUSH1 0x20 SHL PUSH1 0x20 SHR JUMP JUMPDEST PUSH3 0xAD PUSH1 0x20 SHL PUSH1 0x20 SHR JUMP JUMPDEST DUP1 PUSH20 0xFFFFFFFFFFFFFFFFFFFFFFFFFFFFFFFFFFFFFFFF AND PUSH1 0x80 DUP2 PUSH20 0xFFFFFFFFFFFFFFFFFFFFFFFFFFFFFFFFFFFFFFFF AND PUSH1 0x60 SHL DUP2 MSTORE POP POP PUSH1 0x19 PUSH1 0x1 DUP2 SWAP1 SSTORE POP PUSH1 0x0 PUSH1 0x2 DUP2 SWAP1 SSTORE POP POP PUSH3 0x20D JUMP JUMPDEST PUSH1 0x0 CALLER SWAP1 POP SWAP1 JUMP JUMPDEST PUSH1 0x0 DUP1 PUSH1 0x0 SWAP1 SLOAD SWAP1 PUSH2 0x100 EXP SWAP1 DIV PUSH20 0xFFFFFFFFFFFFFFFFFFFFFFFFFFFFFFFFFFFFFFFF AND SWAP1 POP DUP2 PUSH1 0x0 DUP1 PUSH2 0x100 EXP DUP2 SLOAD DUP2 PUSH20 0xFFFFFFFFFFFFFFFFFFFFFFFFFFFFFFFFFFFFFFFF MUL NOT AND SWAP1 DUP4 PUSH20 0xFFFFFFFFFFFFFFFFFFFFFFFFFFFFFFFFFFFFFFFF AND MUL OR SWAP1 SSTORE POP DUP2 PUSH20 0xFFFFFFFFFFFFFFFFFFFFFFFFFFFFFFFFFFFFFFFF AND DUP2 PUSH20 0xFFFFFFFFFFFFFFFFFFFFFFFFFFFFFFFFFFFFFFFF AND PUSH32 0x8BE0079C531659141344CD1FD0A4F28419497F9722A3DAAFE3B4186F6B6457E0 PUSH1 0x40 MLOAD PUSH1 0x40 MLOAD DUP1 SWAP2 SUB SWAP1 LOG3 POP POP JUMP JUMPDEST PUSH1 0x0 DUP1 REVERT JUMPDEST PUSH1 0x0 PUSH20 0xFFFFFFFFFFFFFFFFFFFFFFFFFFFFFFFFFFFFFFFF DUP3 AND SWAP1 POP SWAP2 SWAP1 POP JUMP JUMPDEST PUSH1 0x0 PUSH3 0x1A3 DUP3 PUSH3 0x176 JUMP JUMPDEST SWAP1 POP SWAP2 SWAP1 POP JUMP JUMPDEST PUSH3 0x1B5 DUP2 PUSH3 0x196 JUMP JUMPDEST DUP2 EQ PUSH3 0x1C1 JUMPI PUSH1 0x0 DUP1 REVERT JUMPDEST POP JUMP JUMPDEST PUSH1 0x0 DUP2 MLOAD SWAP1 POP PUSH3 0x1D5 DUP2 PUSH3 0x1AA JUMP JUMPDEST SWAP3 SWAP2 POP POP JUMP JUMPDEST PUSH1 0x0 PUSH1 0x20 DUP3 DUP5 SUB SLT ISZERO PUSH3 0x1F4 JUMPI PUSH3 0x1F3 PUSH3 0x171 JUMP JUMPDEST JUMPDEST PUSH1 0x0 PUSH3 0x204 DUP5 DUP3 DUP6 ADD PUSH3 0x1C4 JUMP JUMPDEST SWAP2 POP POP SWAP3 SWAP2 POP POP JUMP JUMPDEST PUSH1 0x80 MLOAD PUSH1 0x60 SHR PUSH2 0x20D6 PUSH3 0x23A PUSH1 0x0 CODECOPY PUSH1 0x0 DUP2 DUP2 PUSH2 0x27B ADD MSTORE DUP2 DUP2 PUSH2 0x976 ADD MSTORE PUSH2 0xBC2 ADD MSTORE PUSH2 0x20D6 PUSH1 0x0 RETURN INVALID PUSH1 0x80 PUSH1 0x40 MSTORE PUSH1 0x4 CALLDATASIZE LT PUSH2 0x8A JUMPI PUSH1 0x0 CALLDATALOAD PUSH1 0xE0 SHR DUP1 PUSH4 0x7A9D7C14 GT PUSH2 0x59 JUMPI DUP1 PUSH4 0x7A9D7C14 EQ PUSH2 0x11A JUMPI DUP1 PUSH4 0x8DA5CB5B EQ PUSH2 0x143 JUMPI DUP1 PUSH4 0xAD5C4648 EQ PUSH2 0x16E JUMPI DUP1 PUSH4 0xDDCA3F43 EQ PUSH2 0x199 JUMPI DUP1 PUSH4 0xF2FDE38B EQ PUSH2 0x1C4 JUMPI PUSH2 0x91 JUMP JUMPDEST DUP1 PUSH4 0x24E1C18D EQ PUSH2 0x93 JUMPI DUP1 PUSH4 0x6CA591A7 EQ PUSH2 0xBE JUMPI DUP1 PUSH4 0x715018A6 EQ PUSH2 0xDA JUMPI DUP1 PUSH4 0x73FEE090 EQ PUSH2 0xF1 JUMPI PUSH2 0x91 JUMP JUMPDEST CALLDATASIZE PUSH2 0x91 JUMPI STOP JUMPDEST STOP JUMPDEST CALLVALUE DUP1 ISZERO PUSH2 0x9F JUMPI PUSH1 0x0 DUP1 REVERT JUMPDEST POP PUSH2 0xA8 PUSH2 0x1ED JUMP JUMPDEST PUSH1 0x40 MLOAD PUSH2 0xB5 SWAP2 SWAP1 PUSH2 0x13A5 JUMP JUMPDEST PUSH1 0x40 MLOAD DUP1 SWAP2 SUB SWAP1 RETURN JUMPDEST PUSH2 0xD8 PUSH1 0x4 DUP1 CALLDATASIZE SUB DUP2 ADD SWAP1 PUSH2 0xD3 SWAP2 SWAP1 PUSH2 0x16B6 JUMP JUMPDEST PUSH2 0x1F3 JUMP JUMPDEST STOP JUMPDEST CALLVALUE DUP1 ISZERO PUSH2 0xE6 JUMPI PUSH1 0x0 DUP1 REVERT JUMPDEST POP PUSH2 0xEF PUSH2 0xB26 JUMP JUMPDEST STOP JUMPDEST CALLVALUE DUP1 ISZERO PUSH2 0xFD JUMPI PUSH1 0x0 DUP1 REVERT JUMPDEST POP PUSH2 0x118 PUSH1 0x4 DUP1 CALLDATASIZE SUB DUP2 ADD SWAP1 PUSH2 0x113 SWAP2 SWAP1 PUSH2 0x1803 JUMP JUMPDEST PUSH2 0xB3A JUMP JUMPDEST STOP JUMPDEST CALLVALUE DUP1 ISZERO PUSH2 0x126 JUMPI PUSH1 0x0 DUP1 REVERT JUMPDEST POP PUSH2 0x141 PUSH1 0x4 DUP1 CALLDATASIZE SUB DUP2 ADD SWAP1 PUSH2 0x13C SWAP2 SWAP1 PUSH2 0x1803 JUMP JUMPDEST PUSH2 0xB4C JUMP JUMPDEST STOP JUMPDEST CALLVALUE DUP1 ISZERO PUSH2 0x14F JUMPI PUSH1 0x0 DUP1 REVERT JUMPDEST POP PUSH2 0x158 PUSH2 0xB97 JUMP JUMPDEST PUSH1 0x40 MLOAD PUSH2 0x165 SWAP2 SWAP1 PUSH2 0x1871 JUMP JUMPDEST PUSH1 0x40 MLOAD DUP1 SWAP2 SUB SWAP1 RETURN JUMPDEST CALLVALUE DUP1 ISZERO PUSH2 0x17A JUMPI PUSH1 0x0 DUP1 REVERT JUMPDEST POP PUSH2 0x183 PUSH2 0xBC0 JUMP JUMPDEST PUSH1 0x40 MLOAD PUSH2 0x190 SWAP2 SWAP1 PUSH2 0x18EB JUMP JUMPDEST PUSH1 0x40 MLOAD DUP1 SWAP2 SUB SWAP1 RETURN JUMPDEST CALLVALUE DUP1 ISZERO PUSH2 0x1A5 JUMPI PUSH1 0x0 DUP1 REVERT JUMPDEST POP PUSH2 0x1AE PUSH2 0xBE4 JUMP JUMPDEST PUSH1 0x40 MLOAD PUSH2 0x1BB SWAP2 SWAP1 PUSH2 0x13A5 JUMP JUMPDEST PUSH1 0x40 MLOAD DUP1 SWAP2 SUB SWAP1 RETURN JUMPDEST CALLVALUE DUP1 ISZERO PUSH2 0x1D0 JUMPI PUSH1 0x0 DUP1 REVERT JUMPDEST POP PUSH2 0x1EB PUSH1 0x4 DUP1 CALLDATASIZE SUB DUP2 ADD SWAP1 PUSH2 0x1E6 SWAP2 SWAP1 PUSH2 0x1932 JUMP JUMPDEST PUSH2 0xBEA JUMP JUMPDEST STOP JUMPDEST PUSH1 0x1 SLOAD DUP2 JUMP JUMPDEST PUSH1 0x1 SLOAD DUP12 DUP12 SWAP1 POP GT ISZERO DUP1 ISZERO PUSH2 0x20D JUMPI POP DUP9 DUP9 SWAP1 POP DUP12 DUP12 SWAP1 POP EQ JUMPDEST DUP1 ISZERO PUSH2 0x21E JUMPI POP DUP9 DUP9 SWAP1 POP DUP8 DUP8 SWAP1 POP EQ JUMPDEST DUP1 ISZERO PUSH2 0x22F JUMPI POP DUP7 DUP7 SWAP1 POP DUP6 DUP6 SWAP1 POP EQ JUMPDEST PUSH2 0x265 JUMPI PUSH1 0x40 MLOAD PUSH32 0x90B42D6500000000000000000000000000000000000000000000000000000000 DUP2 MSTORE PUSH1 0x4 ADD PUSH1 0x40 MLOAD DUP1 SWAP2 SUB SWAP1 REVERT JUMPDEST PUSH1 0x0 PUSH1 0x40 MLOAD DUP1 PUSH1 0x40 ADD PUSH1 0x40 MSTORE DUP1 PUSH1 0x0 DUP2 MSTORE PUSH1 0x20 ADD PUSH32 0x0 PUSH20 0xFFFFFFFFFFFFFFFFFFFFFFFFFFFFFFFFFFFFFFFF AND DUP2 MSTORE POP SWAP1 POP PUSH1 0x0 CALLVALUE GT ISZERO PUSH2 0x369 JUMPI DUP1 PUSH1 0x20 ADD MLOAD PUSH20 0xFFFFFFFFFFFFFFFFFFFFFFFFFFFFFFFFFFFFFFFF AND PUSH4 0xD0E30DB0 CALLVALUE PUSH1 0x40 MLOAD DUP3 PUSH4 0xFFFFFFFF AND PUSH1 0xE0 SHL DUP2 MSTORE PUSH1 0x4 ADD PUSH1 0x0 PUSH1 0x40 MLOAD DUP1 DUP4 SUB DUP2 DUP6 DUP9 DUP1 EXTCODESIZE ISZERO DUP1 ISZERO PUSH2 0x30A JUMPI PUSH1 0x0 DUP1 REVERT JUMPDEST POP GAS CALL ISZERO DUP1 ISZERO PUSH2 0x31E JUMPI RETURNDATASIZE PUSH1 0x0 DUP1 RETURNDATACOPY RETURNDATASIZE PUSH1 0x0 REVERT JUMPDEST POP POP POP POP POP CALLVALUE DUP2 PUSH1 0x0 ADD DUP2 DUP2 MSTORE POP POP PUSH32 0x59E3C56B3739D587CAA0270FAE7C28E1B6A1AF555395AD122400FF97D48FED16 DUP2 PUSH1 0x0 ADD MLOAD PUSH1 0x40 MLOAD PUSH2 0x360 SWAP2 SWAP1 PUSH2 0x13A5 JUMP JUMPDEST PUSH1 0x40 MLOAD DUP1 SWAP2 SUB SWAP1 LOG1 JUMPDEST PUSH1 0x0 JUMPDEST DUP9 DUP9 SWAP1 POP DUP2 LT ISZERO PUSH2 0xABF JUMPI PUSH1 0x0 PUSH20 0xFFFFFFFFFFFFFFFFFFFFFFFFFFFFFFFFFFFFFFFF AND DUP10 DUP10 DUP4 DUP2 DUP2 LT PUSH2 0x3A2 JUMPI PUSH2 0x3A1 PUSH2 0x195F JUMP JUMPDEST JUMPDEST SWAP1 POP PUSH1 0x20 MUL ADD PUSH1 0x20 DUP2 ADD SWAP1 PUSH2 0x3B7 SWAP2 SWAP1 PUSH2 0x1932 JUMP JUMPDEST PUSH20 0xFFFFFFFFFFFFFFFFFFFFFFFFFFFFFFFFFFFFFFFF AND EQ ISZERO PUSH2 0x5A0 JUMPI DUP3 DUP2 DUP2 MLOAD DUP2 LT PUSH2 0x3E6 JUMPI PUSH2 0x3E5 PUSH2 0x195F JUMP JUMPDEST JUMPDEST PUSH1 0x20 MUL PUSH1 0x20 ADD ADD MLOAD DUP3 PUSH1 0x0 ADD MLOAD LT ISZERO PUSH2 0x455 JUMPI PUSH32 0xB74B0798EC89F7CF91B1446E01C1BB75B7D55C45B104EDFB364A46A074E2F56 DUP3 PUSH1 0x0 ADD MLOAD DUP5 DUP4 DUP2 MLOAD DUP2 LT PUSH2 0x432 JUMPI PUSH2 0x431 PUSH2 0x195F JUMP JUMPDEST JUMPDEST PUSH1 0x20 MUL PUSH1 0x20 ADD ADD MLOAD PUSH1 0x40 MLOAD PUSH2 0x448 SWAP3 SWAP2 SWAP1 PUSH2 0x198E JUMP JUMPDEST PUSH1 0x40 MLOAD DUP1 SWAP2 SUB SWAP1 LOG1 PUSH2 0xABF JUMP JUMPDEST PUSH1 0x0 DUP4 DUP3 DUP2 MLOAD DUP2 LT PUSH2 0x46A JUMPI PUSH2 0x469 PUSH2 0x195F JUMP JUMPDEST JUMPDEST PUSH1 0x20 MUL PUSH1 0x20 ADD ADD MLOAD GT ISZERO PUSH2 0x59B JUMPI DUP3 DUP2 DUP2 MLOAD DUP2 LT PUSH2 0x48B JUMPI PUSH2 0x48A PUSH2 0x195F JUMP JUMPDEST JUMPDEST PUSH1 0x20 MUL PUSH1 0x20 ADD ADD MLOAD DUP3 PUSH1 0x0 ADD DUP2 DUP2 MLOAD PUSH2 0x4A4 SWAP2 SWAP1 PUSH2 0x19E6 JUMP JUMPDEST SWAP2 POP DUP2 DUP2 MSTORE POP POP DUP2 PUSH1 0x20 ADD MLOAD PUSH20 0xFFFFFFFFFFFFFFFFFFFFFFFFFFFFFFFFFFFFFFFF AND PUSH4 0x2E1A7D4D DUP5 DUP4 DUP2 MLOAD DUP2 LT PUSH2 0x4DE JUMPI PUSH2 0x4DD PUSH2 0x195F JUMP JUMPDEST JUMPDEST PUSH1 0x20 MUL PUSH1 0x20 ADD ADD MLOAD PUSH1 0x40 MLOAD DUP3 PUSH4 0xFFFFFFFF AND PUSH1 0xE0 SHL DUP2 MSTORE PUSH1 0x4 ADD PUSH2 0x502 SWAP2 SWAP1 PUSH2 0x13A5 JUMP JUMPDEST PUSH1 0x0 PUSH1 0x40 MLOAD DUP1 DUP4 SUB DUP2 PUSH1 0x0 DUP8 DUP1 EXTCODESIZE ISZERO DUP1 ISZERO PUSH2 0x51C JUMPI PUSH1 0x0 DUP1 REVERT JUMPDEST POP GAS CALL ISZERO DUP1 ISZERO PUSH2 0x530 JUMPI RETURNDATASIZE PUSH1 0x0 DUP1 RETURNDATACOPY RETURNDATASIZE PUSH1 0x0 REVERT JUMPDEST POP POP POP POP PUSH2 0x55F DUP4 DUP3 DUP2 MLOAD DUP2 LT PUSH2 0x54A JUMPI PUSH2 0x549 PUSH2 0x195F JUMP JUMPDEST JUMPDEST PUSH1 0x20 MUL PUSH1 0x20 ADD ADD MLOAD PUSH2 0x55A PUSH2 0xC6E JUMP JUMPDEST PUSH2 0xC76 JUMP JUMPDEST PUSH32 0x59E3C56B3739D587CAA0270FAE7C28E1B6A1AF555395AD122400FF97D48FED16 DUP3 PUSH1 0x0 ADD MLOAD PUSH1 0x40 MLOAD PUSH2 0x592 SWAP2 SWAP1 PUSH2 0x13A5 JUMP JUMPDEST PUSH1 0x40 MLOAD DUP1 SWAP2 SUB SWAP1 LOG1 JUMPDEST PUSH2 0xAAC JUMP JUMPDEST DUP2 PUSH1 0x20 ADD MLOAD PUSH20 0xFFFFFFFFFFFFFFFFFFFFFFFFFFFFFFFFFFFFFFFF AND DUP14 DUP14 DUP4 DUP2 DUP2 LT PUSH2 0x5CE JUMPI PUSH2 0x5CD PUSH2 0x195F JUMP JUMPDEST JUMPDEST SWAP1 POP PUSH1 0x20 MUL ADD PUSH1 0x20 DUP2 ADD SWAP1 PUSH2 0x5E3 SWAP2 SWAP1 PUSH2 0x1A58 JUMP JUMPDEST PUSH20 0xFFFFFFFFFFFFFFFFFFFFFFFFFFFFFFFFFFFFFFFF AND EQ ISZERO PUSH2 0x7B2 JUMPI DUP11 DUP11 DUP3 DUP2 DUP2 LT PUSH2 0x612 JUMPI PUSH2 0x611 PUSH2 0x195F JUMP JUMPDEST JUMPDEST SWAP1 POP PUSH1 0x20 MUL ADD PUSH1 0x20 DUP2 ADD SWAP1 PUSH2 0x627 SWAP2 SWAP1 PUSH2 0x1A58 JUMP JUMPDEST PUSH20 0xFFFFFFFFFFFFFFFFFFFFFFFFFFFFFFFFFFFFFFFF AND DUP14 DUP14 DUP4 DUP2 DUP2 LT PUSH2 0x650 JUMPI PUSH2 0x64F PUSH2 0x195F JUMP JUMPDEST JUMPDEST SWAP1 POP PUSH1 0x20 MUL ADD PUSH1 0x20 DUP2 ADD SWAP1 PUSH2 0x665 SWAP2 SWAP1 PUSH2 0x1A58 JUMP JUMPDEST PUSH20 0xFFFFFFFFFFFFFFFFFFFFFFFFFFFFFFFFFFFFFFFF AND EQ ISZERO PUSH2 0x73F JUMPI PUSH2 0x6CC DUP14 DUP14 DUP4 DUP2 DUP2 LT PUSH2 0x697 JUMPI PUSH2 0x696 PUSH2 0x195F JUMP JUMPDEST JUMPDEST SWAP1 POP PUSH1 0x20 MUL ADD PUSH1 0x20 DUP2 ADD SWAP1 PUSH2 0x6AC SWAP2 SWAP1 PUSH2 0x1A58 JUMP JUMPDEST DUP5 DUP4 DUP2 MLOAD DUP2 LT PUSH2 0x6BF JUMPI PUSH2 0x6BE PUSH2 0x195F JUMP JUMPDEST JUMPDEST PUSH1 0x20 MUL PUSH1 0x20 ADD ADD MLOAD PUSH2 0xCC1 JUMP JUMPDEST DUP3 DUP2 DUP2 MLOAD DUP2 LT PUSH2 0x6DF JUMPI PUSH2 0x6DE PUSH2 0x195F JUMP JUMPDEST JUMPDEST PUSH1 0x20 MUL PUSH1 0x20 ADD ADD MLOAD DUP3 PUSH1 0x0 ADD DUP2 DUP2 MLOAD PUSH2 0x6F8 SWAP2 SWAP1 PUSH2 0x1A85 JUMP JUMPDEST SWAP2 POP DUP2 DUP2 MSTORE POP POP PUSH32 0x59E3C56B3739D587CAA0270FAE7C28E1B6A1AF555395AD122400FF97D48FED16 DUP3 PUSH1 0x0 ADD MLOAD PUSH1 0x40 MLOAD PUSH2 0x732 SWAP2 SWAP1 PUSH2 0x13A5 JUMP JUMPDEST PUSH1 0x40 MLOAD DUP1 SWAP2 SUB SWAP1 LOG1 PUSH2 0xAAC JUMP JUMPDEST DUP3 DUP2 DUP2 MLOAD DUP2 LT PUSH2 0x752 JUMPI PUSH2 0x751 PUSH2 0x195F JUMP JUMPDEST JUMPDEST PUSH1 0x20 MUL PUSH1 0x20 ADD ADD MLOAD DUP3 PUSH1 0x0 ADD DUP2 DUP2 MLOAD PUSH2 0x76B SWAP2 SWAP1 PUSH2 0x19E6 JUMP JUMPDEST SWAP2 POP DUP2 DUP2 MSTORE POP POP PUSH32 0x59E3C56B3739D587CAA0270FAE7C28E1B6A1AF555395AD122400FF97D48FED16 DUP3 PUSH1 0x0 ADD MLOAD PUSH1 0x40 MLOAD PUSH2 0x7A5 SWAP2 SWAP1 PUSH2 0x13A5 JUMP JUMPDEST PUSH1 0x40 MLOAD DUP1 SWAP2 SUB SWAP1 LOG1 PUSH2 0x7FE JUMP JUMPDEST PUSH2 0x7FD DUP14 DUP14 DUP4 DUP2 DUP2 LT PUSH2 0x7C8 JUMPI PUSH2 0x7C7 PUSH2 0x195F JUMP JUMPDEST JUMPDEST SWAP1 POP PUSH1 0x20 MUL ADD PUSH1 0x20 DUP2 ADD SWAP1 PUSH2 0x7DD SWAP2 SWAP1 PUSH2 0x1A58 JUMP JUMPDEST DUP5 DUP4 DUP2 MLOAD DUP2 LT PUSH2 0x7F0 JUMPI PUSH2 0x7EF PUSH2 0x195F JUMP JUMPDEST JUMPDEST PUSH1 0x20 MUL PUSH1 0x20 ADD ADD MLOAD PUSH2 0xCC1 JUMP JUMPDEST JUMPDEST PUSH1 0x0 PUSH2 0x8CD DUP13 DUP13 DUP5 DUP2 DUP2 LT PUSH2 0x816 JUMPI PUSH2 0x815 PUSH2 0x195F JUMP JUMPDEST JUMPDEST SWAP1 POP PUSH1 0x20 MUL ADD PUSH1 0x20 DUP2 ADD SWAP1 PUSH2 0x82B SWAP2 SWAP1 PUSH2 0x1A58 JUMP JUMPDEST DUP16 DUP16 DUP6 DUP2 DUP2 LT PUSH2 0x83E JUMPI PUSH2 0x83D PUSH2 0x195F JUMP JUMPDEST JUMPDEST SWAP1 POP PUSH1 0x20 MUL ADD PUSH1 0x20 DUP2 ADD SWAP1 PUSH2 0x853 SWAP2 SWAP1 PUSH2 0x1A58 JUMP JUMPDEST DUP13 DUP13 DUP7 DUP2 DUP2 LT PUSH2 0x866 JUMPI PUSH2 0x865 PUSH2 0x195F JUMP JUMPDEST JUMPDEST SWAP1 POP PUSH1 0x20 MUL ADD PUSH1 0x20 DUP2 ADD SWAP1 PUSH2 0x87B SWAP2 SWAP1 PUSH2 0x1932 JUMP JUMPDEST DUP12 DUP12 DUP8 DUP2 DUP2 LT PUSH2 0x88E JUMPI PUSH2 0x88D PUSH2 0x195F JUMP JUMPDEST JUMPDEST SWAP1 POP PUSH1 0x20 MUL ADD PUSH1 0x20 DUP2 ADD SWAP1 PUSH2 0x8A3 SWAP2 SWAP1 PUSH2 0x1B19 JUMP JUMPDEST DUP11 DUP11 DUP9 DUP2 DUP2 LT PUSH2 0x8B6 JUMPI PUSH2 0x8B5 PUSH2 0x195F JUMP JUMPDEST JUMPDEST SWAP1 POP PUSH1 0x20 MUL DUP2 ADD SWAP1 PUSH2 0x8C8 SWAP2 SWAP1 PUSH2 0x1B55 JUMP JUMPDEST PUSH2 0xDBA JUMP JUMPDEST SWAP1 POP PUSH1 0x0 PUSH2 0x2710 DUP3 PUSH1 0x2 SLOAD PUSH2 0x8E2 SWAP2 SWAP1 PUSH2 0x1BB8 JUMP JUMPDEST PUSH2 0x8EC SWAP2 SWAP1 PUSH2 0x1C41 JUMP JUMPDEST SWAP1 POP DUP4 PUSH1 0x20 ADD MLOAD PUSH20 0xFFFFFFFFFFFFFFFFFFFFFFFFFFFFFFFFFFFFFFFF AND DUP14 DUP14 DUP6 DUP2 DUP2 LT PUSH2 0x91C JUMPI PUSH2 0x91B PUSH2 0x195F JUMP JUMPDEST JUMPDEST SWAP1 POP PUSH1 0x20 MUL ADD PUSH1 0x20 DUP2 ADD SWAP1 PUSH2 0x931 SWAP2 SWAP1 PUSH2 0x1A58 JUMP JUMPDEST PUSH20 0xFFFFFFFFFFFFFFFFFFFFFFFFFFFFFFFFFFFFFFFF AND EQ ISZERO PUSH2 0x9DB JUMPI DUP1 DUP3 DUP6 PUSH1 0x0 ADD MLOAD PUSH2 0x95E SWAP2 SWAP1 PUSH2 0x1A85 JUMP JUMPDEST PUSH2 0x968 SWAP2 SWAP1 PUSH2 0x19E6 JUMP JUMPDEST DUP5 PUSH1 0x0 ADD DUP2 DUP2 MSTORE POP POP PUSH2 0x99B PUSH32 0x0 DUP3 PUSH2 0x1117 JUMP JUMPDEST PUSH32 0x59E3C56B3739D587CAA0270FAE7C28E1B6A1AF555395AD122400FF97D48FED16 DUP5 PUSH1 0x0 ADD MLOAD PUSH1 0x40 MLOAD PUSH2 0x9CE SWAP2 SWAP1 PUSH2 0x13A5 JUMP JUMPDEST PUSH1 0x40 MLOAD DUP1 SWAP2 SUB SWAP1 LOG1 PUSH2 0xAA9 JUMP JUMPDEST PUSH2 0xA17 DUP14 DUP14 DUP6 DUP2 DUP2 LT PUSH2 0x9F1 JUMPI PUSH2 0x9F0 PUSH2 0x195F JUMP JUMPDEST JUMPDEST SWAP1 POP PUSH1 0x20 MUL ADD PUSH1 0x20 DUP2 ADD SWAP1 PUSH2 0xA06 SWAP2 SWAP1 PUSH2 0x1A58 JUMP JUMPDEST DUP3 DUP5 PUSH2 0xA12 SWAP2 SWAP1 PUSH2 0x19E6 JUMP JUMPDEST PUSH2 0x11B0 JUMP JUMPDEST PUSH2 0xA48 DUP14 DUP14 DUP6 DUP2 DUP2 LT PUSH2 0xA2D JUMPI PUSH2 0xA2C PUSH2 0x195F JUMP JUMPDEST JUMPDEST SWAP1 POP PUSH1 0x20 MUL ADD PUSH1 0x20 DUP2 ADD SWAP1 PUSH2 0xA42 SWAP2 SWAP1 PUSH2 0x1A58 JUMP JUMPDEST DUP3 PUSH2 0x1117 JUMP JUMPDEST PUSH32 0x680F2E4F4032EBF1774E8CDBADDCB1B617A5A606411C8CA96257ADA338D3833C DUP14 DUP14 DUP6 DUP2 DUP2 LT PUSH2 0xA7C JUMPI PUSH2 0xA7B PUSH2 0x195F JUMP JUMPDEST JUMPDEST SWAP1 POP PUSH1 0x20 MUL ADD PUSH1 0x20 DUP2 ADD SWAP1 PUSH2 0xA91 SWAP2 SWAP1 PUSH2 0x1A58 JUMP JUMPDEST DUP4 PUSH1 0x40 MLOAD PUSH2 0xAA0 SWAP3 SWAP2 SWAP1 PUSH2 0x1C93 JUMP JUMPDEST PUSH1 0x40 MLOAD DUP1 SWAP2 SUB SWAP1 LOG1 JUMPDEST POP POP JUMPDEST DUP1 DUP1 PUSH2 0xAB7 SWAP1 PUSH2 0x1CBC JUMP JUMPDEST SWAP2 POP POP PUSH2 0x36C JUMP JUMPDEST POP PUSH1 0x0 DUP2 PUSH1 0x0 ADD MLOAD GT ISZERO PUSH2 0xB18 JUMPI PUSH2 0xADF DUP2 PUSH1 0x20 ADD MLOAD DUP3 PUSH1 0x0 ADD MLOAD PUSH2 0x11B0 JUMP JUMPDEST PUSH32 0x59E3C56B3739D587CAA0270FAE7C28E1B6A1AF555395AD122400FF97D48FED16 PUSH1 0x0 PUSH1 0x40 MLOAD PUSH2 0xB0F SWAP2 SWAP1 PUSH2 0x1D40 JUMP JUMPDEST PUSH1 0x40 MLOAD DUP1 SWAP2 SUB SWAP1 LOG1 JUMPDEST POP POP POP POP POP POP POP POP POP POP POP POP JUMP JUMPDEST PUSH2 0xB2E PUSH2 0x1242 JUMP JUMPDEST PUSH2 0xB38 PUSH1 0x0 PUSH2 0x12C0 JUMP JUMPDEST JUMP JUMPDEST PUSH2 0xB42 PUSH2 0x1242 JUMP JUMPDEST DUP1 PUSH1 0x2 DUP2 SWAP1 SSTORE POP POP JUMP JUMPDEST PUSH2 0xB54 PUSH2 0x1242 JUMP JUMPDEST DUP1 PUSH1 0x1 DUP2 SWAP1 SSTORE POP PUSH32 0x5091CCFE22CA8F99D8F1F07C6AE3A61DAF990D74EF229D46898624FF3977238C PUSH1 0x1 SLOAD PUSH1 0x40 MLOAD PUSH2 0xB8C SWAP2 SWAP1 PUSH2 0x13A5 JUMP JUMPDEST PUSH1 0x40 MLOAD DUP1 SWAP2 SUB SWAP1 LOG1 POP JUMP JUMPDEST PUSH1 0x0 DUP1 PUSH1 0x0 SWAP1 SLOAD SWAP1 PUSH2 0x100 EXP SWAP1 DIV PUSH20 0xFFFFFFFFFFFFFFFFFFFFFFFFFFFFFFFFFFFFFFFF AND SWAP1 POP SWAP1 JUMP JUMPDEST PUSH32 0x0 DUP2 JUMP JUMPDEST PUSH1 0x2 SLOAD DUP2 JUMP JUMPDEST PUSH2 0xBF2 PUSH2 0x1242 JUMP JUMPDEST PUSH1 0x0 PUSH20 0xFFFFFFFFFFFFFFFFFFFFFFFFFFFFFFFFFFFFFFFF AND DUP2 PUSH20 0xFFFFFFFFFFFFFFFFFFFFFFFFFFFFFFFFFFFFFFFF AND EQ ISZERO PUSH2 0xC62 JUMPI PUSH1 0x40 MLOAD PUSH32 0x8C379A000000000000000000000000000000000000000000000000000000000 DUP2 MSTORE PUSH1 0x4 ADD PUSH2 0xC59 SWAP1 PUSH2 0x1DDE JUMP JUMPDEST PUSH1 0x40 MLOAD DUP1 SWAP2 SUB SWAP1 REVERT JUMPDEST PUSH2 0xC6B DUP2 PUSH2 0x12C0 JUMP JUMPDEST POP JUMP JUMPDEST PUSH1 0x0 CALLER SWAP1 POP SWAP1 JUMP JUMPDEST DUP1 PUSH20 0xFFFFFFFFFFFFFFFFFFFFFFFFFFFFFFFFFFFFFFFF AND PUSH2 0x8FC DUP4 SWAP1 DUP2 ISZERO MUL SWAP1 PUSH1 0x40 MLOAD PUSH1 0x0 PUSH1 0x40 MLOAD DUP1 DUP4 SUB DUP2 DUP6 DUP9 DUP9 CALL SWAP4 POP POP POP POP ISZERO DUP1 ISZERO PUSH2 0xCBC JUMPI RETURNDATASIZE PUSH1 0x0 DUP1 RETURNDATACOPY RETURNDATASIZE PUSH1 0x0 REVERT JUMPDEST POP POP POP JUMP JUMPDEST DUP2 PUSH20 0xFFFFFFFFFFFFFFFFFFFFFFFFFFFFFFFFFFFFFFFF AND PUSH4 0x23B872DD CALLER ADDRESS DUP5 PUSH1 0x40 MLOAD DUP5 PUSH4 0xFFFFFFFF AND PUSH1 0xE0 SHL DUP2 MSTORE PUSH1 0x4 ADD PUSH2 0xCFE SWAP4 SWAP3 SWAP2 SWAP1 PUSH2 0x1DFE JUMP JUMPDEST PUSH1 0x20 PUSH1 0x40 MLOAD DUP1 DUP4 SUB DUP2 PUSH1 0x0 DUP8 DUP1 EXTCODESIZE ISZERO DUP1 ISZERO PUSH2 0xD18 JUMPI PUSH1 0x0 DUP1 REVERT JUMPDEST POP GAS CALL ISZERO DUP1 ISZERO PUSH2 0xD2C JUMPI RETURNDATASIZE PUSH1 0x0 DUP1 RETURNDATACOPY RETURNDATASIZE PUSH1 0x0 REVERT JUMPDEST POP POP POP POP PUSH1 0x40 MLOAD RETURNDATASIZE PUSH1 0x1F NOT PUSH1 0x1F DUP3 ADD AND DUP3 ADD DUP1 PUSH1 0x40 MSTORE POP DUP2 ADD SWAP1 PUSH2 0xD50 SWAP2 SWAP1 PUSH2 0x1E6D JUMP JUMPDEST POP ADDRESS PUSH20 0xFFFFFFFFFFFFFFFFFFFFFFFFFFFFFFFFFFFFFFFF AND CALLER PUSH20 0xFFFFFFFFFFFFFFFFFFFFFFFFFFFFFFFFFFFFFFFF AND PUSH32 0xD6D3EB25A413C05D8107FC49DEB2789BEF7F612582B2482804C0B0423B6638EE DUP4 PUSH1 0x40 MLOAD PUSH2 0xDAE SWAP2 SWAP1 PUSH2 0x13A5 JUMP JUMPDEST PUSH1 0x40 MLOAD DUP1 SWAP2 SUB SWAP1 LOG3 POP POP JUMP JUMPDEST PUSH1 0x0 DUP1 PUSH20 0xFFFFFFFFFFFFFFFFFFFFFFFFFFFFFFFFFFFFFFFF AND DUP6 PUSH20 0xFFFFFFFFFFFFFFFFFFFFFFFFFFFFFFFFFFFFFFFF AND EQ ISZERO PUSH2 0xE22 JUMPI PUSH1 0x40 MLOAD PUSH32 0xE6C4247B00000000000000000000000000000000000000000000000000000000 DUP2 MSTORE PUSH1 0x4 ADD PUSH1 0x40 MLOAD DUP1 SWAP2 SUB SWAP1 REVERT JUMPDEST PUSH1 0x0 DUP8 PUSH20 0xFFFFFFFFFFFFFFFFFFFFFFFFFFFFFFFFFFFFFFFF AND PUSH4 0x70A08231 ADDRESS PUSH1 0x40 MLOAD DUP3 PUSH4 0xFFFFFFFF AND PUSH1 0xE0 SHL DUP2 MSTORE PUSH1 0x4 ADD PUSH2 0xE5D SWAP2 SWAP1 PUSH2 0x1871 JUMP JUMPDEST PUSH1 0x20 PUSH1 0x40 MLOAD DUP1 DUP4 SUB DUP2 DUP7 DUP1 EXTCODESIZE ISZERO DUP1 ISZERO PUSH2 0xE75 JUMPI PUSH1 0x0 DUP1 REVERT JUMPDEST POP GAS STATICCALL ISZERO DUP1 ISZERO PUSH2 0xE89 JUMPI RETURNDATASIZE PUSH1 0x0 DUP1 RETURNDATACOPY RETURNDATASIZE PUSH1 0x0 REVERT JUMPDEST POP POP POP POP PUSH1 0x40 MLOAD RETURNDATASIZE PUSH1 0x1F NOT PUSH1 0x1F DUP3 ADD AND DUP3 ADD DUP1 PUSH1 0x40 MSTORE POP DUP2 ADD SWAP1 PUSH2 0xEAD SWAP2 SWAP1 PUSH2 0x1EAF JUMP JUMPDEST SWAP1 POP DUP7 PUSH20 0xFFFFFFFFFFFFFFFFFFFFFFFFFFFFFFFFFFFFFFFF AND PUSH4 0x95EA7B3 DUP8 PUSH16 0xFFFFFFFFFFFFFFFFFFFFFFFFFFFFFFFF PUSH1 0x40 MLOAD DUP4 PUSH4 0xFFFFFFFF AND PUSH1 0xE0 SHL DUP2 MSTORE PUSH1 0x4 ADD PUSH2 0xEFA SWAP3 SWAP2 SWAP1 PUSH2 0x1F29 JUMP JUMPDEST PUSH1 0x20 PUSH1 0x40 MLOAD DUP1 DUP4 SUB DUP2 PUSH1 0x0 DUP8 DUP1 EXTCODESIZE ISZERO DUP1 ISZERO PUSH2 0xF14 JUMPI PUSH1 0x0 DUP1 REVERT JUMPDEST POP GAS CALL ISZERO DUP1 ISZERO PUSH2 0xF28 JUMPI RETURNDATASIZE PUSH1 0x0 DUP1 RETURNDATACOPY RETURNDATASIZE PUSH1 0x0 REVERT JUMPDEST POP POP POP POP PUSH1 0x40 MLOAD RETURNDATASIZE PUSH1 0x1F NOT PUSH1 0x1F DUP3 ADD AND DUP3 ADD DUP1 PUSH1 0x40 MSTORE POP DUP2 ADD SWAP1 PUSH2 0xF4C SWAP2 SWAP1 PUSH2 0x1E6D JUMP JUMPDEST POP PUSH1 0x0 DUP6 PUSH20 0xFFFFFFFFFFFFFFFFFFFFFFFFFFFFFFFFFFFFFFFF AND PUSH1 0x0 DUP7 DUP7 PUSH1 0x40 MLOAD PUSH2 0xF78 SWAP3 SWAP2 SWAP1 PUSH2 0x1F91 JUMP JUMPDEST PUSH1 0x0 PUSH1 0x40 MLOAD DUP1 DUP4 SUB DUP2 DUP6 DUP8 GAS CALL SWAP3 POP POP POP RETURNDATASIZE DUP1 PUSH1 0x0 DUP2 EQ PUSH2 0xFB5 JUMPI PUSH1 0x40 MLOAD SWAP2 POP PUSH1 0x1F NOT PUSH1 0x3F RETURNDATASIZE ADD AND DUP3 ADD PUSH1 0x40 MSTORE RETURNDATASIZE DUP3 MSTORE RETURNDATASIZE PUSH1 0x0 PUSH1 0x20 DUP5 ADD RETURNDATACOPY PUSH2 0xFBA JUMP JUMPDEST PUSH1 0x60 SWAP2 POP JUMPDEST POP POP SWAP1 POP PUSH32 0xB1BBDF0CBDD013D8D322184C42C16DAFE4B2B3B66C3D60F46874B6C78B9A87F6 DUP2 DUP4 PUSH1 0x40 MLOAD PUSH2 0xFEF SWAP3 SWAP2 SWAP1 PUSH2 0x1FB9 JUMP JUMPDEST PUSH1 0x40 MLOAD DUP1 SWAP2 SUB SWAP1 LOG1 DUP1 PUSH2 0x103B JUMPI DUP9 DUP9 PUSH1 0x40 MLOAD PUSH32 0x7155081C00000000000000000000000000000000000000000000000000000000 DUP2 MSTORE PUSH1 0x4 ADD PUSH2 0x1032 SWAP3 SWAP2 SWAP1 PUSH2 0x1FE2 JUMP JUMPDEST PUSH1 0x40 MLOAD DUP1 SWAP2 SUB SWAP1 REVERT JUMPDEST DUP2 DUP10 PUSH20 0xFFFFFFFFFFFFFFFFFFFFFFFFFFFFFFFFFFFFFFFF AND PUSH4 0x70A08231 ADDRESS PUSH1 0x40 MLOAD DUP3 PUSH4 0xFFFFFFFF AND PUSH1 0xE0 SHL DUP2 MSTORE PUSH1 0x4 ADD PUSH2 0x1075 SWAP2 SWAP1 PUSH2 0x1871 JUMP JUMPDEST PUSH1 0x20 PUSH1 0x40 MLOAD DUP1 DUP4 SUB DUP2 DUP7 DUP1 EXTCODESIZE ISZERO DUP1 ISZERO PUSH2 0x108D JUMPI PUSH1 0x0 DUP1 REVERT JUMPDEST POP GAS STATICCALL ISZERO DUP1 ISZERO PUSH2 0x10A1 JUMPI RETURNDATASIZE PUSH1 0x0 DUP1 RETURNDATACOPY RETURNDATASIZE PUSH1 0x0 REVERT JUMPDEST POP POP POP POP PUSH1 0x40 MLOAD RETURNDATASIZE PUSH1 0x1F NOT PUSH1 0x1F DUP3 ADD AND DUP3 ADD DUP1 PUSH1 0x40 MSTORE POP DUP2 ADD SWAP1 PUSH2 0x10C5 SWAP2 SWAP1 PUSH2 0x1EAF JUMP JUMPDEST PUSH2 0x10CF SWAP2 SWAP1 PUSH2 0x19E6 JUMP JUMPDEST SWAP2 POP PUSH32 0x74496FCE2CDC392D99808924E4161C005195A64FEE4C166B02C2B716DB28ABB0 DUP3 PUSH1 0x40 MLOAD PUSH2 0x1100 SWAP2 SWAP1 PUSH2 0x13A5 JUMP JUMPDEST PUSH1 0x40 MLOAD DUP1 SWAP2 SUB SWAP1 LOG1 DUP2 SWAP3 POP POP POP SWAP7 SWAP6 POP POP POP POP POP POP JUMP JUMPDEST DUP2 PUSH20 0xFFFFFFFFFFFFFFFFFFFFFFFFFFFFFFFFFFFFFFFF AND PUSH4 0xA9059CBB PUSH2 0x113B PUSH2 0xB97 JUMP JUMPDEST DUP4 PUSH1 0x40 MLOAD DUP4 PUSH4 0xFFFFFFFF AND PUSH1 0xE0 SHL DUP2 MSTORE PUSH1 0x4 ADD PUSH2 0x1159 SWAP3 SWAP2 SWAP1 PUSH2 0x200B JUMP JUMPDEST PUSH1 0x20 PUSH1 0x40 MLOAD DUP1 DUP4 SUB DUP2 PUSH1 0x0 DUP8 DUP1 EXTCODESIZE ISZERO DUP1 ISZERO PUSH2 0x1173 JUMPI PUSH1 0x0 DUP1 REVERT JUMPDEST POP GAS CALL ISZERO DUP1 ISZERO PUSH2 0x1187 JUMPI RETURNDATASIZE PUSH1 0x0 DUP1 RETURNDATACOPY RETURNDATASIZE PUSH1 0x0 REVERT JUMPDEST POP POP POP POP PUSH1 0x40 MLOAD RETURNDATASIZE PUSH1 0x1F NOT PUSH1 0x1F DUP3 ADD AND DUP3 ADD DUP1 PUSH1 0x40 MSTORE POP DUP2 ADD SWAP1 PUSH2 0x11AB SWAP2 SWAP1 PUSH2 0x1E6D JUMP JUMPDEST POP POP POP JUMP JUMPDEST DUP2 PUSH20 0xFFFFFFFFFFFFFFFFFFFFFFFFFFFFFFFFFFFFFFFF AND PUSH4 0xA9059CBB CALLER DUP4 PUSH1 0x40 MLOAD DUP4 PUSH4 0xFFFFFFFF AND PUSH1 0xE0 SHL DUP2 MSTORE PUSH1 0x4 ADD PUSH2 0x11EB SWAP3 SWAP2 SWAP1 PUSH2 0x200B JUMP JUMPDEST PUSH1 0x20 PUSH1 0x40 MLOAD DUP1 DUP4 SUB DUP2 PUSH1 0x0 DUP8 DUP1 EXTCODESIZE ISZERO DUP1 ISZERO PUSH2 0x1205 JUMPI PUSH1 0x0 DUP1 REVERT JUMPDEST POP GAS CALL ISZERO DUP1 ISZERO PUSH2 0x1219 JUMPI RETURNDATASIZE PUSH1 0x0 DUP1 RETURNDATACOPY RETURNDATASIZE PUSH1 0x0 REVERT JUMPDEST POP POP POP POP PUSH1 0x40 MLOAD RETURNDATASIZE PUSH1 0x1F NOT PUSH1 0x1F DUP3 ADD AND DUP3 ADD DUP1 PUSH1 0x40 MSTORE POP DUP2 ADD SWAP1 PUSH2 0x123D SWAP2 SWAP1 PUSH2 0x1E6D JUMP JUMPDEST POP POP POP JUMP JUMPDEST PUSH2 0x124A PUSH2 0x1384 JUMP JUMPDEST PUSH20 0xFFFFFFFFFFFFFFFFFFFFFFFFFFFFFFFFFFFFFFFF AND PUSH2 0x1268 PUSH2 0xB97 JUMP JUMPDEST PUSH20 0xFFFFFFFFFFFFFFFFFFFFFFFFFFFFFFFFFFFFFFFF AND EQ PUSH2 0x12BE JUMPI PUSH1 0x40 MLOAD PUSH32 0x8C379A000000000000000000000000000000000000000000000000000000000 DUP2 MSTORE PUSH1 0x4 ADD PUSH2 0x12B5 SWAP1 PUSH2 0x2080 JUMP JUMPDEST PUSH1 0x40 MLOAD DUP1 SWAP2 SUB SWAP1 REVERT JUMPDEST JUMP JUMPDEST PUSH1 0x0 DUP1 PUSH1 0x0 SWAP1 SLOAD SWAP1 PUSH2 0x100 EXP SWAP1 DIV PUSH20 0xFFFFFFFFFFFFFFFFFFFFFFFFFFFFFFFFFFFFFFFF AND SWAP1 POP DUP2 PUSH1 0x0 DUP1 PUSH2 0x100 EXP DUP2 SLOAD DUP2 PUSH20 0xFFFFFFFFFFFFFFFFFFFFFFFFFFFFFFFFFFFFFFFF MUL NOT AND SWAP1 DUP4 PUSH20 0xFFFFFFFFFFFFFFFFFFFFFFFFFFFFFFFFFFFFFFFF AND MUL OR SWAP1 SSTORE POP DUP2 PUSH20 0xFFFFFFFFFFFFFFFFFFFFFFFFFFFFFFFFFFFFFFFF AND DUP2 PUSH20 0xFFFFFFFFFFFFFFFFFFFFFFFFFFFFFFFFFFFFFFFF AND PUSH32 0x8BE0079C531659141344CD1FD0A4F28419497F9722A3DAAFE3B4186F6B6457E0 PUSH1 0x40 MLOAD PUSH1 0x40 MLOAD DUP1 SWAP2 SUB SWAP1 LOG3 POP POP JUMP JUMPDEST PUSH1 0x0 CALLER SWAP1 POP SWAP1 JUMP JUMPDEST PUSH1 0x0 DUP2 SWAP1 POP SWAP2 SWAP1 POP JUMP JUMPDEST PUSH2 0x139F DUP2 PUSH2 0x138C JUMP JUMPDEST DUP3 MSTORE POP POP JUMP JUMPDEST PUSH1 0x0 PUSH1 0x20 DUP3 ADD SWAP1 POP PUSH2 0x13BA PUSH1 0x0 DUP4 ADD DUP5 PUSH2 0x1396 JUMP JUMPDEST SWAP3 SWAP2 POP POP JUMP JUMPDEST PUSH1 0x0 PUSH1 0x40 MLOAD SWAP1 POP SWAP1 JUMP JUMPDEST PUSH1 0x0 DUP1 REVERT JUMPDEST PUSH1 0x0 DUP1 REVERT JUMPDEST PUSH1 0x0 DUP1 REVERT JUMPDEST PUSH1 0x0 DUP1 REVERT JUMPDEST PUSH1 0x0 DUP1 REVERT JUMPDEST PUSH1 0x0 DUP1 DUP4 PUSH1 0x1F DUP5 ADD SLT PUSH2 0x13F9 JUMPI PUSH2 0x13F8 PUSH2 0x13D4 JUMP JUMPDEST JUMPDEST DUP3 CALLDATALOAD SWAP1 POP PUSH8 0xFFFFFFFFFFFFFFFF DUP2 GT ISZERO PUSH2 0x1416 JUMPI PUSH2 0x1415 PUSH2 0x13D9 JUMP JUMPDEST JUMPDEST PUSH1 0x20 DUP4 ADD SWAP2 POP DUP4 PUSH1 0x20 DUP3 MUL DUP4 ADD GT ISZERO PUSH2 0x1432 JUMPI PUSH2 0x1431 PUSH2 0x13DE JUMP JUMPDEST JUMPDEST SWAP3 POP SWAP3 SWAP1 POP JUMP JUMPDEST PUSH1 0x0 DUP1 DUP4 PUSH1 0x1F DUP5 ADD SLT PUSH2 0x144F JUMPI PUSH2 0x144E PUSH2 0x13D4 JUMP JUMPDEST JUMPDEST DUP3 CALLDATALOAD SWAP1 POP PUSH8 0xFFFFFFFFFFFFFFFF DUP2 GT ISZERO PUSH2 0x146C JUMPI PUSH2 0x146B PUSH2 0x13D9 JUMP JUMPDEST JUMPDEST PUSH1 0x20 DUP4 ADD SWAP2 POP DUP4 PUSH1 0x20 DUP3 MUL DUP4 ADD GT ISZERO PUSH2 0x1488 JUMPI PUSH2 0x1487 PUSH2 0x13DE JUMP JUMPDEST JUMPDEST SWAP3 POP SWAP3 SWAP1 POP JUMP JUMPDEST PUSH1 0x0 DUP1 DUP4 PUSH1 0x1F DUP5 ADD SLT PUSH2 0x14A5 JUMPI PUSH2 0x14A4 PUSH2 0x13D4 JUMP JUMPDEST JUMPDEST DUP3 CALLDATALOAD SWAP1 POP PUSH8 0xFFFFFFFFFFFFFFFF DUP2 GT ISZERO PUSH2 0x14C2 JUMPI PUSH2 0x14C1 PUSH2 0x13D9 JUMP JUMPDEST JUMPDEST PUSH1 0x20 DUP4 ADD SWAP2 POP DUP4 PUSH1 0x20 DUP3 MUL DUP4 ADD GT ISZERO PUSH2 0x14DE JUMPI PUSH2 0x14DD PUSH2 0x13DE JUMP JUMPDEST JUMPDEST SWAP3 POP SWAP3 SWAP1 POP JUMP JUMPDEST PUSH1 0x0 DUP1 DUP4 PUSH1 0x1F DUP5 ADD SLT PUSH2 0x14FB JUMPI PUSH2 0x14FA PUSH2 0x13D4 JUMP JUMPDEST JUMPDEST DUP3 CALLDATALOAD SWAP1 POP PUSH8 0xFFFFFFFFFFFFFFFF DUP2 GT ISZERO PUSH2 0x1518 JUMPI PUSH2 0x1517 PUSH2 0x13D9 JUMP JUMPDEST JUMPDEST PUSH1 0x20 DUP4 ADD SWAP2 POP DUP4 PUSH1 0x20 DUP3 MUL DUP4 ADD GT ISZERO PUSH2 0x1534 JUMPI PUSH2 0x1533 PUSH2 0x13DE JUMP JUMPDEST JUMPDEST SWAP3 POP SWAP3 SWAP1 POP JUMP JUMPDEST PUSH1 0x0 PUSH1 0x1F NOT PUSH1 0x1F DUP4 ADD AND SWAP1 POP SWAP2 SWAP1 POP JUMP JUMPDEST PUSH32 0x4E487B7100000000000000000000000000000000000000000000000000000000 PUSH1 0x0 MSTORE PUSH1 0x41 PUSH1 0x4 MSTORE PUSH1 0x24 PUSH1 0x0 REVERT JUMPDEST PUSH2 0x1584 DUP3 PUSH2 0x153B JUMP JUMPDEST DUP2 ADD DUP2 DUP2 LT PUSH8 0xFFFFFFFFFFFFFFFF DUP3 GT OR ISZERO PUSH2 0x15A3 JUMPI PUSH2 0x15A2 PUSH2 0x154C JUMP JUMPDEST JUMPDEST DUP1 PUSH1 0x40 MSTORE POP POP POP JUMP JUMPDEST PUSH1 0x0 PUSH2 0x15B6 PUSH2 0x13C0 JUMP JUMPDEST SWAP1 POP PUSH2 0x15C2 DUP3 DUP3 PUSH2 0x157B JUMP JUMPDEST SWAP2 SWAP1 POP JUMP JUMPDEST PUSH1 0x0 PUSH8 0xFFFFFFFFFFFFFFFF DUP3 GT ISZERO PUSH2 0x15E2 JUMPI PUSH2 0x15E1 PUSH2 0x154C JUMP JUMPDEST JUMPDEST PUSH1 0x20 DUP3 MUL SWAP1 POP PUSH1 0x20 DUP2 ADD SWAP1 POP SWAP2 SWAP1 POP JUMP JUMPDEST PUSH2 0x15FC DUP2 PUSH2 0x138C JUMP JUMPDEST DUP2 EQ PUSH2 0x1607 JUMPI PUSH1 0x0 DUP1 REVERT JUMPDEST POP JUMP JUMPDEST PUSH1 0x0 DUP2 CALLDATALOAD SWAP1 POP PUSH2 0x1619 DUP2 PUSH2 0x15F3 JUMP JUMPDEST SWAP3 SWAP2 POP POP JUMP JUMPDEST PUSH1 0x0 PUSH2 0x1632 PUSH2 0x162D DUP5 PUSH2 0x15C7 JUMP JUMPDEST PUSH2 0x15AC JUMP JUMPDEST SWAP1 POP DUP1 DUP4 DUP3 MSTORE PUSH1 0x20 DUP3 ADD SWAP1 POP PUSH1 0x20 DUP5 MUL DUP4 ADD DUP6 DUP2 GT ISZERO PUSH2 0x1655 JUMPI PUSH2 0x1654 PUSH2 0x13DE JUMP JUMPDEST JUMPDEST DUP4 JUMPDEST DUP2 DUP2 LT ISZERO PUSH2 0x167E JUMPI DUP1 PUSH2 0x166A DUP9 DUP3 PUSH2 0x160A JUMP JUMPDEST DUP5 MSTORE PUSH1 0x20 DUP5 ADD SWAP4 POP POP PUSH1 0x20 DUP2 ADD SWAP1 POP PUSH2 0x1657 JUMP JUMPDEST POP POP POP SWAP4 SWAP3 POP POP POP JUMP JUMPDEST PUSH1 0x0 DUP3 PUSH1 0x1F DUP4 ADD SLT PUSH2 0x169D JUMPI PUSH2 0x169C PUSH2 0x13D4 JUMP JUMPDEST JUMPDEST DUP2 CALLDATALOAD PUSH2 0x16AD DUP5 DUP3 PUSH1 0x20 DUP7 ADD PUSH2 0x161F JUMP JUMPDEST SWAP2 POP POP SWAP3 SWAP2 POP POP JUMP JUMPDEST PUSH1 0x0 DUP1 PUSH1 0x0 DUP1 PUSH1 0x0 DUP1 PUSH1 0x0 DUP1 PUSH1 0x0 DUP1 PUSH1 0x0 PUSH1 0xC0 DUP13 DUP15 SUB SLT ISZERO PUSH2 0x16DB JUMPI PUSH2 0x16DA PUSH2 0x13CA JUMP JUMPDEST JUMPDEST PUSH1 0x0 DUP13 ADD CALLDATALOAD PUSH8 0xFFFFFFFFFFFFFFFF DUP2 GT ISZERO PUSH2 0x16F9 JUMPI PUSH2 0x16F8 PUSH2 0x13CF JUMP JUMPDEST JUMPDEST PUSH2 0x1705 DUP15 DUP3 DUP16 ADD PUSH2 0x13E3 JUMP JUMPDEST SWAP12 POP SWAP12 POP POP PUSH1 0x20 DUP13 ADD CALLDATALOAD PUSH8 0xFFFFFFFFFFFFFFFF DUP2 GT ISZERO PUSH2 0x1728 JUMPI PUSH2 0x1727 PUSH2 0x13CF JUMP JUMPDEST JUMPDEST PUSH2 0x1734 DUP15 DUP3 DUP16 ADD PUSH2 0x13E3 JUMP JUMPDEST SWAP10 POP SWAP10 POP POP PUSH1 0x40 DUP13 ADD CALLDATALOAD PUSH8 0xFFFFFFFFFFFFFFFF DUP2 GT ISZERO PUSH2 0x1757 JUMPI PUSH2 0x1756 PUSH2 0x13CF JUMP JUMPDEST JUMPDEST PUSH2 0x1763 DUP15 DUP3 DUP16 ADD PUSH2 0x1439 JUMP JUMPDEST SWAP8 POP SWAP8 POP POP PUSH1 0x60 DUP13 ADD CALLDATALOAD PUSH8 0xFFFFFFFFFFFFFFFF DUP2 GT ISZERO PUSH2 0x1786 JUMPI PUSH2 0x1785 PUSH2 0x13CF JUMP JUMPDEST JUMPDEST PUSH2 0x1792 DUP15 DUP3 DUP16 ADD PUSH2 0x148F JUMP JUMPDEST SWAP6 POP SWAP6 POP POP PUSH1 0x80 DUP13 ADD CALLDATALOAD PUSH8 0xFFFFFFFFFFFFFFFF DUP2 GT ISZERO PUSH2 0x17B5 JUMPI PUSH2 0x17B4 PUSH2 0x13CF JUMP JUMPDEST JUMPDEST PUSH2 0x17C1 DUP15 DUP3 DUP16 ADD PUSH2 0x14E5 JUMP JUMPDEST SWAP4 POP SWAP4 POP POP PUSH1 0xA0 DUP13 ADD CALLDATALOAD PUSH8 0xFFFFFFFFFFFFFFFF DUP2 GT ISZERO PUSH2 0x17E4 JUMPI PUSH2 0x17E3 PUSH2 0x13CF JUMP JUMPDEST JUMPDEST PUSH2 0x17F0 DUP15 DUP3 DUP16 ADD PUSH2 0x1688 JUMP JUMPDEST SWAP2 POP POP SWAP3 SWAP6 SWAP9 SWAP12 POP SWAP3 SWAP6 SWAP9 SWAP12 SWAP1 SWAP4 SWAP7 SWAP10 POP JUMP JUMPDEST PUSH1 0x0 PUSH1 0x20 DUP3 DUP5 SUB SLT ISZERO PUSH2 0x1819 JUMPI PUSH2 0x1818 PUSH2 0x13CA JUMP JUMPDEST JUMPDEST PUSH1 0x0 PUSH2 0x1827 DUP5 DUP3 DUP6 ADD PUSH2 0x160A JUMP JUMPDEST SWAP2 POP POP SWAP3 SWAP2 POP POP JUMP JUMPDEST PUSH1 0x0 PUSH20 0xFFFFFFFFFFFFFFFFFFFFFFFFFFFFFFFFFFFFFFFF DUP3 AND SWAP1 POP SWAP2 SWAP1 POP JUMP JUMPDEST PUSH1 0x0 PUSH2 0x185B DUP3 PUSH2 0x1830 JUMP JUMPDEST SWAP1 POP SWAP2 SWAP1 POP JUMP JUMPDEST PUSH2 0x186B DUP2 PUSH2 0x1850 JUMP JUMPDEST DUP3 MSTORE POP POP JUMP JUMPDEST PUSH1 0x0 PUSH1 0x20 DUP3 ADD SWAP1 POP PUSH2 0x1886 PUSH1 0x0 DUP4 ADD DUP5 PUSH2 0x1862 JUMP JUMPDEST SWAP3 SWAP2 POP POP JUMP JUMPDEST PUSH1 0x0 DUP2 SWAP1 POP SWAP2 SWAP1 POP JUMP JUMPDEST PUSH1 0x0 PUSH2 0x18B1 PUSH2 0x18AC PUSH2 0x18A7 DUP5 PUSH2 0x1830 JUMP JUMPDEST PUSH2 0x188C JUMP JUMPDEST PUSH2 0x1830 JUMP JUMPDEST SWAP1 POP SWAP2 SWAP1 POP JUMP JUMPDEST PUSH1 0x0 PUSH2 0x18C3 DUP3 PUSH2 0x1896 JUMP JUMPDEST SWAP1 POP SWAP2 SWAP1 POP JUMP JUMPDEST PUSH1 0x0 PUSH2 0x18D5 DUP3 PUSH2 0x18B8 JUMP JUMPDEST SWAP1 POP SWAP2 SWAP1 POP JUMP JUMPDEST PUSH2 0x18E5 DUP2 PUSH2 0x18CA JUMP JUMPDEST DUP3 MSTORE POP POP JUMP JUMPDEST PUSH1 0x0 PUSH1 0x20 DUP3 ADD SWAP1 POP PUSH2 0x1900 PUSH1 0x0 DUP4 ADD DUP5 PUSH2 0x18DC JUMP JUMPDEST SWAP3 SWAP2 POP POP JUMP JUMPDEST PUSH2 0x190F DUP2 PUSH2 0x1850 JUMP JUMPDEST DUP2 EQ PUSH2 0x191A JUMPI PUSH1 0x0 DUP1 REVERT JUMPDEST POP JUMP JUMPDEST PUSH1 0x0 DUP2 CALLDATALOAD SWAP1 POP PUSH2 0x192C DUP2 PUSH2 0x1906 JUMP JUMPDEST SWAP3 SWAP2 POP POP JUMP JUMPDEST PUSH1 0x0 PUSH1 0x20 DUP3 DUP5 SUB SLT ISZERO PUSH2 0x1948 JUMPI PUSH2 0x1947 PUSH2 0x13CA JUMP JUMPDEST JUMPDEST PUSH1 0x0 PUSH2 0x1956 DUP5 DUP3 DUP6 ADD PUSH2 0x191D JUMP JUMPDEST SWAP2 POP POP SWAP3 SWAP2 POP POP JUMP JUMPDEST PUSH32 0x4E487B7100000000000000000000000000000000000000000000000000000000 PUSH1 0x0 MSTORE PUSH1 0x32 PUSH1 0x4 MSTORE PUSH1 0x24 PUSH1 0x0 REVERT JUMPDEST PUSH1 0x0 PUSH1 0x40 DUP3 ADD SWAP1 POP PUSH2 0x19A3 PUSH1 0x0 DUP4 ADD DUP6 PUSH2 0x1396 JUMP JUMPDEST PUSH2 0x19B0 PUSH1 0x20 DUP4 ADD DUP5 PUSH2 0x1396 JUMP JUMPDEST SWAP4 SWAP3 POP POP POP JUMP JUMPDEST PUSH32 0x4E487B7100000000000000000000000000000000000000000000000000000000 PUSH1 0x0 MSTORE PUSH1 0x11 PUSH1 0x4 MSTORE PUSH1 0x24 PUSH1 0x0 REVERT JUMPDEST PUSH1 0x0 PUSH2 0x19F1 DUP3 PUSH2 0x138C JUMP JUMPDEST SWAP2 POP PUSH2 0x19FC DUP4 PUSH2 0x138C JUMP JUMPDEST SWAP3 POP DUP3 DUP3 LT ISZERO PUSH2 0x1A0F JUMPI PUSH2 0x1A0E PUSH2 0x19B7 JUMP JUMPDEST JUMPDEST DUP3 DUP3 SUB SWAP1 POP SWAP3 SWAP2 POP POP JUMP JUMPDEST PUSH1 0x0 PUSH2 0x1A25 DUP3 PUSH2 0x1850 JUMP JUMPDEST SWAP1 POP SWAP2 SWAP1 POP JUMP JUMPDEST PUSH2 0x1A35 DUP2 PUSH2 0x1A1A JUMP JUMPDEST DUP2 EQ PUSH2 0x1A40 JUMPI PUSH1 0x0 DUP1 REVERT JUMPDEST POP JUMP JUMPDEST PUSH1 0x0 DUP2 CALLDATALOAD SWAP1 POP PUSH2 0x1A52 DUP2 PUSH2 0x1A2C JUMP JUMPDEST SWAP3 SWAP2 POP POP JUMP JUMPDEST PUSH1 0x0 PUSH1 0x20 DUP3 DUP5 SUB SLT ISZERO PUSH2 0x1A6E JUMPI PUSH2 0x1A6D PUSH2 0x13CA JUMP JUMPDEST JUMPDEST PUSH1 0x0 PUSH2 0x1A7C DUP5 DUP3 DUP6 ADD PUSH2 0x1A43 JUMP JUMPDEST SWAP2 POP POP SWAP3 SWAP2 POP POP JUMP JUMPDEST PUSH1 0x0 PUSH2 0x1A90 DUP3 PUSH2 0x138C JUMP JUMPDEST SWAP2 POP PUSH2 0x1A9B DUP4 PUSH2 0x138C JUMP JUMPDEST SWAP3 POP DUP3 PUSH32 0xFFFFFFFFFFFFFFFFFFFFFFFFFFFFFFFFFFFFFFFFFFFFFFFFFFFFFFFFFFFFFFFF SUB DUP3 GT ISZERO PUSH2 0x1AD0 JUMPI PUSH2 0x1ACF PUSH2 0x19B7 JUMP JUMPDEST JUMPDEST DUP3 DUP3 ADD SWAP1 POP SWAP3 SWAP2 POP POP JUMP JUMPDEST PUSH1 0x0 PUSH2 0x1AE6 DUP3 PUSH2 0x1830 JUMP JUMPDEST SWAP1 POP SWAP2 SWAP1 POP JUMP JUMPDEST PUSH2 0x1AF6 DUP2 PUSH2 0x1ADB JUMP JUMPDEST DUP2 EQ PUSH2 0x1B01 JUMPI PUSH1 0x0 DUP1 REVERT JUMPDEST POP JUMP JUMPDEST PUSH1 0x0 DUP2 CALLDATALOAD SWAP1 POP PUSH2 0x1B13 DUP2 PUSH2 0x1AED JUMP JUMPDEST SWAP3 SWAP2 POP POP JUMP JUMPDEST PUSH1 0x0 PUSH1 0x20 DUP3 DUP5 SUB SLT ISZERO PUSH2 0x1B2F JUMPI PUSH2 0x1B2E PUSH2 0x13CA JUMP JUMPDEST JUMPDEST PUSH1 0x0 PUSH2 0x1B3D DUP5 DUP3 DUP6 ADD PUSH2 0x1B04 JUMP JUMPDEST SWAP2 POP POP SWAP3 SWAP2 POP POP JUMP JUMPDEST PUSH1 0x0 DUP1 REVERT JUMPDEST PUSH1 0x0 DUP1 REVERT JUMPDEST PUSH1 0x0 DUP1 REVERT JUMPDEST PUSH1 0x0 DUP1 DUP4 CALLDATALOAD PUSH1 0x1 PUSH1 0x20 SUB DUP5 CALLDATASIZE SUB SUB DUP2 SLT PUSH2 0x1B72 JUMPI PUSH2 0x1B71 PUSH2 0x1B46 JUMP JUMPDEST JUMPDEST DUP1 DUP5 ADD SWAP3 POP DUP3 CALLDATALOAD SWAP2 POP PUSH8 0xFFFFFFFFFFFFFFFF DUP3 GT ISZERO PUSH2 0x1B94 JUMPI PUSH2 0x1B93 PUSH2 0x1B4B JUMP JUMPDEST JUMPDEST PUSH1 0x20 DUP4 ADD SWAP3 POP PUSH1 0x1 DUP3 MUL CALLDATASIZE SUB DUP4 SGT ISZERO PUSH2 0x1BB0 JUMPI PUSH2 0x1BAF PUSH2 0x1B50 JUMP JUMPDEST JUMPDEST POP SWAP3 POP SWAP3 SWAP1 POP JUMP JUMPDEST PUSH1 0x0 PUSH2 0x1BC3 DUP3 PUSH2 0x138C JUMP JUMPDEST SWAP2 POP PUSH2 0x1BCE DUP4 PUSH2 0x138C JUMP JUMPDEST SWAP3 POP DUP2 PUSH32 0xFFFFFFFFFFFFFFFFFFFFFFFFFFFFFFFFFFFFFFFFFFFFFFFFFFFFFFFFFFFFFFFF DIV DUP4 GT DUP3 ISZERO ISZERO AND ISZERO PUSH2 0x1C07 JUMPI PUSH2 0x1C06 PUSH2 0x19B7 JUMP JUMPDEST JUMPDEST DUP3 DUP3 MUL SWAP1 POP SWAP3 SWAP2 POP POP JUMP JUMPDEST PUSH32 0x4E487B7100000000000000000000000000000000000000000000000000000000 PUSH1 0x0 MSTORE PUSH1 0x12 PUSH1 0x4 MSTORE PUSH1 0x24 PUSH1 0x0 REVERT JUMPDEST PUSH1 0x0 PUSH2 0x1C4C DUP3 PUSH2 0x138C JUMP JUMPDEST SWAP2 POP PUSH2 0x1C57 DUP4 PUSH2 0x138C JUMP JUMPDEST SWAP3 POP DUP3 PUSH2 0x1C67 JUMPI PUSH2 0x1C66 PUSH2 0x1C12 JUMP JUMPDEST JUMPDEST DUP3 DUP3 DIV SWAP1 POP SWAP3 SWAP2 POP POP JUMP JUMPDEST PUSH1 0x0 PUSH2 0x1C7D DUP3 PUSH2 0x18B8 JUMP JUMPDEST SWAP1 POP SWAP2 SWAP1 POP JUMP JUMPDEST PUSH2 0x1C8D DUP2 PUSH2 0x1C72 JUMP JUMPDEST DUP3 MSTORE POP POP JUMP JUMPDEST PUSH1 0x0 PUSH1 0x40 DUP3 ADD SWAP1 POP PUSH2 0x1CA8 PUSH1 0x0 DUP4 ADD DUP6 PUSH2 0x1C84 JUMP JUMPDEST PUSH2 0x1CB5 PUSH1 0x20 DUP4 ADD DUP5 PUSH2 0x1396 JUMP JUMPDEST SWAP4 SWAP3 POP POP POP JUMP JUMPDEST PUSH1 0x0 PUSH2 0x1CC7 DUP3 PUSH2 0x138C JUMP JUMPDEST SWAP2 POP PUSH32 0xFFFFFFFFFFFFFFFFFFFFFFFFFFFFFFFFFFFFFFFFFFFFFFFFFFFFFFFFFFFFFFFF DUP3 EQ ISZERO PUSH2 0x1CFA JUMPI PUSH2 0x1CF9 PUSH2 0x19B7 JUMP JUMPDEST JUMPDEST PUSH1 0x1 DUP3 ADD SWAP1 POP SWAP2 SWAP1 POP JUMP JUMPDEST PUSH1 0x0 DUP2 SWAP1 POP SWAP2 SWAP1 POP JUMP JUMPDEST PUSH1 0x0 PUSH2 0x1D2A PUSH2 0x1D25 PUSH2 0x1D20 DUP5 PUSH2 0x1D05 JUMP JUMPDEST PUSH2 0x188C JUMP JUMPDEST PUSH2 0x138C JUMP JUMPDEST SWAP1 POP SWAP2 SWAP1 POP JUMP JUMPDEST PUSH2 0x1D3A DUP2 PUSH2 0x1D0F JUMP JUMPDEST DUP3 MSTORE POP POP JUMP JUMPDEST PUSH1 0x0 PUSH1 0x20 DUP3 ADD SWAP1 POP PUSH2 0x1D55 PUSH1 0x0 DUP4 ADD DUP5 PUSH2 0x1D31 JUMP JUMPDEST SWAP3 SWAP2 POP POP JUMP JUMPDEST PUSH1 0x0 DUP3 DUP3 MSTORE PUSH1 0x20 DUP3 ADD SWAP1 POP SWAP3 SWAP2 POP POP JUMP JUMPDEST PUSH32 0x4F776E61626C653A206E6577206F776E657220697320746865207A65726F2061 PUSH1 0x0 DUP3 ADD MSTORE PUSH32 0x6464726573730000000000000000000000000000000000000000000000000000 PUSH1 0x20 DUP3 ADD MSTORE POP JUMP JUMPDEST PUSH1 0x0 PUSH2 0x1DC8 PUSH1 0x26 DUP4 PUSH2 0x1D5B JUMP JUMPDEST SWAP2 POP PUSH2 0x1DD3 DUP3 PUSH2 0x1D6C JUMP JUMPDEST PUSH1 0x40 DUP3 ADD SWAP1 POP SWAP2 SWAP1 POP JUMP JUMPDEST PUSH1 0x0 PUSH1 0x20 DUP3 ADD SWAP1 POP DUP2 DUP2 SUB PUSH1 0x0 DUP4 ADD MSTORE PUSH2 0x1DF7 DUP2 PUSH2 0x1DBB JUMP JUMPDEST SWAP1 POP SWAP2 SWAP1 POP JUMP JUMPDEST PUSH1 0x0 PUSH1 0x60 DUP3 ADD SWAP1 POP PUSH2 0x1E13 PUSH1 0x0 DUP4 ADD DUP7 PUSH2 0x1862 JUMP JUMPDEST PUSH2 0x1E20 PUSH1 0x20 DUP4 ADD DUP6 PUSH2 0x1862 JUMP JUMPDEST PUSH2 0x1E2D PUSH1 0x40 DUP4 ADD DUP5 PUSH2 0x1396 JUMP JUMPDEST SWAP5 SWAP4 POP POP POP POP JUMP JUMPDEST PUSH1 0x0 DUP2 ISZERO ISZERO SWAP1 POP SWAP2 SWAP1 POP JUMP JUMPDEST PUSH2 0x1E4A DUP2 PUSH2 0x1E35 JUMP JUMPDEST DUP2 EQ PUSH2 0x1E55 JUMPI PUSH1 0x0 DUP1 REVERT JUMPDEST POP JUMP JUMPDEST PUSH1 0x0 DUP2 MLOAD SWAP1 POP PUSH2 0x1E67 DUP2 PUSH2 0x1E41 JUMP JUMPDEST SWAP3 SWAP2 POP POP JUMP JUMPDEST PUSH1 0x0 PUSH1 0x20 DUP3 DUP5 SUB SLT ISZERO PUSH2 0x1E83 JUMPI PUSH2 0x1E82 PUSH2 0x13CA JUMP JUMPDEST JUMPDEST PUSH1 0x0 PUSH2 0x1E91 DUP5 DUP3 DUP6 ADD PUSH2 0x1E58 JUMP JUMPDEST SWAP2 POP POP SWAP3 SWAP2 POP POP JUMP JUMPDEST PUSH1 0x0 DUP2 MLOAD SWAP1 POP PUSH2 0x1EA9 DUP2 PUSH2 0x15F3 JUMP JUMPDEST SWAP3 SWAP2 POP POP JUMP JUMPDEST PUSH1 0x0 PUSH1 0x20 DUP3 DUP5 SUB SLT ISZERO PUSH2 0x1EC5 JUMPI PUSH2 0x1EC4 PUSH2 0x13CA JUMP JUMPDEST JUMPDEST PUSH1 0x0 PUSH2 0x1ED3 DUP5 DUP3 DUP6 ADD PUSH2 0x1E9A JUMP JUMPDEST SWAP2 POP POP SWAP3 SWAP2 POP POP JUMP JUMPDEST PUSH1 0x0 PUSH16 0xFFFFFFFFFFFFFFFFFFFFFFFFFFFFFFFF DUP3 AND SWAP1 POP SWAP2 SWAP1 POP JUMP JUMPDEST PUSH1 0x0 PUSH2 0x1F13 PUSH2 0x1F0E PUSH2 0x1F09 DUP5 PUSH2 0x1EDC JUMP JUMPDEST PUSH2 0x188C JUMP JUMPDEST PUSH2 0x138C JUMP JUMPDEST SWAP1 POP SWAP2 SWAP1 POP JUMP JUMPDEST PUSH2 0x1F23 DUP2 PUSH2 0x1EF8 JUMP JUMPDEST DUP3 MSTORE POP POP JUMP JUMPDEST PUSH1 0x0 PUSH1 0x40 DUP3 ADD SWAP1 POP PUSH2 0x1F3E PUSH1 0x0 DUP4 ADD DUP6 PUSH2 0x1862 JUMP JUMPDEST PUSH2 0x1F4B PUSH1 0x20 DUP4 ADD DUP5 PUSH2 0x1F1A JUMP JUMPDEST SWAP4 SWAP3 POP POP POP JUMP JUMPDEST PUSH1 0x0 DUP2 SWAP1 POP SWAP3 SWAP2 POP POP JUMP JUMPDEST DUP3 DUP2 DUP4 CALLDATACOPY PUSH1 0x0 DUP4 DUP4 ADD MSTORE POP POP POP JUMP JUMPDEST PUSH1 0x0 PUSH2 0x1F78 DUP4 DUP6 PUSH2 0x1F52 JUMP JUMPDEST SWAP4 POP PUSH2 0x1F85 DUP4 DUP6 DUP5 PUSH2 0x1F5D JUMP JUMPDEST DUP3 DUP5 ADD SWAP1 POP SWAP4 SWAP3 POP POP POP JUMP JUMPDEST PUSH1 0x0 PUSH2 0x1F9E DUP3 DUP5 DUP7 PUSH2 0x1F6C JUMP JUMPDEST SWAP2 POP DUP2 SWAP1 POP SWAP4 SWAP3 POP POP POP JUMP JUMPDEST PUSH2 0x1FB3 DUP2 PUSH2 0x1E35 JUMP JUMPDEST DUP3 MSTORE POP POP JUMP JUMPDEST PUSH1 0x0 PUSH1 0x40 DUP3 ADD SWAP1 POP PUSH2 0x1FCE PUSH1 0x0 DUP4 ADD DUP6 PUSH2 0x1FAA JUMP JUMPDEST PUSH2 0x1FDB PUSH1 0x20 DUP4 ADD DUP5 PUSH2 0x1396 JUMP JUMPDEST SWAP4 SWAP3 POP POP POP JUMP JUMPDEST PUSH1 0x0 PUSH1 0x40 DUP3 ADD SWAP1 POP PUSH2 0x1FF7 PUSH1 0x0 DUP4 ADD DUP6 PUSH2 0x1C84 JUMP JUMPDEST PUSH2 0x2004 PUSH1 0x20 DUP4 ADD DUP5 PUSH2 0x1C84 JUMP JUMPDEST SWAP4 SWAP3 POP POP POP JUMP JUMPDEST PUSH1 0x0 PUSH1 0x40 DUP3 ADD SWAP1 POP PUSH2 0x2020 PUSH1 0x0 DUP4 ADD DUP6 PUSH2 0x1862 JUMP JUMPDEST PUSH2 0x202D PUSH1 0x20 DUP4 ADD DUP5 PUSH2 0x1396 JUMP JUMPDEST SWAP4 SWAP3 POP POP POP JUMP JUMPDEST PUSH32 0x4F776E61626C653A2063616C6C6572206973206E6F7420746865206F776E6572 PUSH1 0x0 DUP3 ADD MSTORE POP JUMP JUMPDEST PUSH1 0x0 PUSH2 0x206A PUSH1 0x20 DUP4 PUSH2 0x1D5B JUMP JUMPDEST SWAP2 POP PUSH2 0x2075 DUP3 PUSH2 0x2034 JUMP JUMPDEST PUSH1 0x20 DUP3 ADD SWAP1 POP SWAP2 SWAP1 POP JUMP JUMPDEST PUSH1 0x0 PUSH1 0x20 DUP3 ADD SWAP1 POP DUP2 DUP2 SUB PUSH1 0x0 DUP4 ADD MSTORE PUSH2 0x2099 DUP2 PUSH2 0x205D JUMP JUMPDEST SWAP1 POP SWAP2 SWAP1 POP JUMP INVALID LOG2 PUSH5 0x6970667358 0x22 SLT KECCAK256 PUSH4 0xD0DBEE46 NOT 0xC9 CALL SHL LOG3 0xF7 PUSH19 0x102320EA2FBEE16B97858046FA3E99CA34E374 GT PUSH5 0x736F6C6343 STOP ADDMOD ADDMOD STOP CALLER "},"gasEstimates":{"creation":{"codeDepositCost":"1681200","executionCost":"infinite","totalCost":"infinite"},"external":{"":"174","WETH()":"infinite","fee()":"2495","maxTransactions()":"2430","multiSwap(address[],address[],address[],address[],bytes[],uint256[])":"infinite","owner()":"2544","renounceOwnership()":"30443","setMaxTransactionLimit(uint256)":"infinite","setfee(uint256)":"24851","transferOwnership(address)":"30835"},"internal":{"depositToken(contract IERC20,uint256)":"infinite","fillQuote(contract IERC20,contract IERC20,address,address,bytes calldata)":"infinite","setDestination()":"22","transferEth(uint256,address)":"infinite","withdrawFee(contract IERC20,uint256)":"infinite","withdrawToken(contract IERC20,uint256)":"infinite"}},"methodIdentifiers":{"WETH()":"ad5c4648","fee()":"ddca3f43","maxTransactions()":"24e1c18d","multiSwap(address[],address[],address[],address[],bytes[],uint256[])":"6ca591a7","owner()":"8da5cb5b","renounceOwnership()":"715018a6","setMaxTransactionLimit(uint256)":"7a9d7c14","setfee(uint256)":"73fee090","transferOwnership(address)":"f2fde38b"}},"storageLayout":{"storage":[{"astId":7,"contract":"contracts/AlphaVaultSwap.sol:AlphaVaultSwap","label":"_owner","offset":0,"slot":"0","type":"t_address"},{"astId":1003,"contract":"contracts/AlphaVaultSwap.sol:AlphaVaultSwap","label":"maxTransactions","offset":0,"slot":"1","type":"t_uint256"},{"astId":1005,"contract":"contracts/AlphaVaultSwap.sol:AlphaVaultSwap","label":"fee","offset":0,"slot":"2","type":"t_uint256"}],"types":{"t_address":{"encoding":"inplace","label":"address","numberOfBytes":"20"},"t_uint256":{"encoding":"inplace","label":"uint256","numberOfBytes":"32"}}},"userdoc":{"kind":"user","methods":{},"version":1}}}}