{
  "_format": "hh-sol-artifact-1",
  "contractName": "AlphaVaultSwap",
  "sourceName": "contracts/AlphaVaultSwap.sol",
  "abi": [
    {
      "inputs": [
        {
          "internalType": "address",
          "name": "_WETH",
          "type": "address"
        }
      ],
      "stateMutability": "nonpayable",
      "type": "constructor"
    },
    {
      "inputs": [
        {
          "internalType": "contract IERC20",
          "name": "buyToken",
          "type": "address"
        },
        {
          "internalType": "contract IERC20",
          "name": "sellToken",
          "type": "address"
        }
      ],
      "name": "FillQuote_Swap_Failed",
      "type": "error"
    },
    {
      "inputs": [],
      "name": "InvalidAddress",
      "type": "error"
    },
    {
      "inputs": [],
      "name": "Invalid_Multiswap_Data",
      "type": "error"
    },
    {
      "anonymous": false,
      "inputs": [
        {
          "indexed": false,
          "internalType": "uint256",
          "name": "wethBal_",
          "type": "uint256"
        },
        {
          "indexed": false,
          "internalType": "uint256",
          "name": "reqAmount_",
          "type": "uint256"
        }
      ],
      "name": "BadRequest",
      "type": "event"
    },
    {
      "anonymous": false,
      "inputs": [
        {
          "indexed": false,
          "internalType": "uint256",
          "name": "wethBal_",
          "type": "uint256"
        }
      ],
      "name": "EtherBalanceChange",
      "type": "event"
    },
    {
      "anonymous": false,
      "inputs": [
        {
          "indexed": true,
          "internalType": "address",
          "name": "previousOwner",
          "type": "address"
        },
        {
          "indexed": true,
          "internalType": "address",
          "name": "newOwner",
          "type": "address"
        }
      ],
      "name": "OwnershipTransferred",
      "type": "event"
    },
    {
      "anonymous": false,
      "inputs": [
        {
          "indexed": true,
          "internalType": "address",
          "name": "from_",
          "type": "address"
        },
        {
          "indexed": true,
          "internalType": "address",
          "name": "to_",
          "type": "address"
        },
        {
          "indexed": false,
          "internalType": "uint256",
          "name": "amount_",
          "type": "uint256"
        }
      ],
      "name": "TransferSuccessful",
      "type": "event"
    },
    {
      "anonymous": false,
      "inputs": [
        {
          "indexed": false,
          "internalType": "contract IERC20",
          "name": "buyToken",
          "type": "address"
        },
        {
          "indexed": false,
          "internalType": "uint256",
          "name": "boughtAmount_",
          "type": "uint256"
        }
      ],
      "name": "WithdrawTokens",
      "type": "event"
    },
    {
      "anonymous": false,
      "inputs": [
        {
          "indexed": false,
          "internalType": "bool",
          "name": "status",
          "type": "bool"
        },
        {
          "indexed": false,
          "internalType": "uint256",
          "name": "initialBuyTokenBalance",
          "type": "uint256"
        }
      ],
      "name": "ZeroXCallSuccess",
      "type": "event"
    },
    {
      "anonymous": false,
      "inputs": [
        {
          "indexed": false,
          "internalType": "uint256",
          "name": "buTokenAmount",
          "type": "uint256"
        }
      ],
      "name": "buyTokenBought",
      "type": "event"
    },
    {
      "anonymous": false,
      "inputs": [
        {
          "indexed": false,
          "internalType": "uint256",
          "name": "maxTransactions",
          "type": "uint256"
        }
      ],
      "name": "maxTransactionsChange",
      "type": "event"
    },
    {
      "stateMutability": "payable",
      "type": "fallback"
    },
    {
      "inputs": [],
      "name": "WETH",
      "outputs": [
        {
          "internalType": "contract IWETH",
          "name": "",
          "type": "address"
        }
      ],
      "stateMutability": "view",
      "type": "function"
    },
    {
      "inputs": [],
      "name": "fee",
      "outputs": [
        {
          "internalType": "uint256",
          "name": "",
          "type": "uint256"
        }
      ],
      "stateMutability": "view",
      "type": "function"
    },
    {
      "inputs": [],
      "name": "maxTransactions",
      "outputs": [
        {
          "internalType": "uint256",
          "name": "",
          "type": "uint256"
        }
      ],
      "stateMutability": "view",
      "type": "function"
    },
    {
      "inputs": [
        {
          "internalType": "contract IERC20[]",
          "name": "sellToken",
          "type": "address[]"
        },
        {
          "internalType": "contract IERC20[]",
          "name": "buyToken",
          "type": "address[]"
        },
        {
          "internalType": "address[]",
          "name": "spender",
          "type": "address[]"
        },
        {
          "internalType": "address payable[]",
          "name": "swapTarget",
          "type": "address[]"
        },
        {
          "internalType": "bytes[]",
          "name": "swapCallData",
          "type": "bytes[]"
        },
        {
          "internalType": "uint256[]",
          "name": "amount",
          "type": "uint256[]"
        }
      ],
      "name": "multiSwap",
      "outputs": [],
      "stateMutability": "payable",
      "type": "function"
    },
    {
      "inputs": [],
      "name": "owner",
      "outputs": [
        {
          "internalType": "address",
          "name": "",
          "type": "address"
        }
      ],
      "stateMutability": "view",
      "type": "function"
    },
    {
      "inputs": [],
      "name": "renounceOwnership",
      "outputs": [],
      "stateMutability": "nonpayable",
      "type": "function"
    },
    {
      "inputs": [
        {
          "internalType": "uint256",
          "name": "num",
          "type": "uint256"
        }
      ],
      "name": "setMaxTransactionLimit",
      "outputs": [],
      "stateMutability": "nonpayable",
      "type": "function"
    },
    {
      "inputs": [
        {
          "internalType": "uint256",
          "name": "num",
          "type": "uint256"
        }
      ],
      "name": "setfee",
      "outputs": [],
      "stateMutability": "nonpayable",
      "type": "function"
    },
    {
      "inputs": [
        {
          "internalType": "address",
          "name": "newOwner",
          "type": "address"
        }
      ],
      "name": "transferOwnership",
      "outputs": [],
      "stateMutability": "nonpayable",
      "type": "function"
    },
    {
      "stateMutability": "payable",
      "type": "receive"
    }
  ],
  "bytecode": "0x60a06040523480156200001157600080fd5b5060405162002310380380620023108339818101604052810190620000379190620001db565b620000576200004b620000a560201b60201c565b620000ad60201b60201c565b8073ffffffffffffffffffffffffffffffffffffffff1660808173ffffffffffffffffffffffffffffffffffffffff1660601b8152505060196001819055506000600281905550506200020d565b600033905090565b60008060009054906101000a900473ffffffffffffffffffffffffffffffffffffffff169050816000806101000a81548173ffffffffffffffffffffffffffffffffffffffff021916908373ffffffffffffffffffffffffffffffffffffffff1602179055508173ffffffffffffffffffffffffffffffffffffffff168173ffffffffffffffffffffffffffffffffffffffff167f8be0079c531659141344cd1fd0a4f28419497f9722a3daafe3b4186f6b6457e060405160405180910390a35050565b600080fd5b600073ffffffffffffffffffffffffffffffffffffffff82169050919050565b6000620001a38262000176565b9050919050565b620001b58162000196565b8114620001c157600080fd5b50565b600081519050620001d581620001aa565b92915050565b600060208284031215620001f457620001f362000171565b5b60006200020484828501620001c4565b91505092915050565b60805160601c6120d66200023a6000396000818161027b015281816109760152610bc201526120d66000f3fe60806040526004361061008a5760003560e01c80637a9d7c14116100595780637a9d7c141461011a5780638da5cb5b14610143578063ad5c46481461016e578063ddca3f4314610199578063f2fde38b146101c457610091565b806324e1c18d146100935780636ca591a7146100be578063715018a6146100da57806373fee090146100f157610091565b3661009157005b005b34801561009f57600080fd5b506100a86101ed565b6040516100b591906113a5565b60405180910390f35b6100d860048036038101906100d391906116b6565b6101f3565b005b3480156100e657600080fd5b506100ef610b26565b005b3480156100fd57600080fd5b5061011860048036038101906101139190611803565b610b3a565b005b34801561012657600080fd5b50610141600480360381019061013c9190611803565b610b4c565b005b34801561014f57600080fd5b50610158610b97565b6040516101659190611871565b60405180910390f35b34801561017a57600080fd5b50610183610bc0565b60405161019091906118eb565b60405180910390f35b3480156101a557600080fd5b506101ae610be4565b6040516101bb91906113a5565b60405180910390f35b3480156101d057600080fd5b506101eb60048036038101906101e69190611932565b610bea565b005b60015481565b6001548b8b90501115801561020d5750888890508b8b9050145b801561021e57508888905087879050145b801561022f57508686905085859050145b610265576040517f90b42d6500000000000000000000000000000000000000000000000000000000815260040160405180910390fd5b60006040518060400160405280600081526020017f000000000000000000000000000000000000000000000000000000000000000073ffffffffffffffffffffffffffffffffffffffff168152509050600034111561036957806020015173ffffffffffffffffffffffffffffffffffffffff1663d0e30db0346040518263ffffffff1660e01b81526004016000604051808303818588803b15801561030a57600080fd5b505af115801561031e573d6000803e3d6000fd5b5050505050348160000181815250507f59e3c56b3739d587caa0270fae7c28e1b6a1af555395ad122400ff97d48fed16816000015160405161036091906113a5565b60405180910390a15b60005b88889050811015610abf57600073ffffffffffffffffffffffffffffffffffffffff168989838181106103a2576103a161195f565b5b90506020020160208101906103b79190611932565b73ffffffffffffffffffffffffffffffffffffffff1614156105a0578281815181106103e6576103e561195f565b5b602002602001015182600001511015610455577f0b74b0798ec89f7cf91b1446e01c1bb75b7d55c45b104edfb364a46a074e2f5682600001518483815181106104325761043161195f565b5b602002602001015160405161044892919061198e565b60405180910390a1610abf565b600083828151811061046a5761046961195f565b5b6020026020010151111561059b5782818151811061048b5761048a61195f565b5b6020026020010151826000018181516104a491906119e6565b91508181525050816020015173ffffffffffffffffffffffffffffffffffffffff16632e1a7d4d8483815181106104de576104dd61195f565b5b60200260200101516040518263ffffffff1660e01b815260040161050291906113a5565b600060405180830381600087803b15801561051c57600080fd5b505af1158015610530573d6000803e3d6000fd5b5050505061055f83828151811061054a5761054961195f565b5b602002602001015161055a610c6e565b610c76565b7f59e3c56b3739d587caa0270fae7c28e1b6a1af555395ad122400ff97d48fed16826000015160405161059291906113a5565b60405180910390a15b610aac565b816020015173ffffffffffffffffffffffffffffffffffffffff168d8d838181106105ce576105cd61195f565b5b90506020020160208101906105e39190611a58565b73ffffffffffffffffffffffffffffffffffffffff1614156107b2578a8a828181106106125761061161195f565b5b90506020020160208101906106279190611a58565b73ffffffffffffffffffffffffffffffffffffffff168d8d838181106106505761064f61195f565b5b90506020020160208101906106659190611a58565b73ffffffffffffffffffffffffffffffffffffffff16141561073f576106cc8d8d838181106106975761069661195f565b5b90506020020160208101906106ac9190611a58565b8483815181106106bf576106be61195f565b5b6020026020010151610cc1565b8281815181106106df576106de61195f565b5b6020026020010151826000018181516106f89190611a85565b915081815250507f59e3c56b3739d587caa0270fae7c28e1b6a1af555395ad122400ff97d48fed16826000015160405161073291906113a5565b60405180910390a1610aac565b8281815181106107525761075161195f565b5b60200260200101518260000181815161076b91906119e6565b915081815250507f59e3c56b3739d587caa0270fae7c28e1b6a1af555395ad122400ff97d48fed1682600001516040516107a591906113a5565b60405180910390a16107fe565b6107fd8d8d838181106107c8576107c761195f565b5b90506020020160208101906107dd9190611a58565b8483815181106107f0576107ef61195f565b5b6020026020010151610cc1565b5b60006108cd8c8c848181106108165761081561195f565b5b905060200201602081019061082b9190611a58565b8f8f8581811061083e5761083d61195f565b5b90506020020160208101906108539190611a58565b8c8c868181106108665761086561195f565b5b905060200201602081019061087b9190611932565b8b8b8781811061088e5761088d61195f565b5b90506020020160208101906108a39190611b19565b8a8a888181106108b6576108b561195f565b5b90506020028101906108c89190611b55565b610dba565b90506000612710826002546108e29190611bb8565b6108ec9190611c41565b9050836020015173ffffffffffffffffffffffffffffffffffffffff168d8d8581811061091c5761091b61195f565b5b90506020020160208101906109319190611a58565b73ffffffffffffffffffffffffffffffffffffffff1614156109db578082856000015161095e9190611a85565b61096891906119e6565b84600001818152505061099b7f000000000000000000000000000000000000000000000000000000000000000082611117565b7f59e3c56b3739d587caa0270fae7c28e1b6a1af555395ad122400ff97d48fed1684600001516040516109ce91906113a5565b60405180910390a1610aa9565b610a178d8d858181106109f1576109f061195f565b5b9050602002016020810190610a069190611a58565b8284610a1291906119e6565b6111b0565b610a488d8d85818110610a2d57610a2c61195f565b5b9050602002016020810190610a429190611a58565b82611117565b7f680f2e4f4032ebf1774e8cdbaddcb1b617a5a606411c8ca96257ada338d3833c8d8d85818110610a7c57610a7b61195f565b5b9050602002016020810190610a919190611a58565b83604051610aa0929190611c93565b60405180910390a15b50505b8080610ab790611cbc565b91505061036c565b50600081600001511115610b1857610adf816020015182600001516111b0565b7f59e3c56b3739d587caa0270fae7c28e1b6a1af555395ad122400ff97d48fed166000604051610b0f9190611d40565b60405180910390a15b505050505050505050505050565b610b2e611242565b610b3860006112c0565b565b610b42611242565b8060028190555050565b610b54611242565b806001819055507f5091ccfe22ca8f99d8f1f07c6ae3a61daf990d74ef229d46898624ff3977238c600154604051610b8c91906113a5565b60405180910390a150565b60008060009054906101000a900473ffffffffffffffffffffffffffffffffffffffff16905090565b7f000000000000000000000000000000000000000000000000000000000000000081565b60025481565b610bf2611242565b600073ffffffffffffffffffffffffffffffffffffffff168173ffffffffffffffffffffffffffffffffffffffff161415610c62576040517f08c379a0000000000000000000000000000000000000000000000000000000008152600401610c5990611dde565b60405180910390fd5b610c6b816112c0565b50565b600033905090565b8073ffffffffffffffffffffffffffffffffffffffff166108fc839081150290604051600060405180830381858888f19350505050158015610cbc573d6000803e3d6000fd5b505050565b8173ffffffffffffffffffffffffffffffffffffffff166323b872dd3330846040518463ffffffff1660e01b8152600401610cfe93929190611dfe565b602060405180830381600087803b158015610d1857600080fd5b505af1158015610d2c573d6000803e3d6000fd5b505050506040513d601f19601f82011682018060405250810190610d509190611e6d565b503073ffffffffffffffffffffffffffffffffffffffff163373ffffffffffffffffffffffffffffffffffffffff167fd6d3eb25a413c05d8107fc49deb2789bef7f612582b2482804c0b0423b6638ee83604051610dae91906113a5565b60405180910390a35050565b60008073ffffffffffffffffffffffffffffffffffffffff168573ffffffffffffffffffffffffffffffffffffffff161415610e22576040517fe6c4247b00000000000000000000000000000000000000000000000000000000815260040160405180910390fd5b60008773ffffffffffffffffffffffffffffffffffffffff166370a08231306040518263ffffffff1660e01b8152600401610e5d9190611871565b60206040518083038186803b158015610e7557600080fd5b505afa158015610e89573d6000803e3d6000fd5b505050506040513d601f19601f82011682018060405250810190610ead9190611eaf565b90508673ffffffffffffffffffffffffffffffffffffffff1663095ea7b3876fffffffffffffffffffffffffffffffff6040518363ffffffff1660e01b8152600401610efa929190611f29565b602060405180830381600087803b158015610f1457600080fd5b505af1158015610f28573d6000803e3d6000fd5b505050506040513d601f19601f82011682018060405250810190610f4c9190611e6d565b5060008573ffffffffffffffffffffffffffffffffffffffff1660008686604051610f78929190611f91565b60006040518083038185875af1925050503d8060008114610fb5576040519150601f19603f3d011682016040523d82523d6000602084013e610fba565b606091505b505090507fb1bbdf0cbdd013d8d322184c42c16dafe4b2b3b66c3d60f46874b6c78b9a87f68183604051610fef929190611fb9565b60405180910390a18061103b5788886040517f7155081c000000000000000000000000000000000000000000000000000000008152600401611032929190611fe2565b60405180910390fd5b818973ffffffffffffffffffffffffffffffffffffffff166370a08231306040518263ffffffff1660e01b81526004016110759190611871565b60206040518083038186803b15801561108d57600080fd5b505afa1580156110a1573d6000803e3d6000fd5b505050506040513d601f19601f820116820180604052508101906110c59190611eaf565b6110cf91906119e6565b91507f74496fce2cdc392d99808924e4161c005195a64fee4c166b02c2b716db28abb08260405161110091906113a5565b60405180910390a181925050509695505050505050565b8173ffffffffffffffffffffffffffffffffffffffff1663a9059cbb61113b610b97565b836040518363ffffffff1660e01b815260040161115992919061200b565b602060405180830381600087803b15801561117357600080fd5b505af1158015611187573d6000803e3d6000fd5b505050506040513d601f19601f820116820180604052508101906111ab9190611e6d565b505050565b8173ffffffffffffffffffffffffffffffffffffffff1663a9059cbb33836040518363ffffffff1660e01b81526004016111eb92919061200b565b602060405180830381600087803b15801561120557600080fd5b505af1158015611219573d6000803e3d6000fd5b505050506040513d601f19601f8201168201806040525081019061123d9190611e6d565b505050565b61124a611384565b73ffffffffffffffffffffffffffffffffffffffff16611268610b97565b73ffffffffffffffffffffffffffffffffffffffff16146112be576040517f08c379a00000000000000000000000000000000000000000000000000000000081526004016112b590612080565b60405180910390fd5b565b60008060009054906101000a900473ffffffffffffffffffffffffffffffffffffffff169050816000806101000a81548173ffffffffffffffffffffffffffffffffffffffff021916908373ffffffffffffffffffffffffffffffffffffffff1602179055508173ffffffffffffffffffffffffffffffffffffffff168173ffffffffffffffffffffffffffffffffffffffff167f8be0079c531659141344cd1fd0a4f28419497f9722a3daafe3b4186f6b6457e060405160405180910390a35050565b600033905090565b6000819050919050565b61139f8161138c565b82525050565b60006020820190506113ba6000830184611396565b92915050565b6000604051905090565b600080fd5b600080fd5b600080fd5b600080fd5b600080fd5b60008083601f8401126113f9576113f86113d4565b5b8235905067ffffffffffffffff811115611416576114156113d9565b5b602083019150836020820283011115611432576114316113de565b5b9250929050565b60008083601f84011261144f5761144e6113d4565b5b8235905067ffffffffffffffff81111561146c5761146b6113d9565b5b602083019150836020820283011115611488576114876113de565b5b9250929050565b60008083601f8401126114a5576114a46113d4565b5b8235905067ffffffffffffffff8111156114c2576114c16113d9565b5b6020830191508360208202830111156114de576114dd6113de565b5b9250929050565b60008083601f8401126114fb576114fa6113d4565b5b8235905067ffffffffffffffff811115611518576115176113d9565b5b602083019150836020820283011115611534576115336113de565b5b9250929050565b6000601f19601f8301169050919050565b7f4e487b7100000000000000000000000000000000000000000000000000000000600052604160045260246000fd5b6115848261153b565b810181811067ffffffffffffffff821117156115a3576115a261154c565b5b80604052505050565b60006115b66113c0565b90506115c2828261157b565b919050565b600067ffffffffffffffff8211156115e2576115e161154c565b5b602082029050602081019050919050565b6115fc8161138c565b811461160757600080fd5b50565b600081359050611619816115f3565b92915050565b600061163261162d846115c7565b6115ac565b90508083825260208201905060208402830185811115611655576116546113de565b5b835b8181101561167e578061166a888261160a565b845260208401935050602081019050611657565b5050509392505050565b600082601f83011261169d5761169c6113d4565b5b81356116ad84826020860161161f565b91505092915050565b600080600080600080600080600080600060c08c8e0312156116db576116da6113ca565b5b60008c013567ffffffffffffffff8111156116f9576116f86113cf565b5b6117058e828f016113e3565b9b509b505060208c013567ffffffffffffffff811115611728576117276113cf565b5b6117348e828f016113e3565b995099505060408c013567ffffffffffffffff811115611757576117566113cf565b5b6117638e828f01611439565b975097505060608c013567ffffffffffffffff811115611786576117856113cf565b5b6117928e828f0161148f565b955095505060808c013567ffffffffffffffff8111156117b5576117b46113cf565b5b6117c18e828f016114e5565b935093505060a08c013567ffffffffffffffff8111156117e4576117e36113cf565b5b6117f08e828f01611688565b9150509295989b509295989b9093969950565b600060208284031215611819576118186113ca565b5b60006118278482850161160a565b91505092915050565b600073ffffffffffffffffffffffffffffffffffffffff82169050919050565b600061185b82611830565b9050919050565b61186b81611850565b82525050565b60006020820190506118866000830184611862565b92915050565b6000819050919050565b60006118b16118ac6118a784611830565b61188c565b611830565b9050919050565b60006118c382611896565b9050919050565b60006118d5826118b8565b9050919050565b6118e5816118ca565b82525050565b600060208201905061190060008301846118dc565b92915050565b61190f81611850565b811461191a57600080fd5b50565b60008135905061192c81611906565b92915050565b600060208284031215611948576119476113ca565b5b60006119568482850161191d565b91505092915050565b7f4e487b7100000000000000000000000000000000000000000000000000000000600052603260045260246000fd5b60006040820190506119a36000830185611396565b6119b06020830184611396565b9392505050565b7f4e487b7100000000000000000000000000000000000000000000000000000000600052601160045260246000fd5b60006119f18261138c565b91506119fc8361138c565b925082821015611a0f57611a0e6119b7565b5b828203905092915050565b6000611a2582611850565b9050919050565b611a3581611a1a565b8114611a4057600080fd5b50565b600081359050611a5281611a2c565b92915050565b600060208284031215611a6e57611a6d6113ca565b5b6000611a7c84828501611a43565b91505092915050565b6000611a908261138c565b9150611a9b8361138c565b9250827fffffffffffffffffffffffffffffffffffffffffffffffffffffffffffffffff03821115611ad057611acf6119b7565b5b828201905092915050565b6000611ae682611830565b9050919050565b611af681611adb565b8114611b0157600080fd5b50565b600081359050611b1381611aed565b92915050565b600060208284031215611b2f57611b2e6113ca565b5b6000611b3d84828501611b04565b91505092915050565b600080fd5b600080fd5b600080fd5b60008083356001602003843603038112611b7257611b71611b46565b5b80840192508235915067ffffffffffffffff821115611b9457611b93611b4b565b5b602083019250600182023603831315611bb057611baf611b50565b5b509250929050565b6000611bc38261138c565b9150611bce8361138c565b9250817fffffffffffffffffffffffffffffffffffffffffffffffffffffffffffffffff0483118215151615611c0757611c066119b7565b5b828202905092915050565b7f4e487b7100000000000000000000000000000000000000000000000000000000600052601260045260246000fd5b6000611c4c8261138c565b9150611c578361138c565b925082611c6757611c66611c12565b5b828204905092915050565b6000611c7d826118b8565b9050919050565b611c8d81611c72565b82525050565b6000604082019050611ca86000830185611c84565b611cb56020830184611396565b9392505050565b6000611cc78261138c565b91507fffffffffffffffffffffffffffffffffffffffffffffffffffffffffffffffff821415611cfa57611cf96119b7565b5b600182019050919050565b6000819050919050565b6000611d2a611d25611d2084611d05565b61188c565b61138c565b9050919050565b611d3a81611d0f565b82525050565b6000602082019050611d556000830184611d31565b92915050565b600082825260208201905092915050565b7f4f776e61626c653a206e6577206f776e657220697320746865207a65726f206160008201527f6464726573730000000000000000000000000000000000000000000000000000602082015250565b6000611dc8602683611d5b565b9150611dd382611d6c565b604082019050919050565b60006020820190508181036000830152611df781611dbb565b9050919050565b6000606082019050611e136000830186611862565b611e206020830185611862565b611e2d6040830184611396565b949350505050565b60008115159050919050565b611e4a81611e35565b8114611e5557600080fd5b50565b600081519050611e6781611e41565b92915050565b600060208284031215611e8357611e826113ca565b5b6000611e9184828501611e58565b91505092915050565b600081519050611ea9816115f3565b92915050565b600060208284031215611ec557611ec46113ca565b5b6000611ed384828501611e9a565b91505092915050565b60006fffffffffffffffffffffffffffffffff82169050919050565b6000611f13611f0e611f0984611edc565b61188c565b61138c565b9050919050565b611f2381611ef8565b82525050565b6000604082019050611f3e6000830185611862565b611f4b6020830184611f1a565b9392505050565b600081905092915050565b82818337600083830152505050565b6000611f788385611f52565b9350611f85838584611f5d565b82840190509392505050565b6000611f9e828486611f6c565b91508190509392505050565b611fb381611e35565b82525050565b6000604082019050611fce6000830185611faa565b611fdb6020830184611396565b9392505050565b6000604082019050611ff76000830185611c84565b6120046020830184611c84565b9392505050565b60006040820190506120206000830185611862565b61202d6020830184611396565b9392505050565b7f4f776e61626c653a2063616c6c6572206973206e6f7420746865206f776e6572600082015250565b600061206a602083611d5b565b915061207582612034565b602082019050919050565b600060208201905081810360008301526120998161205d565b905091905056fea2646970667358221220b1c330cd38dbc0ee082d95990ca89c449d70916ce2aa224720e666c4fa4a3deb64736f6c63430008080033",
  "linkReferences": {},
  "deployedLinkReferences": {}
}